:100000000C94A30C0C94D0140C9401150C94321580
:100010000C94CE0C0C94CE0C0C94CE0C0C94CE0CF8
:100020000C94CE0C0C94CE0C0C94CE0C0C94CE0CE8
:100030000C94CE0C0C94335F0C94CE0C0C94CE0C20
:100040000C94CE0C0C94CF660C94A1120C94CE0C94
:100050000C94B9340C94CE0C0C94CE0C0C94CE0CA5
:100060000C94CE0C0C94CE0C0C94CE0C0C94CE0CA8
:100070000C94CE0C0C94CE0C0C94CE0C0C94CE0C98
:100080000C94CE0C0C94CE0C0C94CE0C084AD73B9E
:100090003BCE016E84BCBFFDC12F3D6C74319ABD57
:1000A00056833DDA3D00C77F11BED9E4BB4C3E917B
:1000B0006BAAAABE000000803F05A84CCDB2D44E6A
:1000C000B93836A9020C50B9918688083CA6AAAA6C
:1000D0002ABE000000803F00002100240027002AE3
:1000E0000000002200250028002B00000020002333
:1000F0000026002900020202020202020204040495
:1001000004040404040303030303030303010101C0
:1001100001010101010102040810204080010204D4
:1001200008102040800102040810204080804020F8
:10013000100804020100000001020000000000009D
:10014000000403070600000000000000000000009B
:1001500000000000006563686F3A004572726F72BC
:100160003A0053544F505045442E20005072696E4F
:100170007465722073746F70706564206475652097
:10018000746F206572726F72732E204669782074C6
:100190006865206572726F7220616E642075736588
:1001A000204D39393920746F20726573746172740F
:1001B0002E202854656D70657261747572652069B2
:1001C000732072657365742E2053657420697420E2
:1001D00061667465722072657374617274696E67AA
:1001E00029004B494C4C45442E20005072696E74D6
:1001F00065722068616C7465642E206B696C6C2874
:10020000292063616C6C656421006F6B005265731B
:10021000656E643A20002200556E6B6E6F776E201B
:10022000636F6D6D616E643A2022007A5F6D696E56
:100230003A2000795F6D696E3A2000785F6D696ED3
:100240003A20005A3A00593A0020436F756E7420E4
:10025000583A2000453A005A3A00593A00583A00B4
:100260004649524D574152455F4E414D453A4D61C9
:10027000726C696E2056313B20537072696E7465E2
:10028000722F6772626C206D617368757020666F83
:10029000722067656E36204649524D574152455F80
:1002A00055524C3A687474703A2F2F7777772E6DC9
:1002B000656E64656C2D70617274732E636F6D2052
:1002C00050524F544F434F4C5F56455253494F4E37
:1002D0003A312E30204D414348494E455F545950E4
:1002E000453A4D656E64656C2045585452554445F9
:1002F000525F434F554E543A310A004265642064C0
:100300006F6E652E0020423A0020453A00543A00B4
:100310004265642048656174696E672E00486561B6
:1003200074696E6720646F6E652E0020573A002056
:10033000453A00543A0048656174696E672E2E2E66
:10034000002042403A0020403A00202F0020423A4C
:1003500000202F006F6B20543A002569206D696ED4
:100360002C2025692073656300456E642066696CE6
:1003700065206C69737400426567696E2066696CFC
:1003800065206C697374004E6F206D6F76652E006A
:10039000526573756D696E67207072696E7400576F
:1003A00061697420666F7220757365722E2E2E003F
:1003B000536C6565702E2E2E0000000000000000BA
:1003C000000000000000000000000000000000002D
:1003D00000000048430000484300005C4300004820
:1003E000430000484300005C430000A0400000A020
:1003F000400000803FFFFFFF256920686F75727322
:10040000202569206D696E7574657300446F6E6593
:10041000207072696E74696E672066696C6500533E
:10042000544F505045442E20005072696E746572CE
:100430002073746F707065642064756520746F201C
:100440006572726F72732E20466978207468652019
:100450006572726F7220616E6420757365204D390C
:10046000393920746F20726573746172742E20287C
:1004700054656D7065726174757265206973207260
:10048000657365742E2053657420697420616674E9
:1004900065722072657374617274696E6729006F8A
:1004A0006B004E6F204C696E65204E756D626572F3
:1004B000207769746820636865636B73756D2C20A1
:1004C0004C617374204C696E653A20004E6F204376
:1004D0006865636B73756D2077697468206C696EED
:1004E00065206E756D6265722C204C617374204CB2
:1004F000696E653A2000636865636B73756D206D86
:1005000069736D617463682C204C617374204C694D
:100510006E653A20004C696E65204E756D6265729D
:10052000206973206E6F74204C617374204C696E67
:1005300065204E756D6265722B312C204C61737491
:10054000204C696E653A20004D31313000446F6EA9
:100550006520736176696E672066696C652E006F31
:100560006B004D3239002020506C616E6E65724216
:10057000756666657242797465733A20002046722A
:100580006565204D656D6F72793A20004665622081
:100590003233203230313300436F6D70696C6564E3
:1005A0003A2000286E6F6E652C2064656661756C5C
:1005B0007420636F6E6669672900207C2041757422
:1005C000686F723A20004665622032332032303143
:1005D000332031353A34383A303400204C6173746A
:1005E00020557064617465643A2000312E302E30DD
:1005F000004D61726C696E200020536F66747761E4
:100600007265205265736574002057617463686475
:100610006F67205265736574002042726F776E2099
:100620006F75742052657365740020457874657227
:100630006E616C20526573657400506F77657255FA
:1006400070007374617274002200656E7175656963
:100650006E672022002200656E717565696E6720E5
:1006600022007C3C3E5E2B3D3F2F5B5D3B2C2A22D3
:100670005C006563686F3A0020746F6F206C6F6E6A
:100680006720657874727573696F6E207072657615
:10069000656E7465640020636F6C642065787472A5
:1006A0007573696F6E2070726576656E746564002F
:1006B00045313A200045303A20005A3A2000593A54
:1006C0002000583A20004D53312C4D5332205069B0
:1006D0006E730A0024F404D9201BC40C5C0E980429
:1006E000C4095F0265077101F405F900FB04B3005A
:1006F00048048700C10369005803550003034500FF
:10070000BE023A008402310053022A002902250069
:1007100004022000E4011C00C8011900AF01170009
:100720009801140084011300710110006101100090
:1007300051010E0043010D0036010B002B010B008F
:1007400020010B00150109000C010900030108003C
:10075000FB000800F3000800EB000700E4000600BF
:10076000DE000600D8000600D2000600CC0005001E
:10077000C7000500C2000500BD000400B900040068
:10078000B5000400B1000400AD000400A90004009D
:10079000A5000300A20003009F0004009B000300CB
:1007A00098000300950002009300030090000300EE
:1007B0008D0002008B00030088000200860002000A
:1007C00084000300810002007F0002007D0002001F
:1007D0007B00020079000200770001007600020031
:1007E0007400020072000100710002006F0002003C
:1007F0006D0001006C0002006A0001006900020047
:10080000670001006600010065000100640002004D
:100810006200010061000100600001005F00020051
:100820005D0001005C0001005B0001005A00010056
:100830005900010058000100570001005600010056
:100840005500010054000100530000005300010056
:100850005200010051000100500001004F00010052
:100860004E0000004E0001004D0001004C00010050
:100870004B0000004B0001004A000100490001004C
:100880004800000048000100470001004600000049
:100890004600010045000000450001004400010041
:1008A000430000004300010042000000420001003C
:1008B0004100000041000100400001003F00000035
:1008C0003F0001003E0000003E0001003D0000002E
:1008D0003D0001003C0000003C0000003C00010025
:1008E0003B0000003B0001003A0000003A0001001C
:1008F0003900000039000100380000003800000015
:100900003800010037000000370001003600000009
:100910003600000036000100350000003500000000
:1009200035000100340000003400000034000100F4
:1009300033000000330000003300010032000000EB
:1009400032000000320001003100000031000000E0
:1009500031000100300000003000000030000100D4
:100960002F0000002F0000002F0000002F000100CA
:100970002E0000002E0000002E0001002D000000BF
:100980002D0000002D0000002D0001002C000000B3
:100990002C0000002C0000002C0001002B000000A7
:1009A0002B0000002B0000002B0001002A0000009B
:1009B0002A0000002A0000002A000100290000008F
:1009C0002900000029000000290000002900010082
:1009D0002800000028000000280000002800000077
:1009E0002800010027000000270000002700000069
:1009F000270000002700010026000000260000005C
:100A0000260000002600000026000100250000004E
:100A10002500000025000000250000002500000042
:100A20002500010024000000240000002400000034
:100A30002400000024000100230000002300000027
:100A4000230000002300000023000000230000001A
:100A5000230001002200000022000000220000000C
:100A600022000000220000002200010021000000FE
:100A700021000000210000002100000021000000F2
:100A800021000000210001002000000020000000E3
:100A900020000000200000002000000020000000D6
:100AA00020000000200001001F0000001F000000C7
:100AB0001F0000001F0000001F0000001F000000BA
:100AC0001F0001001E0000001E0000001E000000AC
:100AD0001E00000024F4D43050C38E20C2A2401760
:100AE000828B7011127A910D816CD90AA861E1088C
:100AF000C7586607615143061E4B5D05C145A704F3
:100B00001A411104093D9803713931034036DB0263
:100B100065339102D4305402802E1D02632CEE0105
:100B2000752AC501B028A001102781018F25640115
:100B30002B244B01E0223401AC211F018D200D013B
:100B4000801FFC00841EED00971DDF00B81CD20042
:100B5000E61BC600201BBC00641AB200B219A80034
:100B60000A19A0006A189900D117910040178B004C
:100B7000B516840031167E00B31579003A1573005E
:100B8000C7146F0058146A00EE13660088136300E0
:100B900025135E00C7125B006C125700151254003B
:100BA000C111510070114F0021114B00D6104900A6
:100BB0008D1047004610440002104200C00F400054
:100BC000800F3E00420F3C00060F3B00CB0E38006A
:100BD000930E37005C0E3500270E3400F30D320003
:100BE000C10D3100900D3000600D2E00320D2D0032
:100BF000050D2C00D90C2B00AE0C2900850C29000A
:100C00005C0C2700350C27000E0C2600E80B240096
:100C1000C40B2400A00B23007D0B23005A0B2100E2
:100C2000390B2100180B2000F80A1F00D90A1E00FA
:100C3000BB0A1E009D0A1D00800A1D00630A1C00DD
:100C4000470A1B002C0A1B00110A1A00F7091A0098
:100C5000DD091900C4091900AB0919009209170030
:100C60007B091800630917004C09160036091600A5
:100C7000200916000A091500F5081500E0081400FF
:100C8000CC081400B8081400A4081400900813003D
:100C90007D0812006B081300580812004608120065
:100CA0003408110023081100120811000108110076
:100CB000F0071000E0071000D0071000C007100078
:100CC000B0070F00A107100091070E0083070F0067
:100CD00074070F0065070E0057070E0049070E0046
:100CE0003B070D002E070E0020070D0013070D0017
:100CF00006070D00F9060C00ED060D00E0060C00DD
:100D0000D4060C00C8060C00BC060C00B0060C0093
:100D1000A4060B0099060C008D060B0082060B0042
:100D200077060B006C060B0061060A0057060B00E5
:100D30004C060A0042060A0038060A002E060A007F
:100D400024060A001A060A001006090007060A000F
:100D5000FD050900F4050900EB050900E20509009D
:100D6000D9050900D0050900C7050900BE0509001D
:100D7000B5050800AD050800A50509009C0508009B
:100D8000940508008C050800840508007C0508000F
:100D9000740508006C050700650508005D0507007F
:100DA000560508004E0507004705070040050800E6
:100DB00038050700310507002A050700230507004D
:100DC0001C050600160507000F05070008050600AC
:100DD00002050700FB040600F5040700EE04060008
:100DE000E8040600E2040700DB040600D504060060
:100DF000CF040600C9040600C3040600BD040600B3
:100E0000B7040600B1040500AC040600A604060001
:100E1000A00405009B04060095040500900406004C
:100E20008A04050085040500800406007A04050094
:100E300075040500700405006B04050066040500D8
:100E4000610405005C040500570405005204050018
:100E50004D04050048040500430405003E04040059
:100E60003A04050035040500300404002C04050094
:100E700027040400230405001E0404001A040400CF
:100E800016040500110404000D0404000904050003
:100E90000404040000040400FC030400F80304003C
:100EA000F4030400F0030400EC030400E80304006E
:100EB000E4030400E0030400DC030400D80304009E
:100EC000D4030400D0030400CC030400C8030300CF
:100ED000C50303006563686F3A00656E6473746FE1
:100EE0007073206869743A205A00205A3A00656E7F
:100EF0006473746F7073206869743A2059002059C4
:100F00003A00656E6473746F7073206869743A2078
:100F1000580020583A00656E6473746F70732068CF
:100F200069743A20004572726F723A004572723AE3
:100F3000204D415854454D50204245440054656D64
:100F4000706572617475726520686561746564208E
:100F5000626564207377697463686564206F666690
:100F60002E204D415854454D502074726967676575
:100F7000726564202121004572723A204D494E5419
:100F8000454D50003A20457874727564657220733F
:100F900077697463686564206F66662E204D494EDC
:100FA00054454D50207472696767657265642021ED
:100FB000004572723A204D415854454D50003A2038
:100FC00045787472756465722073776974636865B7
:100FD00064206F66662E204D415854454D50207454
:100FE0007269676765726564202100202D20496E53
:100FF00076616C6964206578747275646572206EC0
:10100000756D626572202100504944204175746FEE
:1010100074756E652066696E697368656420212049
:10102000506C61636520746865204B702C204B699F
:1010300020616E64204B6420636F6E7374616E7404
:101040007320696E2074686520636F6E66696775CA
:10105000726174696F6E2E68005049442041757446
:101060006F74756E65206661696C656421207469B2
:101070006D656F75740020403A006F6B20543A0024
:101080006F6B20423A00504944204175746F74756B
:101090006E65206661696C6564212054656D7065BC
:1010A00072617475726520746F20686967680020CA
:1010B0004B643A2000204B693A2000204B703A20C4
:1010C0000020436C61736963205049442000205420
:1010D000753A2000204B753A2000206D61783A2047
:1010E00000206D696E3A200020643A200020626979
:1010F00061733A20001000C90210012C0140012246
:101100000170011801B0010E01F00104015002FA52
:1011100000B002F0003003E600D003DC009004D2FF
:10112000007005C800A006BE000008B400B009AAFF
:1011300000D00BA000600E960060118C000015829C
:101140000020197800C01D6E00A0226400B0275A4C
:1011500000902C500000314600E0343C0010383242
:1011600000903A2800603C1E00A03D1400803E0A1A
:1011700000203F00004D383420582059205A204587
:10118000006563686F3A0043616E6E6F7420656E30
:10119000746572207375626469723A20004D32344E
:1011A000004D3233202573006175746F25692E67F9
:1011B000004572726F723A006572726F72207772B8
:1011C0006974696E6720746F2066696C65004E6F84
:1011D00074205344207072696E74696E67002F002A
:1011E0005344207072696E74696E67206279746509
:1011F00020002E0044656C6574696F6E206661691D
:101200006C65642C2046696C653A200046696C6503
:101210002064656C657465643A002E006F70656EBD
:10122000206661696C65642C2046696C653A200013
:1012300057726974696E6720746F2066696C653ACD
:1012400020002E006F70656E206661696C65642CED
:101250002046696C653A20002E006F70656E20662E
:1012600061696C65642C2046696C653A20004669AA
:101270006C652073656C6563746564002053697ADE
:10128000653A200046696C65206F70656E65643A4A
:1012900020002E006F70656E206661696C65642C9D
:1012A0002046696C653A20005344206361726420D3
:1012B0006F6B006F70656E526F6F74206661696C42
:1012C000656400766F6C756D652E696E6974206655
:1012D00061696C656400534420696E6974206661BD
:1012E000696C006563686F3A0053746F72656420BF
:1012F00073657474696E677320726574726569765C
:1013000065643A002044002049002020204D3330FD
:10131000312050005049442073657474696E6773BE
:101320003A00205A0020590020204D3230362058F3
:1013300000486F6D65206F666673657420286D6D5B
:10134000293A00204500205A002058002042002061
:10135000540020204D323035205300416476616EB8
:10136000636564207661726961626C65733A2053CB
:101370003D4D696E20666565647261746520286DF7
:101380006D2F73292C20543D4D696E207472617647
:10139000656C20666565647261746520286D6D2FCB
:1013A00073292C20423D6D696E696D756D207365E2
:1013B000676D656E742074696D6520286D73292CC6
:1013C00020583D6D6178696D756D207859206A658A
:1013D000726B20286D6D2F73292C20205A3D6D6172
:1013E00078696D756D205A206A65726B20286D6D65
:1013F0002F73290020540020204D32303420530018
:10140000416363656C65726174696F6E3A20533D28
:10141000616363656C65726174696F6E2C20543D05
:101420007265747261637420616363656C65726177
:1014300074696F6E00204500205A0020590020205A
:101440004D3230312058004D6178696D756D204105
:101450006363656C65726174696F6E20286D6D2FB2
:101460007332293A00204500205A002059002020DC
:101470004D3230332058004D6178696D756D2066AE
:10148000656564726174657320286D6D2F73293AE8
:1014900000204500205A0020590020204D393220DC
:1014A000580053746570732070657220756E69748E
:1014B0003A0053657474696E67732053746F726574
:1014C00064002D2D3A2D2D002D2D2D00534400208C
:1014D00059000120004D323100496E69742E2053AD
:1014E000442D43617264004E6F2043617264004D6D
:1014F0003231004368616E67652053442D43617249
:10150000640043617264204D656E750053746F70A2
:10151000205072696E7400526573756D652050724B
:10152000696E74005061757365205072696E740045
:10153000436F6E74726F6C005072657061726500FB
:1015400054756E6500576174636800052E2E0004A3
:1015500052656672657368004D61696E004D323484
:10156000004D3233202573004D3834205820592047
:101570005A204500526573746F7265204661696C2C
:1015800073616665004C6F6164206D656D6F727983
:101590000053746F7265206D656D6F7279004D6FC9
:1015A00074696F6E0054656D7065726174757265F3
:1015B000004D61696E004573746570732F6D6D0029
:1015C0004573746570732F6D6D005A737465707315
:1015D0002F6D6D005A73746570732F6D6D005973A4
:1015E000746570732F6D6D005973746570732F6D12
:1015F0006D005873746570732F6D6D00587374654A
:1016000070732F6D6D00412D72657472616374008B
:10161000412D7265747261637400416D617820655B
:1016200000416D6178206500416D6178207A00414C
:101630006D6178207A00416D6178207900416D619B
:1016400078207900416D6178207800416D617820C3
:1016500078005654726176206D696E00565472613E
:1016600076206D696E00566D696E00566D696E006C
:10167000566D6178206500566D6178206500566D65
:101680006178207A00566D6178207A00566D617815
:10169000207900566D6178207900566D6178207848
:1016A00000566D61782078005678792D6A65726BE6
:1016B000005678792D6A65726B00416363656C0032
:1016C000416363656C00436F6E74726F6C0050729F
:1016D00065686561742041425320436F6E66005017
:1016E00072656865617420504C4120436F6E6600DE
:1016F0005049442D43005049442D43005049442D46
:1017000044005049442D44005049442D490050495B
:10171000442D49005049442D50005049442D50005B
:101720002002204661637400200220466163740039
:101730002002204D6178002002204D6178002002B7
:10174000204D696E002002204D696E004F666600D4
:101750004F6E20004F6666004F6E20004175746F1B
:1017600074656D700046616E207370656564004637
:10177000616E207370656564004E6F7A7A6C6500E7
:101780004E6F7A7A6C6500436F6E74726F6C0053A3
:10179000746F7265206D656D6F7279004E6F7A7A25
:1017A0006C65004E6F7A7A6C650046616E207370CE
:1017B0006565640046616E207370656564005465FC
:1017C0006D70657261747572650053746F72652017
:1017D0006D656D6F7279004E6F7A7A6C65004E6F31
:1017E0007A7A6C650046616E2073706565640046A8
:1017F000616E2073706565640054656D706572611B
:1018000074757265004D6F76652041786973004D7F
:101810003130342053300A4D3134302053300043BE
:101820006F6F6C646F776E005072656865617420CD
:10183000414253005072656865617420504C41000C
:10184000473238004175746F20486F6D65004D3820
:10185000340044697361626C65205374657070650F
:101860007273004D61696E004D6F766520302E31C8
:101870006D6D004D6F766520316D6D004D6F766535
:101880002031306D6D005072657061726500457871
:10189000747275646572004D6F7665205A004D6FE5
:1018A00076652059004D6F76652058004D6F76653E
:1018B0002041786973004578747275646572005AC6
:1018C0000059005800466C6F7700466C6F770046F1
:1018D000616E2073706565640046616E207370658B
:1018E0006564004E6F7A7A6C65004E6F7A7A6C652B
:1018F000005370656564005370656564004D6169EF
:101900006E00494E46494E4954594E414ECDCCCCBD
:101910003D0AD7233C17B7D13877CC2B329595E6C3
:10192000241FB14F0A000020410000C84200401CA3
:101930004620BCBE4CCA1B0E5AAEC59D7400AA16EA
:101940004D357DB8A31611241FBECFEFD0E4DEBF06
:10195000CDBF13E0A0E0B1E0E0EAF4E801E00BBFA6
:1019600002C007900D92A036B107D9F71BBE1FE049
:10197000A0E6B3E001C01D92A035B107E1F719E17F
:10198000C4E4D9E104C02297FE010E94F5C1CE3320
:10199000D107C9F70E94D5BC0C9443C20C94000037
:1019A000A0E0B0E0E6EDFCE00C9412C2EC015B01BB
:1019B0006115710519F0FB0191838083F9908F2DDA
:1019C00090E00E94F9C1892BC9F7FDE2FF1621F4CE
:1019D000F990EE24E39405C02BE2F21609F4F99095
:1019E000EE248E0101501040C80162E079E143E02D
:1019F00050E00E946F0F892B01F58E010E5F1F4F83
:101A0000C80165E079E145E050E00E946F0F892B45
:101A100019F48E01095F1F4FA114B10419F0F501EB
:101A200011830083E0FC04C070E090E080E814C003
:101A300070E090E080E86FEF08C1C8016AE079E1EA
:101A400043E050E00E946F0F892B69F4A114B104A8
:101A500029F470E090E080EC6FE7F7C02296F50182
:101A6000D183C083F6CF8824992440E050E060E021
:101A700070E0EF2DE053EA30A0F5F2E0EF2A8E2D72
:101A800090E09C0128703070E2FE06C0232B79F5AF
:101A90000894811C911C2BC0232B19F008948108F9
:101AA0009108DB01CA0112E0880F991FAA1FBB1F12
:101AB0001A95D1F7480F591F6A1F7B1F440F551FF6
:101AC000661F771F4E0F511D611D711D483929E991
:101AD000520729E9620729E1720748F084E0E82A01
:101AE00006C0EE3F31F4E3FC39C098E0E92AF990F2
:101AF000C0CFE53311F0E53189F529912D3219F484
:101B0000E0E1EE2A05C02B3219F081E090E003C03D
:101B1000299182E090E0E22FE053EA3018F0C81BF0
:101B2000D90B1CC020E030E0FCE020383F075CF41B
:101B3000C901880F991F880F991F280F391F220F7D
:101B4000331F2E0F311DE991E053EA3068F3E4FEB4
:101B500003C0309521953F4F820E931ECE2CDD247D
:101B6000E1FE07C0A114B10421F02197F501D18352
:101B7000C083CB01BA010E945EBE7B018C01F3E001
:101B8000CF22DD2423E0C216D10421F417FB1095E7
:101B900017F9109557016801C801B70120E030E03E
:101BA00040E050E00E94BEBD882309F44AC097FE81
:101BB0000DC021E2E22E29E1F22E90948194910849
:101BC0009394C0E2D0E000E010E012C099E3E92E67
:101BD00099E1F92EF6CFF701259135914591549170
:101BE000C601B5010E949EC05B016C018C1A9D0A62
:101BF0008C169D0684F7D595C7950F5F1F4F06304D
:101C0000110529F08CEF9FEFE80EF91EF1CFC50109
:101C1000D6017C018D018C2D880F8D2D881F8F3F63
:101C200051F0C601B50120E030E040E050E00E94F4
:101C3000BEBD882331F482E290E090934F0F8093F1
:101C40004E0F7E2D9F2D802F612F272F392F482F4C
:101C5000562FB901CA01CDB7DEB7ECE00C942EC205
:101C60002F923F925F926F927F928F929F92AF924C
:101C7000BF92CF92DF92EF92FF920F931F93CF9379
:101C8000DF938C011B01EA016115710519F0FB015D
:101C900091838083209749F0CE010297839728F0A3
:101CA00020E030E040E050E0F6C0F801A1908F0164
:101CB0008A2D90E00E94F9C1892BB9F7FDE2AF1699
:101CC00031F4F801A1908F015524539407C0FBE231
:101CD000AF1619F4F801A1908F015524209719F03F
:101CE000C031D105C1F4F0E3AF1679F4F801808179
:101CF000883711F0883549F4F801A1800E5F1F4F35
:101D0000F2E05F2AC0E1D0E006C0209721F480E332
:101D1000A816E9F427C0C830D10531F1C930D10582
:101D200024F4C230D10531F50CC0CA30D10589F098
:101D3000C031D105F9F4C12CD12CE12CB8E0FB2E37
:101D400028C0C12CD12CE12CA0E4FA2E22C0CAE07C
:101D5000D0E0FCECCF2EFCECDF2EFCECEF2EFCE018
:101D6000FF2E17C0C8E0D0E0C12CD12CE12CE0E15F
:101D7000FE2E0FC09E01442737FD4095542F60E092
:101D800070E080E090E80E94B6C1C901DA016C0100
:101D90007D0120E030E040E050E060E03E0188243A
:101DA00077FC8094982C70EDB72EBA0CE9E0EB1517
:101DB00070F48A2D81548A3118F499ECB92E06C03A
:101DC0008A2D81568A3150F589EAB82EBA0C8B2DAE
:101DD00090E08C179D0714F56F3FE1F0C216D30613
:101DE000E406F506B0F0CA01B901A40193010E940E
:101DF00070C19B01AC012B0D311D411D511D2130C6
:101E0000F0E03F07F0E04F07F0E85F0710F461E013
:101E100001C06FEFF801A1908F01C5CF21143104EB
:101E200081F0662331F001501040F10111830083ED
:101E300008C051FE1AC002501040F1011183008306
:101E400014C067FF12C050FC05C02FEF3FEF4FEFEB
:101E50005FE704C020E030E040E050E882E290E03C
:101E600090934F0F80934E0F16C050FE08C05095B0
:101E70004095309521953F4F4F4F5F4F0CC057FF16
:101E80000AC082E290E090934F0F80934E0F2FEFA5
:101E90003FEF4FEF5FE7B901CA01DF91CF911F918B
:101EA0000F91FF90EF90DF90CF90BF90AF909F90F9
:101EB0008F907F906F905F903F902F900895FB01DF
:101EC000DC0105900D920020E1F70895FC010590DA
:101ED0000020E9F7809590958E0F9F1F0895FB01D4
:101EE000DC014150504088F08D9181341CF08B35DD
:101EF0000CF4805E659161341CF06B350CF4605E0F
:101F0000861B611171F3990B0895881BFCCFFB01AF
:101F1000DC014150504048F005900D920020C9F777
:101F200001C01D9241505040E0F70895FB015591CA
:101F30005523A9F0BF01DC014D9145174111E1F78F
:101F400059F4CD010590002049F04D914015411103
:101F5000C9F3FB014111EFCF81E090E001970895B3
:101F6000FB01DC0104C08D910190801921F44150E6
:101F70005040C8F7881B990B0895FB01DC0102C093
:101F800001900D9241505040D8F70895FB01DC01BB
:101F90000D900020E9F7119701900D920020E1F7D4
:101FA0000895FC018191861721F08823D9F799279C
:101FB00008953197CF010895FB01DC0101900D9246
:101FC0000020E1F70895FB01DC014150504030F062
:101FD0008D910190801919F40020B9F7881B990B95
:101FE0000895FB01DC014150504048F001900D92F2
:101FF0000020C9F701C01D9241505040E0F70895FC
:10200000AEE0B0E0E6E0F0E10C941AC20D891E8962
:102010008EE08C831A8309838FEF9FE79E838D83E5
:102020009E01275E3F4FCE0101966F89788DA901F1
:102030000E9424102F813885020F131FF80110828F
:102040002E96E4E00C9436C2ABE0B0E0EAE2F0E1B8
:102050000C940CC23C012B015A01FC011782168220
:10206000838181FD03C06FEF7FEFC6C19AE0892EA7
:102070001E010894211C311CF3012381F20123FD70
:10208000859123FF81912F01882309F4B2C1853204
:1020900039F423FD859123FF81912F01853229F4A5
:1020A00090E0B3010E941712E7CF982FFF24EE248F
:1020B0009924FFE1FF15D0F09B3269F09C3228F49F
:1020C000903259F0933291F40EC09D3249F0903322
:1020D00069F441E024C052E0F52A84E0F82A28C0DF
:1020E00098E0F92A25C0E0E1FE2A22C0F7FC29C0C9
:1020F000892F80538A3070F4F6FE05C0989C902C8E
:102100001124980E15C0E89CE02C1124E80EF0E292
:10211000FF2A0EC09E3229F4F6FC6BC140E4F42A7B
:1021200007C09C3619F450E8F52A02C0983649F4E5
:10213000F20123FD959123FF91912F01992309F03D
:10214000B8CF892F8554833018F08052833038F40B
:1021500044E050E0A40EB51E5FE359830FC09336F0
:1021600031F0933779F0933509F056C020C0F5016E
:102170008081898342E050E0A40EB51E610101E038
:1021800010E012C0F501C080D180F6FC03C06FEFF3
:102190007FEF02C0692D70E042E050E0A40EB51E52
:1021A000C6010E940C128C015FE7F52214C0F501F4
:1021B000C080D180F6FC03C06FEF7FEF02C0692DB5
:1021C00070E042E050E0A40EB51EC6010E9401126C
:1021D0008C0150E8F52AF3FE07C01AC080E290E0B7
:1021E000B3010E941712EA948E2D90E00817190788
:1021F000A8F30EC0F601F7FC8591F7FE81916F01FF
:1022000090E0B3010E941712E110EA9401501040CF
:102210000115110579F7EAC0943611F0993669F580
:10222000F7FE08C0F501208131814281538184E0AD
:1022300090E00AC0F501808191819C01442737FD1F
:102240004095542F82E090E0A80EB91E9FE6F92237
:1022500057FF09C050954095309521953F4F4F4FFE
:102260005F4FE0E8FE2ACA01B901A1012AE030E08F
:102270000E944312D82ED21840C0953729F41F2D42
:102280001F7E2AE030E01DC01F2D197F9F3661F0B0
:10229000903720F4983509F0ACC00FC0903739F072
:1022A000983709F0A6C004C028E030E00AC01061E9
:1022B00014FD146020E130E004C014FD166020E13C
:1022C00032E017FF08C0F50160817181828193813E
:1022D00044E050E008C0F50180819181BC0180E0BC
:1022E00090E042E050E0A40EB51EA1010E9443120E
:1022F000D82ED2188FE7F82EF122F6FE0BC05EEF33
:10230000F522D91438F4F4FE07C0F2FC05C08FEEB4
:10231000F82202C01D2D01C0192DF4FE0DC0FE01D2
:10232000ED0DF11D8081803319F499EEF92208C07A
:102330001F5FF2FE05C003C08F2D867809F01F5F76
:102340000F2DF3FC14C0F0FE0FC01E1510F09D2CD5
:102350000BC09D2C9E0C911A1E2D06C080E290E0B1
:10236000B3010E9417121F5F1E15C0F304C01E1593
:1023700010F4E11A01C0EE2404FF0FC080E390E0E6
:10238000B3010E94171202FF1DC001FD03C088E7C0
:1023900090E00EC088E590E00BC0802F867891F029
:1023A00001FF02C08BE201C080E2F7FC8DE290E009
:1023B000B3010E94171206C080E390E0B3010E94AF
:1023C00017129A94D914C0F3DA94F101ED0DF11DAE
:1023D000808190E0B3010E941712DD20A9F706C0AA
:1023E00080E290E0B3010E941712EA94EE20C1F758
:1023F00043CEF30166817781CB012B96E2E10C9409
:1024000028C2FC010590615070400110D8F78095FA
:1024100090958E0F9F1F0895FC01615070400190B0
:102420000110D8F7809590958E0F9F1F08950F93F8
:102430001F93CF93DF938C01EB018B8181FF1BC036
:1024400082FF0DC02E813F818C819D812817390725
:1024500064F4E881F9810193F983E88306C0E88593
:10246000F985802F0995892B31F48E819F81019602
:102470009F838E8302C00FEF1FEFC801DF91CF91C2
:102480001F910F910895FA01AA27283051F12031A8
:1024900081F1E8946F936E7F6E5F7F4F8F4F9F4FF8
:1024A000AF4FB1E03ED0B4E03CD0670F781F891F3A
:1024B0009A1FA11D680F791F8A1F911DA11D6A0F08
:1024C000711D811D911DA11D20D009F468943F91BB
:1024D0002AE0269F11243019305D3193DEF6CF01BA
:1024E0000895462F4770405D4193B3E00FD0C9F780
:1024F000F6CF462F4F70405D4A3318F0495D31FDED
:102500004052419302D0A9F7EACFB4E0A69597953F
:10251000879577956795BA95C9F700976105710515
:1025200008959B01AC010A2E06945795479537955F
:102530002795BA95C9F7620F731F841F951FA01DB9
:1025400008951F920F920FB60F9211242F933F936D
:102550008F939F93AF93BF93809164039091650392
:10256000A0916603B0916703309168030196A11DA5
:10257000B11D232F2D5F2D3720F02D570196A11D62
:10258000B11D209368038093640390936503A09327
:102590006603B09367038091600390916103A091FB
:1025A0006203B09163030196A11DB11D8093600386
:1025B00090936103A0936203B0936303BF91AF91C3
:1025C0009F918F913F912F910F900FBE0F901F9071
:1025D00018958FB7F894209164033091650340916A
:1025E0006603509167038FBFB901CA0108959B012B
:1025F000AC017FB7F8948091600390916103A09142
:102600006203B091630366B5A89B05C06F3F19F0E4
:102610000196A11DB11D7FBFBA2FA92F982F882722
:10262000860F911DA11DB11D62E0880F991FAA1F81
:10263000BB1F6A95D1F7BC012DC0FFB7F8948091FC
:10264000600390916103A0916203B0916303E6B5CA
:10265000A89B05C0EF3F19F00196A11DB11DFFBF5A
:10266000BA2FA92F982F88278E0F911DA11DB11D5C
:10267000E2E0880F991FAA1FBB1FEA95D1F7861BBE
:10268000970B885E9340C8F2215030404040504044
:1026900068517C4F211531054105510571F60895AA
:1026A000019739F0880F991F880F991F029701979A
:1026B000F1F70895789484B5826084BD84B5816013
:1026C00084BD85B5826085BD85B5816085BDEEE63A
:1026D000F0E0808181608083E1E8F0E01082808119
:1026E00082608083808181608083E0E8F0E0808187
:1026F00081608083E1EBF0E0808184608083E0EBA7
:10270000F0E0808181608083E1E9F0E08081826097
:102710008083808181608083E0E9F0E08081816056
:102720008083EAE7F0E0808184608083808182603A
:102730008083808181608083808180688083109223
:10274000C10008951F93CF93DF93182FEB0161E031
:102750000E942014209709F468C0CF3FD10509F4E6
:1027600067C0E12FF0E0EB5CFE4F8491843061F1B3
:10277000853040F48230C9F08330E0F4813009F0D4
:1027800051C00EC0873091F1883020F4863009F0B6
:1027900049C024C0883091F1893009F043C038C065
:1027A00084B5806884BDC7BD47C084B5806284BDE0
:1027B000C8BD42C080918000806880938000D09323
:1027C0008900C093880038C0809180008062809327
:1027D0008000D0938B00C0938A002EC08091B000FF
:1027E00080688093B000C093B30026C08091B00091
:1027F00080628093B000C093B4001EC080919000AE
:10280000806880939000D0939900C093980014C082
:1028100080919000806280939000D0939B00C09341
:102820009A000AC0C038D1051CF4812F60E002C0B4
:10283000812F61E00E949D14DF91CF911F91089537
:10284000CF93DF93482F50E0CA018B5E9E4FFC016F
:1028500034914B505F4FFA018491882369F190E0E5
:10286000880F991FFC01E952FF4FA591B491FC011B
:10287000EF51FF4FC591D491662351F42FB7F894CF
:102880008C91932F909589238C93888189230BC0F9
:10289000623061F42FB7F8948C91932F909589232F
:1028A0008C938881832B88832FBF06C09FB7F894B1
:1028B0008C91832B8C939FBFDF91CF9108958430AF
:1028C000C9F0853038F48230F1F0833078F481300B
:1028D00099F516C08730F9F0883018F4863061F524
:1028E00016C08830F1F0893039F521C08091800020
:1028F0008F7703C0809180008F7D80938000089542
:1029000084B58F7702C084B58F7D84BD0895809192
:10291000B0008F7703C08091B0008F7D8093B000AE
:102920000895809190008F77809390000895809112
:1029300090008F7D809390000895FF920F931F93D6
:10294000F62E482F50E0CA018B5C9E4FFC0124916B
:10295000CA018B5E9E4FFC0114914B505F4FFA01F0
:1029600004910023C9F0222319F0822F0E945F14E2
:10297000E02FF0E0EE0FFF1FEF51FF4FA591B49154
:102980009FB7F894FF2021F48C911095812302C009
:102990008C91812B8C939FBF1F910F91FF90089575
:1029A0001F920F920FB60F920BB60F9211242F9316
:1029B0003F934F935F936F937F938F939F93AF93C7
:1029C000BF93EF93FF938091690390916A03892BE2
:1029D00029F0E0916903F0916A030995FF91EF9165
:1029E000BF91AF919F918F917F916F915F914F9127
:1029F0003F912F910F900BBE0F900FBE0F901F9025
:102A000018951F920F920FB60F920BB60F921124CA
:102A10002F933F934F935F936F937F938F939F93E6
:102A2000AF93BF93EF93FF9380916B0390916C03EF
:102A3000892B29F0E0916B03F0916C030995FF91CC
:102A4000EF91BF91AF919F918F917F916F915F9126
:102A50004F913F912F910F900BBE0F900FBE0F9093
:102A60001F9018951F920F920FB60F920BB60F92F0
:102A700011242F933F934F935F936F937F938F9383
:102A80009F93AF93BF93EF93FF9380916D039091CA
:102A90006E03892B29F0E0916D03F0916E03099587
:102AA000FF91EF91BF91AF919F918F917F916F9126
:102AB0005F914F913F912F910F900BBE0F900FBEE2
:102AC0000F901F901895CF92DF92EF92FF920F9385
:102AD0001F93CF93DF937C016B018A01C0E0D0E0AC
:102AE0000FC0D6016D916D01D701ED91FC91019060
:102AF000F081E02DC7010995C80FD91F0150104082
:102B00000115110571F7CE01DF91CF911F910F9142
:102B1000FF90EF90DF90CF900895DC01ED91FC9154
:102B20000190F081E02D09950895CF93DF93EC019A
:102B30006115710519F420E030E00FC0DB010D9044
:102B40000020E9F71197A61BB70BE881F9810280F5
:102B5000F381E02DAD0109959C01C901DF91CF9171
:102B600008950E9495150895EF92FF920F931F9379
:102B7000CF93DF93EC01E0909104F09092040091E8
:102B8000930410919404688179818A819B81A801C2
:102B900097010E94BEBD882324F4E882F9820A834B
:102BA0001B83E0909504F090960400919704109197
:102BB00098046C817D818E819F81A80197010E947C
:102BC000BEBD882324F4EC82FD820E831F83E09037
:102BD0009904F0909A0400919B0410919C046885DC
:102BE00079858A859B85A80197010E94BEBD8823AF
:102BF00024F4E886F9860A871B87E0904602F09065
:102C000047020091480210914902688179818A81C6
:102C10009B81A80197010E94CCBF181624F4E8827A
:102C2000F9820A831B83E0904A02F0904B020091E4
:102C30004C0210914D026C817D818E819F81A80193
:102C400097010E94CCBF181624F4EC82FD820E83FB
:102C50001F83E0904E02F0904F02009150021091BD
:102C60005102688579858A859B85A80197010E9414
:102C7000CCBF181624F4E886F9860A871B87DF91F3
:102C8000CF911F910F91FF90EF9008958091A8042C
:102C900008958130910549F46F5F7F4F09F052C06C
:102CA0008FE693E00E943E710895892B09F04AC097
:102CB0006F5F7F4F09F046C089ED92E090933F042B
:102CC00080933E0480914504882321F082E494E0BF
:102CD0000E94323B89ED92E09093FD038093FC03C8
:102CE00080910304882321F080E094E00E94323B2D
:102CF00089ED92E09093DE038093DD038091E403FD
:102D0000882321F081EE93E00E94323B89ED92E02E
:102D10009093BF038093BE038091C503882321F065
:102D200082EC93E00E94323B89ED92E090939E0307
:102D300080939D038091A403882321F081EA93E08E
:102D40000E94323B089580E090E06FEF7FEF0E9499
:102D50004916089581E090E06FEF7FEF0E944916D9
:102D600008950E943B668091A804882309F03AC028
:102D700081E08093A8048091AA049091AB04A09173
:102D8000AC04B091AD048093AE049093AF04A093D3
:102D9000B004B093B104EBE5F1E0949108C08091E8
:102DA000C00085FFFCCF9093C60031969491992383
:102DB000B1F7ECE6F1E0949108C08091C00085FF86
:102DC000FCCF9093C600319694919923B1F78091EE
:102DD000C00085FFFCCF8AE08093C60082E691E0C8
:102DE0000E9490B80895F8940E943B665E9A5E9A9D
:102DF000159A5E9AEBE5F1E0949108C08091C000CD
:102E000085FFFCCF9093C600319694919923B1F73A
:102E1000EBEEF1E0949108C08091C00085FFFCCFFB
:102E20009093C600319694919923B1F78091C00098
:102E300085FFFCCF8AE08093C60082EE91E00E947D
:102E40009FB8FFCF0E94E9126093B2047093B3045D
:102E50008093B4049093B504E091DB04F091DC041A
:102E6000E352FB4F80818823A9F4EAE0F2E09491D9
:102E700008C08091C00085FFFCCF9093C6003196BA
:102E800094919923B1F78091C00085FFFCCF8AE02F
:102E90008093C6000895EF92FF920F931F930E94B4
:102EA000E912E090B604F090B7040091B8041091D4
:102EB000B9042091B2043091B3044091B40450910C
:102EC000B504621B730B840B950BE616F706080717
:102ED000190738F4E114F1040105110511F00E94FD
:102EE000F3168091520290915302A0915402B09136
:102EF00055020097A105B10529F10E94E912209120
:102F0000B2043091B3044091B4045091B504621BF3
:102F1000730B840B950B2091520230915302409118
:102F2000540250915502261737074807590750F4A5
:102F30009091460E8091470E981721F45E9A5E9A02
:102F4000159A5E9A0E94B14C1F910F91FF90EF90DD
:102F500008956F927F928F929F92AF92BF92CF927D
:102F6000DF92EF92FF920F931F93F82E6091BA04B5
:102F70007091BB048091BC049091BD042091BE046B
:102F80003091BF044091C0045091C1040E94D9BF48
:102F90003B014C0100D000D000D00DB71EB70F5F31
:102FA0001F4F6091420270914302882777FD809500
:102FB000982F0E9460BE2091560230915702409196
:102FC0005802509159020E949EC020E030E040E734
:102FD00052E40E94C5BD20E030E048EC52E40E947B
:102FE000C5BD5B016C01F8016082718282829382AF
:102FF000F48280919D04858385E794E066EC74E01B
:103000004AEB54E020E001E032E0E32E0E94144855
:103010008091C6049091C704A091C804B091C904DE
:103020008093750490937604A0937704B09378040A
:103030008091CA049091CB04A091CC04B091CD04AE
:103040008093790490937A04A0937B04B0937C04DA
:103050008091CE049091CF04A091D004B091D1047E
:1030600080937D0490937E04A0937F04B0938004AA
:103070008091D2049091D304A091D404B091D5044E
:103080008093810490938204A0938304B09384047A
:103090008DB79EB706960FB6F8949EBF0FBE8DBF34
:1030A0000E94E9126093B2047093B3048093B40455
:1030B0009093B5041F910F91FF90EF90DF90CF9008
:1030C000BF90AF909F908F907F906F900895CF9218
:1030D000DF92EF92FF920F931F9386EC94E00E9491
:1030E000B4150E94E9126093B2047093B304809304
:1030F000B4049093B5046091750470917604809146
:103100007704909178042091C6043091C7044091CF
:10311000C8045091C9040E94BEBD882309F07AC03A
:103120006091790470917A0480917B0490917C0481
:103130002091CA043091CB044091CC045091CD042D
:103140000E94BEBD882309F065C06091560270914F
:103150005702809158029091590220E030E040E7F8
:1031600052E40E94C5BD7B018C0186EC94E06AECC0
:1031700074E04EEC54E022ED34E0EDE9CE2EE4E0D4
:10318000DE2E0E94F5518091C6049091C704A09153
:10319000C804B091C9048093750490937604A093F9
:1031A0007704B09378048091CA049091CB04A091E5
:1031B000CC04B091CD048093790490937A04A093C9
:1031C0007B04B0937C048091CE049091CF04A091B5
:1031D000D004B091D10480937D0490937E04A09399
:1031E0007F04B09380048091D2049091D304A09185
:1031F000D404B091D5048093810490938204A09369
:103200008304B09384041F910F91FF90EF90DF909F
:10321000CF9008956091420270914302882777FD14
:103220008095982F0E9460BE2091560230915702DF
:1032300040915802509159020E949EC020E030E017
:1032400040E752E40E94C5BD20E030E048EC52E483
:1032500088CF87EF96E00E944435EDE0F2E094914C
:1032600008C08091C00085FFFCCF9093C6003196C6
:1032700094919923B1F74091AA045091AB046091C5
:10328000AC047091AD044F5F5F4F6F4F7F4F87EF7E
:1032900096E02AE030E00E9405368091C00085FF6C
:1032A000FCCF8AE08093C6000E94221708952F92D7
:1032B0003F924F925F926F927F928F929F92AF92C6
:1032C000BF92CF92DF92EF92FF920F931F93DF9303
:1032D000CF9300D000D000D0CDB7DEB78C018330C3
:1032E000910508F051C13C01660C771C660C771CF7
:1032F00093012B583B4F3A83298380E090E0A0E074
:10330000B0E0F90180839183A283B38385E794E0E1
:1033100069E774E04DE754E021E834E00E94054D90
:10332000F301E352FC4F65917591859194910B5097
:103330001C4FF801E49093012A533B4F3E832D83A9
:1033400020E030E040EC5FE30E949EC05B016C0136
:10335000FF24E7FCF0940F2D1F2DC801B7010E9438
:1033600060BE1B012C01C601B501A20191010E94A2
:103370009EC0AD81BE816D937D938D939C93139779
:10338000F301EE5CFD4FFC83EB83608171818281F0
:1033900093816093560270935702809358029093E2
:1033A000590220E030E040E752E40E94C5BD7B01B5
:1033B0008C0186EC94E06AEC74E04EEC54E022ED73
:1033C00034E0ADE9CA2EA4E0DA2E0E94F5510E9445
:1033D0001E5F80E090E0A0E0B0E0E981FA818083A8
:1033E0009183A283B38385E794E069E774E04DE7B6
:1033F00054E021E834E00E94054DF301E751FC4F11
:1034000085909590A590B490C501B4019058A20103
:1034100091010E949EC0AD81BE816D937D938D937D
:103420009C931397609156027091570280915802B5
:103430009091590220E030E040E752E40E94C5BD7F
:103440007B018C0186EC94E06AEC74E04EEC54E075
:1034500022ED34E00E94F5510E941E5FC501B401C7
:10346000A50194010E94E5BCA20191010E949EC0A9
:10347000ED81FE816083718382839383AB81BC8104
:103480006D917D918D919C9120E030E040E05FE373
:103490000E949EC060935602709357028093580218
:1034A0009093590220E030E040E752E40E94C5BD0D
:1034B0007B018C0186EC94E06AEC74E04EEC54E005
:1034C00022ED34E00E94F5510E941E5FF301E754A3
:1034D000FC4F6591759185919491F301EB57FB4FEA
:1034E000A080B180C280D380A60195010E94E5BC76
:1034F0007B018C01CB01D801E981FA818083918322
:10350000A283B383F301EB53FC4F659175918591D1
:103510009491F1E98F2EF4E09F2E860C971CA60162
:1035200095010E94E5BCD4016D937D938D939C938E
:103530001397F301EF52FC4F65917591859194912A
:10354000E6E4F2E06E0E7F1EA60195010E94E5BC46
:10355000D3016D937D938D939C931397C701D801ED
:10356000ED81FE8180839183A283B38380E090E02C
:10357000A0E0B0E08093560290935702A0935802C7
:10358000B09359020E94425E26960FB6F894DEBFB1
:103590000FBECDBFCF91DF911F910F91FF90EF90A4
:1035A000DF90CF90BF90AF909F908F907F906F9063
:1035B0005F904F903F902F900895682F2091DB04EB
:1035C0003091DC0480E690E0AC01249FC001259F8F
:1035D000900D349F900D112489519B4F70E00E94F3
:1035E000D10F9C019093E6048093E50480E0232BA7
:1035F00009F081E00895FC01949108C08091C00019
:1036000085FFFCCF9093C600319694919923B1F732
:1036100087EF96E022E030E00E9415370895FC0124
:10362000949108C08091C00085FFFCCF9093C600A4
:10363000319694919923B1F787EF96E022E030E03C
:103640000E9415370895FC01949108C08091C00034
:1036500085FFFCCF9093C600319694919923B1F7E2
:1036600087EF96E02AE030E00E94E63508958091E9
:10367000E5049091E604019660E070E04AE050E0D5
:103680000E94300E08958091E5049091E604019621
:1036900060E070E00E94D00C0895CF93DF93EC01BE
:1036A00080919D048093A90484E50E94DD1A8823FB
:1036B00009F45BC00E94431B0E9432BE262F609318
:1036C000A904662309F451C0E5E5F1E0949108C02E
:1036D0008091C00085FFFCCF9093C60031969491F5
:1036E0009923B1F7C936D10551F0CD36D10521F076
:1036F000C836D10551F506C0E0E0F1E023C0E7E1AE
:10370000F1E015C0EEE2F1E007C08091C00085FF56
:10371000FCCF31969093C60090819923B1F715C0E4
:103720008091C00085FFFCCF31969093C6009081B8
:103730009923B1F70AC08091C00085FFFCCF319674
:103740009093C60090819923B1F787EF96E0622F9E
:1037500040E050E00E94F3358091C00085FFFCCF2F
:103760008AE08093C60081E001C080E0DF91CF91C4
:103770000895AF92BF92CF92DF92EF92FF920F9394
:103780001F93CF93DF9315E7E12E14E0F12EC6ECE3
:10379000D4E000E010E0F801E756FD4F80810E9480
:1037A000DD1A882339F10E94431B5B016C01F8018B
:1037B000E159FB4F8081882311F061E002C06091E4
:1037C000D60470E0882777FD8095982F0E9460BE10
:1037D000F70120813181428153810E949EC09B016B
:1037E000AC01C601B5010E94E5BC688379838A8378
:1037F0009B8309C0F70180819181A281B381888375
:103800009983AA83BB830F5F1F4F84E090E0E80E8B
:10381000F91E24960430110509F0BDCF86E40E94FC
:10382000DD1A8823E1F00E94431B7B018C01609329
:10383000D7047093D8048093D9049093DA0420E0DD
:1038400030E040E050E00E94CCBF181644F4E09213
:103850005602F09257020093580210935902DF91DA
:10386000CF911F910F91FF90EF90DF90CF90BF907D
:10387000AF9008950E94B91B89E40E94DD1A882345
:1038800059F00E94431B6093BA047093BB04809369
:10389000BC049093BD040CC080E090E0A0E0B0E0D8
:1038A0008093BA049093BB04A093BC04B093BD046E
:1038B0008AE40E94DD1A882359F00E94431B60931A
:1038C000BE047093BF048093C0049093C104089514
:1038D00080E090E0A0E0B0E08093BE049093BF044D
:1038E000A093C004B093C10408952F923F924F92C9
:1038F0005F926F927F928F929F92AF92BF92CF9280
:10390000DF92EF92FF920F931F93DF93CF93CDB788
:10391000DEB76E970FB6F894DEBF0FBECDBF87E45B
:103920000E94DD1A882309F492C30E94431B0E945F
:103930002DBE6430710509F441C06530710554F441
:103940006230710541F1633071056CF57723CCF479
:103950000C94242D6A35710509F424C36B35710567
:1039600034F46C31710511F00C94242D6FC06B355B
:10397000710509F41BC36C35710511F00C94242DED
:103980001AC38091A804882331F40E94B91B0E94B5
:1039900067180C94492D8091A804882321F40E9473
:1039A0003A1C81E007C08091A804882339F40E9462
:1039B0003A1C80E00E94A9170C94492D80EB93E0FB
:1039C0000E9490B880E50E94DD1A882321F4EE243D
:1039D000FF24870106C00E94431B0E9432BE7B0168
:1039E0008C0183E50E94DD1A882361F00E94431B4D
:1039F00020E030E04AE754E40E949EC00E9432BEBC
:103A00007B018C010E941E5F0E94E9125B016C0128
:103A1000AE0CBF1CC01ED11E0E94E9126093B204FE
:103A20007093B3048093B4049093B50406C00E94CD
:103A30009C690E944B170E94C2B80E94E9126A1545
:103A40007B058C059D0598F30C94242D80915602DE
:103A500090915702A0915802B09159028093E104CD
:103A60009093E204A093E304B093E40480914202B3
:103A700090914302909374048093730484E690E0E1
:103A800090934302809342020E94E9126093B20431
:103A90007093B3048093B4049093B50481E00E94C2
:103AA000495E8091750490917604A0917704B0915D
:103AB00078048093C6049093C704A093C804B0937D
:103AC000C9048091790490917A04A0917B04B0910B
:103AD0007C048093CA049093CB04A093CC04B0934D
:103AE000CD0480917D0490917E04A0917F04B091DB
:103AF00080048093CE049093CF04A093D004B0931D
:103B0000D1048091810490918204A0918304B091AA
:103B100084048093D2049093D304A093D404B093EC
:103B2000D50480E090E0A0E0B0E08093560290934E
:103B30005702A0935802B093590288E50E94DD1AFB
:103B4000882361F489E50E94DD1A882339F48AE527
:103B50000E94DD1A882311F481E001C080E0809387
:103B60005A02882361F488E50E94DD1A882309F44B
:103B700062C189E50E94DD1A882309F45CC180E0F6
:103B800090E0A0E0B0E08093750490937604A09359
:103B90007704B09378048093790490937A04A09387
:103BA0007B04B0937C0485E794E069E774E04DE71B
:103BB00054E021E834E00E94054D80E090E0A6E961
:103BC000B3EC8093C6049093C704A093C804B09349
:103BD000C9048093CA049093CB04A093CC04B093FF
:103BE000CD04209132023091330240913402509141
:103BF0003502209356023093570240935802509357
:103C00005902E0903602F09037020091380210918C
:103C10003902C801B7010E94BEBD882344F4E09276
:103C20005602F09257020093580210935902609185
:103C3000560270915702809158029091590220E0EB
:103C400030E040E752E40E94C5BD7B018C0186EC68
:103C500094E06AEC74E04EEC54E022ED34E0EDE9DF
:103C6000CE2EE4E0DE2E0E94F5510E941E5FE9EBAD
:103C7000F3E065917591859194912091850430913F
:103C8000860440918704509188040E94E5BC6093AB
:103C90007504709376048093770490937804E5EC30
:103CA000F3E065917591859194912091850430910F
:103CB000860440918704509188040E94E5BC60937B
:103CC0009104709392048093930490939404E1ED93
:103CD000F3E06591759185919491209185043091DF
:103CE000860440918704509188040E94E5BC60934B
:103CF0004602709347028093480290934902EDEB8D
:103D0000F3E06591759185919491209189043091AA
:103D10008A0440918B0450918C040E94E5BC60930E
:103D2000790470937A0480937B0490937C04E9EC8B
:103D3000F3E065917591859194912091890430917A
:103D40008A0440918B0450918C040E94E5BC6093DE
:103D50009504709396048093970490939804E5EDEE
:103D6000F3E065917591859194912091890430914A
:103D70008A0440918B0450918C040E94E5BC6093AE
:103D80004A0270934B0280934C0290934D0285E758
:103D900094E069E774E04DE754E021E834E00E94E4
:103DA000054D8091750490917604A0917704B091AF
:103DB00078048093C6049093C704A093C804B0937A
:103DC000C9048091790490917A04A0917B04B09108
:103DD0007C048093CA049093CB04A093CC04B0934A
:103DE000CD046091560270915702809158029091D3
:103DF000590220E030E040E752E40E94C5BD7B015B
:103E00008C0186EC94E06AEC74E04EEC54E022ED18
:103E100034E00E94F55180E090E0A0E0B0E08093B3
:103E2000560290935702A0935802B09359020E94F1
:103E30001E5F0E94425E80915A02882329F488E521
:103E40000E94DD1A882321F080E090E00E9457193B
:103E500080915A02882329F489E50E94DD1A88237B
:103E600021F081E090E00E94571980915A02882346
:103E700029F48AE50E94DD1A882321F082E090E08F
:103E80000E94571988E50E94DD1A8823D9F00E9404
:103E9000371B6115710581059105A1F00E94431B37
:103EA00020918504309186044091870450918804C4
:103EB0000E94E5BC60937504709376048093770448
:103EC0009093780489E50E94DD1A8823D9F00E9436
:103ED000371B6115710581059105A1F00E94431BF7
:103EE0002091890430918A0440918B0450918C0474
:103EF0000E94E5BC6093790470937A0480937B04FC
:103F000090937C048AE50E94DD1A8823D9F00E94F0
:103F1000371B6115710581059105A1F00E94431BB6
:103F200020918D0430918E0440918F045091900423
:103F30000E94E5BC60937D0470937E0480937F04AF
:103F40009093800485E794E069E774E04DE754E0DE
:103F500021E834E00E94054D8091E1049091E20453
:103F6000A091E304B091E404809356029093570229
:103F7000A0935802B09359028091730490917404F5
:103F800090934302809342020E94E9126093B2042C
:103F90007093B3048093B4049093B5040E94425E7E
:103FA0000C94242D1092D6040C94242D81E080933F
:103FB000D6040C94242D85E40E94DD1A882311F484
:103FC0000E941E5F55E7E52E54E0F52E45E8C42E0D
:103FD00044E0D42E00E010E0F801E756FD4F808168
:103FE0000E94DD1A882331F1033061F40E94431BE3
:103FF000F701608371838283938381E894E00E9458
:10400000E74C18C00E94431BF60120813181428198
:1040100053810E94E5BCF70160837183828393839F
:1040200085E794E069E774E04DE754E021E834E087
:104030000E94054D0F5F1F4F24E030E0E20EF31E9B
:10404000C20ED31E0430110539F60C94242D8DE4D4
:104050000E94DD1A882311F40C946E2C0E94431BDD
:104060000E942DBE6B36710509F444C76C3671058C
:104070000CF081C06B31710509F417C26C31710508
:10408000CCF56531710509F4B7C166317105BCF431
:104090006131710509F479C16231710534F462301E
:1040A000710510F00C94242D11C16231710509F4D1
:1040B0002DC76431710511F00C94242D70C1683145
:1040C000710509F4BDC16931710554F4663171059A
:1040D00009F498C16731710511F00C94242D98C131
:1040E0006931710509F4BCC16A31710511F00C9494
:1040F000242DBCC16335710509F404C7643571050D
:10410000DCF46F31710509F457C26032710554F463
:104110006C31710509F4CFC16E31710511F00C9449
:10412000242D05C26A32710509F4F5C262357105A4
:1041300011F00C94242DE3C66C35710509F440C7C9
:104140006D35710554F46435710509F4DFC66535C4
:10415000710511F00C94242D1DC76936710509F401
:104160004DC36A3671050CF096C66836710511F0BC
:104170000C94242D12C36D3C710511F40C947D2A0E
:104180006E3C71050CF049C06837710511F40C9450
:104190007B2969377105F4F46337710511F40C94C8
:1041A0006528643771055CF46D36710509F4F8C350
:1041B0006237710511F00C94242D0C948A28653710
:1041C000710511F40C9474286737710511F00C9483
:1041D000242D78C06E3B710509F4A3C56F3B7105B2
:1041E0005CF46937710511F40C947D296C38710504
:1041F00011F00C94242DF1C26B3C710511F40C9458
:104200003F2A6C3C710514F00C945D2A693C7105E1
:1042100011F00C94242D0C94052A31E06F327307B1
:1042200011F40C94082C41E0603374070CF56D3DDB
:10423000710511F40C94082B6E3D710564F46E3C0D
:10424000710511F40C94DB2A6C3D710511F00C948E
:10425000242D0C94F92A51E06D32750711F40C9459
:10426000172B6E52714011F00C94242D0C94042CD9
:1042700091E0653F790711F40C944E2CE1E0663F24
:104280007E076CF4F1E060397F0711F40C94482C40
:10429000645F714011F00C94242D0C944B2C31E090
:1042A000673F730711F40C94542C41E0673F740787
:1042B00014F40C94512C675E734011F00C94242D6F
:1042C0000C94572CE5E4F1E00C9488298FE993E0F5
:1042D0000E9490B880E50E94DD1A882321F4AA2468
:1042E000BB24650106C00E94431B0E9432BE5B01D5
:1042F0006C0183E50E94DD1A882361F00E94431B54
:1043000020E030E04AE754E40E949EC00E9432BEA2
:104310005B016C010E941E5F0E94E9126093B2046F
:104320007093B3048093B4049093B504A114B104C2
:10433000C104D10401F10E94E9127B018C01EA0C55
:10434000FB1C0C1D1D1D0E94E9126E157F058007C8
:104350009107A8F48091190F82FD11C00E949C69F9
:104360000E944B170E94C2B8EECF0E949C690E9427
:104370004B170E94C2B88091190F82FFF6CF80E9D7
:1043800093E00E9490B80C94242D87E893E00E945B
:1043900090B85E985E9815985E980C94242DE7E787
:1043A000F3E0949108C08091C00085FFFCCF90930A
:1043B000C600319694919923B1F78091C00085FF92
:1043C000FCCF8AE08093C6008FE693E00E94AA7A31
:1043D000E9E6F3E0949108C08091C00085FFFCCF2E
:1043E0009093C600319694919923B1F78091C000C3
:1043F00085FFFCCF0C94212D8FE693E00E940A7676
:104400000C94242D8FE693E00E94E06F0C94242DF1
:104410008091E5049091E60404966AE270E00E94BF
:10442000D10FFC01009711F0319710826091E504E3
:104430007091E6046C5F7F4F8FE693E041E073C0BC
:104440008FE693E00E94E46F0E94E9126093A0045B
:104450007093A1048093A2049093A3040C94242D40
:104460008FE693E00E94EB6F0C94242D80917103F2
:10447000882311F40C94242D83E50E94DD1A8823EF
:1044800011F40C94242D0E94371BAB01BC01409306
:10449000650450936604809367047093680482E413
:1044A00094E00E94183A0C94242D8FE693E00E9429
:1044B0001B720C94242D8091E5049091E6040496DF
:1044C0006AE270E00E94D10F8C01009719F12091EF
:1044D000DB043091DC0480E690E0FC012E9FC001FB
:1044E0002F9F900D3E9F900D112489519B4F6EE49C
:1044F00070E00E94D10F60E270E00E94D10F9C0139
:104500002F5F3F4F3093E6042093E50401501040A5
:10451000F80110826091E5047091E6046C5F7F4FB2
:104520008FE693E040E00E94E7730C94242D809185
:104530007103882311F40C94242D8FE693E00E94DC
:1045400029718091E5049091E60404966AE270E096
:104550000E94D10F8C01009719F12091DB0430915A
:10456000DC0480E690E0AC01249FC001259F900D03
:10457000349F900D112489519B4F6EE470E00E948E
:10458000D10F60E270E00E94D10F9C012F5F3F4F7E
:104590003093E6042093E50401501040F8011082A6
:1045A0006091E5047091E6046C5F7F4F8FE693E0C5
:1045B0000E9475720C94242D0E94E9126093A40449
:1045C0007093A5048093A6049093A7042091A0045F
:1045D0003091A1044091A2045091A304621B730B7B
:1045E000840B950B28EE33E040E050E00E94B6C10A
:1045F000F22EE32ED42EC52E2DB73EB728503040D4
:104600000FB6F8943EBF0FBE2DBF0DB71EB70F5F9C
:104610001F4FCE010196EDB7FEB7928381838AE5E5
:1046200093E0F801938382836F2D7E2D842F952F45
:104630002CE330E040E050E00E94B6C1F801358341
:1046400024836F2D7E2D8D2D9C2D2CE330E040E0BA
:1046500050E00E94B6C1F801778366830E94001083
:10466000E5E5F1E094912DB73EB7285F3F4F0FB6D7
:10467000F8943EBF0FBE2DBF08C08091C00085FFDB
:10468000FCCF9093C600319694919923B1F7FE0127
:10469000319607C08091C00085FFFCCF3196909382
:1046A000C60090819923B1F78091C00085FFFCCFAF
:1046B0008AE08093C600CE0101960E94B3B8809133
:1046C0007509882311F40C94242D1092750980919A
:1046D0009D04082F10E0000F111F0955114FF8011C
:1046E00060817181882777FD8095982F0E9460BE38
:1046F00020915F023091600240916102509162020C
:104700000E94CCBF181614F00C94242DF8011182CD
:1047100010820C94242D83E50E94DD1A882311F465
:104720000C94242D0E94431B0E942DBE7B018C0102
:104730006B0180E50E94DD1A882369F0F7FC0BC04D
:10474000FFEFEF16F10409F034F40E94431B0E94BE
:104750002DBE8B0102C00FEF1FEFEDE9F2E080816B
:1047600091818017910711F40C94242D329623E047
:10477000ED30F207A1F717FF02C00C94242D802F13
:1047800061E00E942014802F6C2D0E949D14802FC8
:10479000B6010E94A2130C94242D88E690E00E949A
:1047A0004D1B882311F00C94242D83E50E94DD1A03
:1047B000882379F00E94431B2091A904022F10E066
:1047C000000F111F0955114F0E942DBEF801718372
:1047D00060830E943A660C94242D83E50E94DD1AC2
:1047E000882311F40C94242D0E94431B0E942DBE9B
:1047F0007093AA0E6093A90E0C94242D89E690E084
:104800000E944D1B882311F00C94242DE4E5F3E065
:10481000949108C08091C00085FFFCCF9093C600A2
:10482000319694919923B1F7E091A904F0E0EE0F4D
:10483000FF1FEE0FFF1FE355F14F40815181628151
:10484000738187EF96E021E030E00E941537E1E5C3
:10485000F3E0949108C08091C00085FFFCCF909355
:10486000C600319694919923B1F7E091A904F0E044
:10487000EE0FFF1FE955F14F60817181882777FDA9
:104880008095982F0E9460BEAB01BC0187EF96E037
:1048900021E030E00E941537EDE4F3E0949108C088
:1048A0008091C00085FFFCCF9093C6003196949113
:1048B0009923B1F74091B30E5091B40E6091B50EAB
:1048C0007091B60E87EF96E021E030E00E94153738
:1048D000EAE4F3E0949108C08091C00085FFFCCF2A
:1048E0009093C600319694919923B1F76091A90EE7
:1048F0007091AA0E882777FD8095982F0E9460BE40
:10490000AB01BC0187EF96E021E030E00E94153753
:10491000E6E4F3E0949108C08091C00085FFFCCFED
:104920009093C600319694919923B1F78091A90490
:104930000E942F66BC0187EF96E04AE050E00E949B
:104940003A36E1E4F3E0949108C08091C00085FF1D
:10495000FCCF9093C600319694919923B1F78FEFD5
:104960009FEF0E942F66BC0187EF96E04AE050E07F
:104970000E943A36EEE5F1E007C08091C00085FF65
:10498000FCCF31969093C60090819923B1F7809126
:10499000C00085FFFCCF8AE08093C6000C94492DAF
:1049A0008DE690E00E944D1B882311F00C94242D7D
:1049B00086E393E00E9490B81092750983E50E9407
:1049C000DD1A882379F00E94431B2091A904022F4D
:1049D00010E0000F111F0955114F0E942DBEF80164
:1049E0007183608383E50E94DD1A882351F00E9461
:1049F000431B60935F027093600280936102909307
:104A0000620282E40E94DD1A882351F00E94431B57
:104A100060935B0270935C0280935D0290935E02F0
:104A200086E40E94DD1A882369F00E94431B60938C
:104A3000630270936402809365029093660281E042
:104A4000809375090E943A660E94E9124B015C014D
:104A50002091A904022F10E07724000F111FF80104
:104A6000E955F14F60817181882777FD8095982FF6
:104A70000E9460BE000F111F0355114FF8012081E5
:104A80003181428153810E94CCBF181614F47724DF
:104A90007394CC24CA94DC2C7601E3E3F3E04490D5
:104AA000EFE2F3E05490EBE2F3E064905AE0352E4D
:104AB0002BC1942DE3E3F3E008C08091C00085FF93
:104AC000FCCF9093C600319694919923B1F7E09171
:104AD000A904F0E0EE0FFF1FEE0FFF1FE355F14FAB
:104AE000408151816281738187EF96E021E030E05F
:104AF0000E941537952DEFE2F3E008C08091C000C9
:104B000085FFFCCF9093C600319694919923B1F71D
:104B10006091A90487EF96E070E04AE050E00E94BF
:104B20003A36962DEBE2F3E008C08091C00085FF95
:104B3000FCCF9093C600319694919923B1F7F7FE7C
:104B400003C0EFE5F1E028C00E94E912A701960139
:104B5000205F384D4F4F5F4F261B370B480B590BCB
:104B6000CA01B90128EE33E040E050E00E94B6C12E
:104B700087EF96E0BA01A9012AE030E00E94E6350D
:104B80008091C00085FFFCCF0EC08091C00085FFE2
:104B9000FCCF31969093C60090819923B1F7809114
:104BA000C00085FFFCCF3092C6000E94E9124B0185
:104BB0005C010E949C690E944B170E94C2B8FFEFE3
:104BC000CF16FFEFDF06FFEFEF06FFEFFF0609F05E
:104BD00050C0E091A904772031F1F0E08F01000F7F
:104BE000111F000F111F0355114FEE0FFF1FE95545
:104BF000F14F60817181882777FD8095982F0E9401
:104C000060BE20E030E040E85FE30E94E4BC9B012E
:104C1000AC01F80160817181828193810E94CCBFD7
:104C200087FF58C05EC0F0E08F01000F111F000F1A
:104C3000111F0355114FEE0FFF1FE955F14F608112
:104C40007181882777FD8095982F0E9460BE20E0B3
:104C500030E040E85FE30E94E5BC9B01AC01F80155
:104C600060817181828193810E94BEBD181694F586
:104C700038C0F7FC36C0E091A904F0E08F01000FC6
:104C8000111F000F111F0355114FEE0FFF1FE955A4
:104C9000F14F60817181882777FD8095982F0E9460
:104CA00060BE9B01AC01F8016081718182819381BA
:104CB0000E94E4BC0E942DBE97FF07C0909580958E
:104CC000709561957F4F8F4F9F4F643071058105BF
:104CD00091053CF00E94E912AC01CB01DA016C01B4
:104CE0007D01FFEFCF16FFEFDF06FFEFEF06FFEFCF
:104CF000FF0651F0F7FCABC60E94E9126C197D0962
:104D00006051774208F0A3C60E94E9126819790938
:104D10008A099B09695E73408040904008F0C9CEC3
:104D200048CF80E193E00E9490B883E50E94DD1AAD
:104D3000882341F00E94431B0E942DBE7093AA0E4F
:104D40006093A90E0E94E9127B018C01EDE0F3E073
:104D5000B490E9E0F3E0C490E5E0F3E0D4907AE0C9
:104D6000A72E7DC00E94E9126E197F09800B910B5E
:104D7000695E73408040904008F46BC0E0919D04F0
:104D8000F0E0EE0FFF1FEE0FFF1FE355F14F4081E4
:104D90005181628173819B2DEDE0F3E008C0809129
:104DA000C00085FFFCCF9093C60031969491992363
:104DB000B1F787EF96E022E030E00E9415379C2D96
:104DC000E9E0F3E008C08091C00085FFFCCF90933C
:104DD000C600319694919923B1F760919D0487EFB5
:104DE00096E070E04AE050E00E943A369D2DE5E002
:104DF000F3E008C08091C00085FFFCCF9093C6000F
:104E0000319694919923B1F74091B30E5091B40E1D
:104E10006091B50E7091B60E87EF96E021E030E01C
:104E20000E941537EEE5F1E007C08091C00085FFD4
:104E3000FCCF31969093C60090819923B1F7809171
:104E4000C00085FFFCCFA092C6000E94E9127B0142
:104E50008C010E949C690E944B170E94C2B860910D
:104E6000A90E7091AA0E882777FD8095982F0E9431
:104E700060BE2091B30E3091B40E4091B50E5091AA
:104E8000B60E0E94CCBF18160CF46CCF8BEF92E0DC
:104E90000E9490B8EAC583E50E94DD1A882319F1C3
:104EA0000E94431B20E030E040E050E00E94BEBD85
:104EB00088231CF460E070E011C00E94431B20E0D6
:104EC00030E04FE753E40E94CCBF18161CF46FEF9C
:104ED00070E004C00E94431B0E942DBE70939F048B
:104EE00060939E04B1C58FEF90E090939F048093F0
:104EF0009E04AAC510929F0410929E04A5C510920C
:104F00007204A2C581E0809372049EC583E50E946D
:104F1000DD1A882399F00E94431B20E030E04AE725
:104F200054E40E949EC00E9432BE6093520270936D
:104F30005302809354029093550286C588E50E94DF
:104F4000DD1A882309F09CC589E50E94DD1A8823B3
:104F500009F096C58AE50E94DD1A882309F090C5FC
:104F600085E40E94DD1A882309F08AC50E941E5F2D
:104F70005E9A0E942C5F68C55E9A89E50E94DD1AE0
:104F800081115E9A8AE50E94DD1A882309F45CC5C6
:104F9000159A5AC583E50E94DD1A0E94431B20E042
:104FA00030E04AE754E40E949EC00E9432BE609303
:104FB000B6047093B7048093B8049093B90444C5C1
:104FC00059E1652E59E0752E49E0242E49E0342E32
:104FD00035E5432E39E0532E88249924F401E75611
:104FE000FD4F80810E94DD1A882309F45DC053E0E3
:104FF000851609F052C00E94431B5B016C0120E042
:1050000030E040EA51E40E94BEBD88230CF03FC06E
:10501000F3016081718182819381A60195010E94D3
:10502000C5BD7B018C0160914D0970914E09809145
:105030004F0990915009A80197010E949EC060936A
:105040004D0970934E0980934F0990935009F101D7
:105050006081718182819381A80197010E949EC025
:10506000F1016083718382839383F2016081718196
:10507000828193810E945EBEA80197010E949EC01A
:105080000E9432BEF2016083718382839383F301B5
:10509000A082B182C282D38207C00E94431BF30167
:1050A00060837183828393830894811C911C24E024
:1050B00030E0620E731E220E331E420E531E34E089
:1050C0008316910409F08ACFBFC4E0E6F2E0949120
:1050D00008C08091C00085FFFCCF9093C600319638
:1050E00094919923B1F7B0C48091E5049091E604BE
:1050F00005966AE270E00E94D10FFC01009711F062
:10510000319710828091E5049091E60405960E9403
:10511000B3B89AC4EDE5F2E0949108C08091C00064
:1051200085FFFCCF9093C600319694919923B1F7F7
:1051300040917504509176046091770470917804E1
:1051400087EF96E022E030E00E941537EAE5F2E0D2
:10515000949108C08091C00085FFFCCF9093C60059
:10516000319694919923B1F74091790450917A0442
:1051700060917B0470917C0487EF96E022E030E040
:105180000E941537E7E5F2E0949108C08091C000D5
:1051900085FFFCCF9093C600319694919923B1F787
:1051A00040917D0450917E0460917F047091800451
:1051B00087EF96E022E030E00E941537E4E5F2E068
:1051C000949108C08091C00085FFFCCF9093C600E9
:1051D000319694919923B1F74091810450918204C2
:1051E000609183047091840487EF96E022E030E0C0
:1051F0000E941537E9E4F2E0949108C08091C00064
:1052000085FFFCCF9093C600319694919923B1F716
:1052100080E00E94E95E0E9460BE209119093091F1
:105220001A0940911B0950911C090E94C5BDAB0190
:10523000BC0187EF96E022E030E00E941537E6E4FB
:10524000F2E0949108C08091C00085FFFCCF90935C
:10525000C600319694919923B1F781E00E94E95EEE
:105260000E9460BE20911D0930911E0940911F09C6
:10527000509120090E94C5BDAB01BC0187EF96E0AB
:1052800022E030E00E941537E3E4F2E0949108C098
:105290008091C00085FFFCCF9093C6003196949119
:1052A0009923B1F782E00E94E95E0E9460BE2091DE
:1052B00021093091220940912309509124090E942B
:1052C000C5BDAB01BC0187EF96E022E030E00E9453
:1052D0001537EEE5F1E007C08091C00085FFFCCFF7
:1052E00031969093C60090819923B1F78091C000C8
:1052F00085FFFCCFA6C380E001C081E00E94495E2B
:10530000A3C38091C00085FFFCCF31969093C60067
:1053100090819923B1F78091C00085FFFCCF8AE08E
:105320008093C600EBE3F2E0949108C08091C00046
:1053300085FFFCCF9093C600319694919923B1F7E5
:10534000329903C0E1E6F1E00AC0E6E6F1E007C009
:105350008091C00085FFFCCF31969093C60090816C
:105360009923B1F78091C00085FFFCCF8AE080933C
:10537000C600E3E3F2E0949108C08091C00085FF8D
:10538000FCCF9093C600319694919923B1F733994D
:1053900003C0E1E6F1E00AC0E6E6F1E007C0809173
:1053A000C00085FFFCCF31969093C6009081992371
:1053B000B1F78091C00085FFFCCF8AE08093C600E2
:1053C000EBE2F2E0949108C08091C00085FFFCCF31
:1053D0009093C600319694919923B1F7349903C004
:1053E000E1E6F1E00AC0E6E6F1E007C08091C00026
:1053F00085FFFCCF31969093C60090819923B1F739
:105400008091C00085FFFCCF1CC329E9C22E22E099
:10541000D22EEE24FF24F60180810E94DD1A88231B
:1054200009F10E94431B8701075D164F0E9432BE9F
:10543000F80160837183828393830E94431B8701F9
:105440000B5A164FF701E75EF64F208131814281FA
:1054500053810E949EC00E9432BEF8016083718316
:10546000828393830894C11CD11C24E030E0E20EB7
:10547000F31E3DE9C31632E0D30669F6E5C209E939
:1054800012E099E0E92E99E0F92EF80180810E945E
:10549000DD1A882339F00E94431BF7016083718372
:1054A000828393830F5F1F4F24E030E0E20EF31EF0
:1054B00032E00D39130749F7C7C283E50E94DD1AB0
:1054C000882351F00E94431B60933D0970933E096D
:1054D00080933F099093400984E50E94DD1A882358
:1054E00009F4B2C20E94431B6093410970934209C0
:1054F0008093430990934409A7C283E50E94DD1A73
:10550000882351F00E94431B6093390970933A0934
:1055100080933B0990933C0984E50E94DD1A88231F
:1055200051F00E94431B609351097093520980937C
:1055300053099093540982E40E94DD1A882361F094
:105540000E94431B0E9432BE6093050970930609B6
:10555000809307099093080988E50E94DD1A882343
:1055600051F00E94431B6093450970934609809354
:105570004709909348098AE50E94DD1A882351F073
:105580000E94431B6093490970934A0980934B0919
:1055900090934C0985E40E94DD1A882309F454C2D3
:1055A0000E94431B60934D0970934E0980934F09ED
:1055B0009093500949C209E912E085E8E82E84E099
:1055C000F82EF80180810E94DD1A882339F00E94AC
:1055D000431BF70160837183828393830F5F1F4FA7
:1055E00024E030E0E20EF31E32E00C39130749F7F5
:1055F0002BC283E50E94DD1A882309F425C20E948C
:10560000431B0E942DBE70934302609342021CC252
:1056100083E50E94DD1A882309F416C20E94431B09
:105620000E942DBE70934502609344020DC280E536
:105630000E94DD1A882351F00E94431B60936C0284
:1056400070936D0280936E0290936F0289E40E94C2
:10565000DD1A882381F00E94431B2DEB37E346E0DF
:105660005EE30E949EC0609370027093710280930B
:1056700072029093730284E40E94DD1A882381F001
:105680000E94431B2DEB37E346E05EE30E94C5BD5D
:105690006093740270937502809376029093770200
:1056A00083E40E94DD1A882351F00E94431B60931B
:1056B00078027093790280937A0290937B020E9421
:1056C0001866E0E7F1E007C08091C00085FFFCCFDD
:1056D00031969093C60090819923B1F7E3E7F1E00A
:1056E00007C08091C00085FFFCCF31969093C60023
:1056F00090819923B1F740916C0250916D026091B5
:105700006E0270916F0287EF96E022E030E00E9417
:105710001537E7E7F1E007C08091C00085FFFCCFB7
:1057200031969093C60090819923B1F760917002F1
:105730007091710280917202909173022DEB37E3A8
:1057400046E05EE30E94C5BDAB01BC0187EF96E079
:1057500022E030E00E941537EBE7F1E007C08091CE
:10576000C00085FFFCCF31969093C60090819923AD
:10577000B1F76091740270917502809176029091F8
:1057800077022DEB37E346E05EE30E949EC0AB015B
:10579000BC0187EF96E022E030E00E941537EFE78A
:1057A000F1E007C08091C00085FFFCCF3196909357
:1057B000C60090819923B1F76091780270917902C7
:1057C00080917A0290917B022DEB37E346E05EE315
:1057D0000E949EC0AB01BC0187EF96E022E030E062
:1057E0000E941537EEE5F1E007C08091C00085FF0B
:1057F000FCCF31969093C60090819923B1F78091A8
:10580000C00085FFFCCF1DC181E00E94E44C1CC19B
:1058100085E40E94DD1A882319F4CC24DD2412C00B
:105820000E94431B0E942DBE6B0177FF0BC00F2E01
:10583000F0E0EF2EF0E0FF2EFCE80F2FF2E41F2F38
:10584000F02D0AC00F2EF0E0EF2EF0E0FF2EF6E173
:105850000F2FF3E41F2FF02D83E50E94DD1A88231C
:1058600021F00E94431B7B018C0183E40E94DD1A1E
:10587000882319F425E030E005C00E94431B0E94F4
:105880002DBE9B01C801B701A6010E944D6BDCC073
:105890000E941E5FD9C00E94F77AD6C00E94D381B1
:1058A000D3C00E94157DD0C00E94957ECDC01092BD
:1058B000A8040E94C3858091AE049091AF04A0918A
:1058C000B004B091B1048093AA049093AB04A09368
:1058D000AC04B093AD040E942919B6C084E50E94BF
:1058E000DD1A882309F465C00E94431B0E9432BE62
:1058F000262F6093A904E5E5F1E0662391F19491E8
:1059000008C08091C00085FFFCCF9093C6003196FF
:1059100094919923B1F7E3E8F1E007C08091C000CA
:1059200085FFFCCF31969093C60090819923B1F703
:1059300087EF96E0622F40E050E00E94F335E5E803
:10594000F1E007C08091C00085FFFCCF31969093B5
:10595000C60090819923B1F78091C00085FFFCCFEC
:1059600070C010929D04949108C08091C00085FF82
:10597000FCCF9093C600319694919923B1F7E6E954
:10598000F1E007C08091C00085FFFCCF3196909375
:10599000C60090819923B1F787EF96E060E070E050
:1059A0004AE050E00E943A368091C00085FFFCCF6B
:1059B00048C0E5E5F1E0949108C08091C00085FF02
:1059C000FCCF9093C600319694919923B1F7E8E10A
:1059D000F2E0949108C08091C00085FFFCCF9093C5
:1059E000C600319694919923B1F72091DB04309150
:1059F000DC0480E690E0289FF001299FF00D389F9D
:105A0000F00D1124E951FB4F07C08091C00085FFC4
:105A1000FCCF31969093C60090819923B1F7E6E1CF
:105A2000F2E0949108C08091C00085FFFCCF909374
:105A3000C600319694919923B1F78091C00085FFFB
:105A4000FCCF8AE08093C6000E94221722C08DE11D
:105A500093E00E9490B80E94E9126093A0047093B2
:105A6000A1048093A2049093A3040E94E91260937E
:105A7000B2047093B3048093B4049093B504E4CF5C
:105A80000E941E5F88E50E94DD1A882309F074CA0F
:105A900074CA6E960FB6F894DEBF0FBECDBFCF911D
:105AA000DF911F910F91FF90EF90DF90CF90BF900B
:105AB000AF909F908F907F906F905F904F903F90AE
:105AC0002F9008952F923F924F925F926F927F9204
:105AD0008F929F92AF92BF92CF92DF92EF92FF92FE
