:200000000C94940B0C94BF0B0C94BF0B0C94BF0B0C94BF0B0C94BF0B0C94BF0B0C94BF0BBB
:200020000C94BF0B0C94BF0B0C94BF0B0C94BF0B0C94BF0B0C949C9B0C94BF0B0C94BF0B03
:200040000C94BF0B0C9482A60C94AEAF0C94BF0B0C946B710C94BF0B0C94BF0B0C94BF0B4D
:200060000C94BF0B0C94BF0B0C94BF0B0C94BF0B0C94BF0B0C94BF0B0C94BF0B0C94BF0B30
:200080000C94BF0B0C94BF0B0C94BF0B084AD73B3BCE016E84BCBFFDC12F3D6C74319ABDB5
:2000A00056833DDA3D00C77F11BED9E4BB4C3E916BAAAABE000000803F05A84CCDB2D44E95
:2000C000B93836A9020C50B9918688083CA6AAAA2ABE000000803F6563686F3A0043616ECA
:2000E0006E6F7420656E746572207375626469723A004572726F723A006572726F72207789
:20010000726974696E6720746F2066696C65004E6F74205344207072696E74696E67002FED
:20012000005344207072696E74696E67206279746520002E0044656C6574696F6E20666160
:20014000696C65642C2046696C653A200046696C652064656C657465643A002E006F7065B8
:200160006E206661696C65642C2046696C653A200057726974696E6720746F2066696C65BF
:200180003A20002E006F70656E206661696C65642C2046696C653A20002E006F70656E207A
:2001A0006661696C65642C2046696C653A200046696C652073656C656374656400205369EF
:2001C0007A653A0046696C65206F70656E65643A002E006F70656E206661696C65642C2000
:2001E00046696C653A200053442063617264206F6B006F70656E526F6F74206661696C6563
:200200006400766F6C756D652E696E6974206661696C656400534420696E697420666169C0
:200220006C004572726F723A00536F6D657468696E672069732077726F6E6720696E20748C
:200240006865204D656E755374727563747572652E002043617264204D656E75202020204E
:200260007E002053746F70205072696E742020207E0020436F6E74726F6C207E00205475A7
:200280006E65202020207E002050726570617265207E002057617463682020200300200066
:2002A000045265667265736800204D61696E20030020526573746F7265204661696C73612F
:2002C000666500204C6F6164206D656D6F7279002053746F7265206D656D6F727900204DA7
:2002E0006F74696F6E2020202020207E002054656D7065726174757265207E00204D616914
:200300006E202020202020202003006563686F3A0053657474696E67732053746F726564B1
:200320000053746F7265642073657474696E6773207265747265697665643A002044002013
:2003400049002020204D3330312050005049442073657474696E67733A00204500205A001C
:2003600020580020420020540020204D323035205300416476616E6365642076617269614F
:20038000626C65733A20533D4D696E20666565647261746520286D6D2F73292C20543D4D32
:2003A000696E2074726176656C20666565647261746520286D6D2F73292C20423D6D696E5C
:2003C000696D756D207365676D656E742074696D6520286D73292C20583D6D6178696D75C0
:2003E0006D207859206A65726B20286D6D2F73292C20205A3D6D6178696D756D205A206AE1
:2004000065726B20286D6D2F73290020540020204D323034205300416363656C657261741F
:20042000696F6E3A20533D616363656C65726174696F6E2C20543D7265747261637420614F
:200440006363656C65726174696F6E00204500205A0020590020204D3230312058004D6175
:2004600078696D756D20416363656C65726174696F6E20286D6D2F7332293A002045002084
:200480005A0020590020204D3230332058004D6178696D756D20666565647261746573201E
:2004A000286D6D2F73293A00204500205A0020590020204D393220580053746570732070CE
:2004C000657220756E69743A00204573746570732F6D6D3A00205A73746570732F6D6D3A68
:2004E00000205973746570732F6D6D3A00205873746570732F6D6D3A003030003030002047
:20050000412D726574726163743A00303000303000653A007A3A00793A00783A0020416DF8
:2005200061782000205654726176206D696E3A0020566D696E3A00653A007A3A00793A0017
:20054000783A0020566D61782000205678792D6A65726B3A2000303000303000204163638C
:200560003A0020436F6E74726F6C200300205049442D433A2000205049442D443A2000206E
:200580005049442D493A2000205049442D503A20002046616E2073706565643A00200242D6
:2005A00065643A004F6666004F6E20004F6666004F6E2000204175746F74656D703A00207F
:2005C0000220466163743A002002204D61783A002002204D696E3A0020024E6F7A7A6C655B
:2005E0003A0020436F6E74726F6C20030020466C6F773A002046616E2073706565643A000B
:2006000020024265643A0020024E6F7A7A6C653A002053706565643A00204D61696E200382
:2006200000204578747275646500205A3A0020593A0020583A00205072657061726520038E
:2006400000204D6F766520417869732020202020207E0020436F6F6C646F776E00205072A9
:2006600065686561742041425300205072656865617420504C410020536574204F7269679A
:20068000696E00204175746F20486F6D65002044697361626C6520537465707065727300D7
:2006A000204175746F737461727400204D61696E200300255344002520005A3A006D006821
:2006C0002000422D2D2D2F2D2D2D012000022D2D2D2F2D2D2D0120004D656E64656C205233
:2006E000656164792E0053544F505045442E20005072696E7465722073746F707065642099
:2007000064657520746F206572726F72732E2046697820746865206572726F7220616E6468
:2007200020757365204D39393920746F2072657374617274212E202854656D706572617433
:200740007572652069732072657365742E20536574206974206265666F7265207265737426
:20076000617274696E6729004B494C4C45442E20005072696E7465722068616C7465642E24
:20078000206B696C6C28292063616C6C6564202121006F6B00526573656E643A0022005569
:2007A0006E6B6E6F776E20636F6D6D616E643A22007A5F6D696E3A00795F6D696E3A00781E
:2007C0005F6D696E3A005A3A00593A0020436F756E7420583A00453A005A3A00593A00583C
:2007E0003A004649524D574152455F4E414D453A4D61726C696E2056313B20537072696E37
:200800007465722F6772626C206D617368757020666F722067656E36204649524D574152DA
:20082000455F55524C3A687474703A2F2F7777772E6D656E64656C2D70617274732E636F30
:200840006D2050524F544F434F4C5F56455253494F4E3A312E30204D414348494E455F5483
:200860005950453A4D656E64656C2045585452554445525F434F554E543A310A00506172E8
:200880007469616C2052656C656173650042656420646F6E652E0020423A0020453A00543F
:2008A0003A004265642048656174696E672E0048656174696E6720646F6E652E0020573A80
:2008C0000020453A00543A0048656174696E672E2E2E0020403A00202F0020423A00202FCD
:2008E000006F6B20543A00456E642066696C65206C69737400426567696E2066696C6520F8
:200900006C697374004E6F206D6F76652E005761697420666F7220757365722E2E2E0053A1
:200920006C6565702E2E2E00446F6E65207072696E74696E672066696C650053544F505020
:2009400045442E20005072696E7465722073746F707065642064657520746F206572726F84
:2009600072732E2046697820746865206572726F7220616E6420757365204D393939207406
:200980006F2072657374617274212E202854656D70657261747572652069732072657365D3
:2009A000742E20536574206974206265666F72652072657374617274696E6729006F6B0053
:2009C0004E6F204C696E65204E756D626572207769746820636865636B73756D2C204C61E1
:2009E0007374204C696E653A004E6F20436865636B73756D2077697468206C696E65206EEC
:200A0000756D6265722C204C617374204C696E653A00636865636B73756D206D69736D616F
:200A20007463682C204C617374204C696E653A004C696E65204E756D626572206973206E1A
:200A40006F74204C617374204C696E65204E756D6265722B312C204C617374204C696E65EA
:200A60003A00446F6E6520736176696E672066696C652E006F6B002020506C616E6E657236
:200A800042756666657242797465733A20002046726565204D656D6F72793A2000546869E1
:200AA0006E6B33445072696E74334400207C20417574686F723A2000323031322D30362D54
:200AC000313000204C61737420557064617465643A2000312E302E3020524332004D6172CC
:200AE0006C696E200020536F66747761726520526573657400205761746368646F67205242
:200B000065736574002042726F776E206F7574205265736574002045787465726E616C20DE
:200B2000526573657400506F7765725570007374617274002200656E717565696E672022F2
:200B4000006563686F3A0020746F6F206C6F6E6720657874727573696F6E20707265766527
:200B60006E7465640020636F6C6420657874727573696F6E2070726576656E746564007C8E
:200B80003C3E5E2B3D3F2F5B5D3B2C2A225C0052656C65617365642E0024F404D9201BC499
:200BA0000C5C0E9804C4095F0265077101F405F900FB04B30048048700C1036900580355C3
:200BC0000003034500BE023A008402310053022A002902250004022000E4011C00C8011941
:200BE00000AF0117009801140084011300710110006101100051010E0043010D0036010B02
:200C0000002B010B0020010B00150109000C01090003010800FB000800F3000800EB000740
:200C200000E4000600DE000600D8000600D2000600CC000500C7000500C2000500BD00040B
:200C400000B9000400B5000400B1000400AD000400A9000400A5000300A20003009F00041B
:200C6000009B000300980003009500020093000300900003008D0002008B000300880002D4
:200C8000008600020084000300810002007F0002007D0002007B0002007900020077000152
:200CA00000760002007400020072000100710002006F0002006D0001006C0002006A0001A8
:200CC0000069000200670001006600010065000100640002006200010061000100600001E8
:200CE000005F0002005D0001005C0001005B0001005A000100590001005800010057000116
:200D0000005600010055000100540001005300000053000100520001005100010050000134
:200D2000004F0001004E0000004E0001004D0001004C0001004B0000004B0001004A000149
:200D4000004900010048000000480001004700010046000000460001004500000045000158
:200D600000440001004300000043000100420000004200010041000000410001004000015E
:200D8000003F0000003F0001003E0000003E0001003D0000003D0001003C0000003C000064
:200DA000003C0001003B0000003B0001003A0000003A00010039000000390001003800005F
:200DC00000380000003800010037000000370001003600000036000000360001003500005B
:200DE000003500000035000100340000003400000034000100330000003300000033000151
:200E0000003200000032000000320001003100000031000000310001003000000030000047
:200E200000300001002F0000002F0000002F0000002F0001002E0000002E0000002E000139
:200E4000002D0000002D0000002D0000002D0001002C0000002C0000002C0000002C00012C
:200E6000002B0000002B0000002B0000002B0001002A0000002A0000002A0000002A00011C
:200E800000290000002900000029000000290000002900010028000000280000002800000C
:200EA0000028000000280001002700000027000000270000002700000027000100260000F7
:200EC0000026000000260000002600000026000100250000002500000025000000250000E5
:200EE0000025000000250001002400000024000000240000002400000024000100230000CF
:200F00000023000000230000002300000023000000230000002300010022000000220000BA
:200F20000022000000220000002200000022000100210000002100000021000000210000A4
:200F400000210000002100000021000100200000002000000020000000200000002000008D
:200F6000002000000020000000200001001F0000001F0000001F0000001F0000001F000075
:200F8000001F0000001F0001001E0000001E0000001E0000001E00000024F4D43050C38EDD
:200FA00020C2A24017828B7011127A910D816CD90AA861E108C7586607615143061E4B5D8F
:200FC00005C145A7041A411104093D9803713931034036DB0265339102D4305402802E1D89
:200FE00002632CEE01752AC501B028A001102781018F2564012B244B01E0223401AC211F03
:20100000018D200D01801FFC00841EED00971DDF00B81CD200E61BC600201BBC00641AB2C3
:2010200000B219A8000A19A0006A189900D117910040178B00B516840031167E00B31579AF
:20104000003A157300C7146F0058146A00EE1366008813630025135E00C7125B006C1257AA
:201060000015125400C111510070114F0021114B00D61049008D1047004610440002104284
:2010800000C00F4000800F3E00420F3C00060F3B00CB0E3800930E37005C0E3500270E34A6
:2010A00000F30D3200C10D3100900D3000600D2E00320D2D00050D2C00D90C2B00AE0C29FA
:2010C00000850C29005C0C2700350C27000E0C2600E80B2400C40B2400A00B23007D0B239C
:2010E000005A0B2100390B2100180B2000F80A1F00D90A1E00BB0A1E009D0A1D00800A1D52
:2011000000630A1C00470A1B002C0A1B00110A1A00F7091A00DD091900C4091900AB091988
:2011200000920917007B091800630917004C09160036091600200916000A091500F50815A5
:2011400000E0081400CC081400B8081400A4081400900813007D0812006B081300580812DD
:20116000004608120034081100230811001208110001081100F0071000E0071000D007105C
:2011800000C0071000B0070F00A107100091070E0083070F0074070F0065070E0057070E4B
:2011A0000049070E003B070D002E070E0020070D0013070D0006070D00F9060C00ED060DBF
:2011C00000E0060C00D4060C00C8060C00BC060C00B0060C00A4060B0099060C008D060BCF
:2011E0000082060B0077060B006C060B0061060A0057060B004C060A0042060A0038060A88
:20120000002E060A0024060A001A060A001006090007060A00FD050900F4050900EB0509F6
:2012200000E2050900D9050900D0050900C7050900BE050900B5050800AD050800A5050929
:20124000009C050800940508008C050800840508007C050800740508006C05070065050826
:20126000005D050700560508004E050700470507004005080038050700310507002A0507F1
:2012800000230507001C050600160507000F0507000805060002050700FB040600F5040795
:2012A00000EE040600E8040600E2040700DB040600D5040600CF040600C9040600C304061A
:2012C00000BD040600B7040600B1040500AC040600A6040600A00405009B0406009504057A
:2012E00000900406008A04050085040500800406007A04050075040500700405006B0405BB
:201300000066040500610405005C04050057040500520405004D04050048040500430405E1
:20132000003E0404003A04050035040500300404002C04050027040400230405001E0404F8
:20134000001A04040016040500110404000D040400090405000404040000040400FC0304F5
:2013600000F8030400F4030400F0030400EC030400E8030400E4030400E0030400DC0304E5
:2013800000D8030400D4030400D0030400CC030400C8030300C50303006563686F3A002057
:2013A0005A3A0020593A0020583A00656E6473746F7073206869743A20004572726F723AC1
:2013C0000054656D706572617475726520686561746564206265642073776974636865642E
:2013E000206F66662E204D415854454D5020747269676765726564202121003A204578745E
:201400007275646572207377697463686564206F66662E204D494E54454D50207472696796
:2014200067657265642021003A204578747275646572207377697463686564206F66662EB3
:20144000204D415854454D502074726967676572656420210070012C0190012701B0012208
:2014600001C0011D01F00118011002130130020E016002090190020401C002FF000003FA5A
:20148000004003F5008003F000D003EB002004E6007004E100E004DC004005D700C005D211
:2014A000004006CD00D006C8008007C3003008BE00F008B900C009B400B00AAF00B00BAA3F
:2014C00000D00CA500000EA000500F9B00C01096005012910000148C00C0158700B0178245
:2014E00000B0197D00D01B7800001E730040206E0090226900F024640040275F0090295A78
:2015000000E02B5500102E500020304B0010324600E033410090353C00103737007038320D
:2015200000A0392D00B03A2800A03B2300603C1E00103D1900903D1400103E0F00703E0A7F
:2015400000C03E0500003F0000202D20496E76616C6964206578747275646572206E756D12
:20156000626572202100202D20496E76616C6964206578747275646572206E756D62657281
:201580002100504944204175746F74756E652066696E6973686564202120506C6163652008
:2015A000746865204B702C204B6920616E64204B6420636F6E7374616E747320696E207465
:2015C000686520636F6E66696775726174696F6E2E6800504944204175746F74756E65209E
:2015E0006661696C6564212074696D656F75740020403A006F6B20543A0050494420417569
:20160000746F74756E65206661696C6564212054656D706572617475726520746F206869E3
:20162000676800204B643A2000204B693A2000204B703A200020436C6173696320504944E3
:2016400020002054753A2000204B753A2000206D61783A2000206D696E3A200020643A2091
:201660000020626961733A200000002100240027002A0000002200250028002B0000002001
:2016800000230026002900020202020202020204040404040404040303030303030303018F
:2016A0000101010101010101020408102040800102040810204080010204081020408080A6
:2016C000402010080402010000000102000000000000000403070600000000000000000074
:2016E00000000000000000494E46494E4954594E414ECDCCCC3D0AD7233C17B7D13877CCA7
:201700002B329595E6241FB14F0A000020410000C84200401C4620BCBE4CCA1B0E5AAEC55C
:201720009D74EE1FFF71E71F11241FBECFEFD0E4DEBFCDBF13E0A0E0B1E0E8EBF0E701E0D9
:201740000BBF02C007900D92A63CB107D9F71BBE1FE0A6ECB3E001C01D92A936B107E1F781
:2017600017E1C6E2D7E104C02297FE010E9401B8C232D107C9F70E94C6B10C944FB80C944E
:201780000000A0E0B0E0E7ECFBE00C941EB8EC015B016115710519F0FB0191838083F9903B
:2017A0008F2D90E00E9405B8892BC9F7FDE2FF1621F4F990EE24E39405C02BE2F21609F438
:2017C000F990EE248E0101501040C80167EE76E143E050E00E94500E892B01F58E010E5FD0
:2017E0001F4FC8016AEE76E145E050E00E94500E892B19F48E01095F1F4FA114B10419F015
:20180000F50111830083E0FC04C070E090E080E814C070E090E080E86FEF08C1C8016FEEAA
:2018200076E143E050E00E94500E892B69F4A114B10429F470E090E080EC6FE7F7C0229675
:20184000F501D183C083F6CF8824992440E050E060E070E0EF2DE053EA30A0F5F2E0EF2A04
:201860008E2D90E09C0128703070E2FE06C0232B79F50894811C911C2BC0232B19F0089442
:2018800081089108DB01CA0112E0880F991FAA1FBB1F1A95D1F7480F591F6A1F7B1F440FDF
:2018A000551F661F771F4E0F511D611D711D483929E9520729E9620729E1720748F084E03C
:2018C000E82A06C0EE3F31F4E3FC39C098E0E92AF990C0CFE53311F0E53189F529912D329D
:2018E00019F4E0E1EE2A05C02B3219F081E090E003C0299182E090E0E22FE053EA3018F051
:20190000C81BD90B1CC020E030E0FCE020383F075CF4C901880F991F880F991F280F391F53
:20192000220F331F2E0F311DE991E053EA3068F3E4FE03C0309521953F4F820E931ECE2C8E
:20194000DD24E1FE07C0A114B10421F02197F501D183C083CB01BA010E946AB47B018C01D0
:20196000F3E0CF22DD2423E0C216D10421F417FB109517F9109557016801C801B70120E02F
:2019800030E040E050E00E94CAB3882309F44AC097FE0DC026E0E22E27E1F22E909481943D
:2019A00091089394C0E2D0E000E010E012C09EE1E92E97E1F92EF6CFF7012591359145912F
:2019C0005491C601B5010E94AAB65B016C018C1A9D0A8C169D0684F7D595C7950F5F1F4F2B
:2019E0000630110529F08CEF9FEFE80EF91EF1CFC501D6017C018D018C2D880F8D2D881F53
:201A00008F3F51F0C601B50120E030E040E050E00E94CAB3882331F482E290E09093680F7D
:201A20008093670F7E2D9F2D802F612F272F392F482F562FB901CA01CDB7DEB7ECE00C94A3
:201A40003AB82F923F925F926F927F928F929F92AF92BF92CF92DF92EF92FF920F931F93E3
:201A6000CF93DF938C011B01EA016115710519F0FB0191838083209749F0CE010297839784
:201A800028F020E030E040E050E0F6C0F801A1908F018A2D90E00E9405B8892BB9F7FDE295
:201AA000AF1631F4F801A1908F015524539407C0FBE2AF1619F4F801A1908F0155242097C2
:201AC00019F0C031D105C1F4F0E3AF1679F4F8018081883711F0883549F4F801A1800E5F41
:201AE0001F4FF2E05F2AC0E1D0E006C0209721F480E3A816E9F427C0C830D10531F1C9306C
:201B0000D10524F4C230D10531F50CC0CA30D10589F0C031D105F9F4C12CD12CE12CB8E091
:201B2000FB2E28C0C12CD12CE12CA0E4FA2E22C0CAE0D0E0FCECCF2EFCECDF2EFCECEF2ED6
:201B4000FCE0FF2E17C0C8E0D0E0C12CD12CE12CE0E1FE2E0FC09E01442737FD4095542F04
:201B600060E070E080E090E80E94C2B7C901DA016C017D0120E030E040E050E060E03E0173
:201B8000882477FC8094982C70EDB72EBA0CE9E0EB1570F48A2D81548A3118F499ECB92E5A
:201BA00006C08A2D81568A3150F589EAB82EBA0C8B2D90E08C179D0714F56F3FE1F0C216E3
:201BC000D306E406F506B0F0CA01B901A40193010E947CB79B01AC012B0D311D411D511D79
:201BE0002130F0E03F07F0E04F07F0E85F0710F461E001C06FEFF801A1908F01C5CF211433
:201C0000310481F0662331F001501040F1011183008308C051FE1AC002501040F1011183B1
:201C2000008314C067FF12C050FC05C02FEF3FEF4FEF5FE704C020E030E040E050E882E2A4
:201C400090E09093680F8093670F16C050FE08C050954095309521953F4F4F4F5F4F0CC02A
:201C600057FF0AC082E290E09093680F8093670F2FEF3FEF4FEF5FE7B901CA01DF91CF9128
:201C80001F910F91FF90EF90DF90CF90BF90AF909F908F907F906F905F903F902F90089514
:201CA000FB01DC014150504088F08D9181341CF08B350CF4805E659161341CF06B350CF4FE
:201CC000605E861B611171F3990B0895881BFCCFFB01DC0104C08D910190801921F4415095
:201CE0005040C8F7881B990B0895FB01DC0102C001900D9241505040D8F70895FB01DC0180
:201D00000D900020E9F7119701900D920020E1F70895FC018191861721F08823D9F79927C1
:201D200008953197CF010895FB01DC0101900D920020E1F70895FB01DC014150504030F019
:201D40008D910190801919F40020B9F7881B990B0895FB01DC014150504048F001900D9218
:201D60000020C9F701C01D9241505040E0F70895FB0151915523A9F0BF01DC014D914517B8
:201D80004111E1F759F4CD010190002049F04D9140154111C9F3FB014111EFCF81E090E0F6
:201DA00001970895AEE0B0E0E8EDFEE00C9426B80D891E8986E08C831A8309838FEF9FE7C0
:201DC0009E838D839E01275E3F4FCE0101966F89788DA9010E94F60E2F813885020F131FBD
:201DE000F80110822E96E4E00C9442B8ABE0B0E0ECEFFEE00C9418B83C012B015A01FC0131
:201E000017821682838181FD03C06FEF7FEFC6C19AE0892E1E010894211C311CF3012381EB
:201E2000F20123FD859123FF81912F01882309F4B2C1853239F423FD859123FF81912F017C
:201E4000853229F490E0B3010E94E910E7CF982FFF24EE249924FFE1FF15D0F09B3269F0A6
:201E60009C3228F4903259F0933291F40EC09D3249F0903369F441E024C052E0F52A84E073
:201E8000F82A28C098E0F92A25C0E0E1FE2A22C0F7FC29C0892F80538A3070F4F6FE05C0AF
:201EA000989C902C1124980E15C0E89CE02C1124E80EF0E2FF2A0EC09E3229F4F6FC6BC1F3
:201EC00040E4F42A07C09C3619F450E8F52A02C0983649F4F20123FD959123FF91912F0149
:201EE000992309F0B8CF892F8554833018F08052833038F444E050E0A40EB51E5FE35983B2
:201F00000FC0933631F0933779F0933509F056C020C0F5018081898342E050E0A40EB51E44
:201F2000610101E010E012C0F501C080D180F6FC03C06FEF7FEF02C0692D70E042E050E09A
:201F4000A40EB51EC6010E94DE108C015FE7F52214C0F501C080D180F6FC03C06FEF7FEFDF
:201F600002C0692D70E042E050E0A40EB51EC6010E94D3108C0150E8F52AF3FE07C01AC020
:201F800080E290E0B3010E94E910EA948E2D90E008171907A8F30EC0F601F7FC8591F7FEDA
:201FA00081916F0190E0B3010E94E910E110EA94015010400115110579F7EAC0943611F0BF
:201FC000993669F5F7FE08C0F501208131814281538184E090E00AC0F501808191819C01F3
:201FE000442737FD4095542F82E090E0A80EB91E9FE6F92257FF09C0509540953095219597
:202000003F4F4F4F5F4FE0E8FE2ACA01B901A1012AE030E00E941511D82ED21840C0953731
:2020200029F41F2D1F7E2AE030E01DC01F2D197F9F3661F0903720F4983509F0ACC00FC0BD
:20204000903739F0983709F0A6C004C028E030E00AC0106114FD146020E130E004C014FDE0
:20206000166020E132E017FF08C0F501608171818281938144E050E008C0F50180819181F4
:20208000BC0180E090E042E050E0A40EB51EA1010E941511D82ED2188FE7F82EF122F6FEDF
:2020A0000BC05EEFF522D91438F4F4FE07C0F2FC05C08FEEF82202C01D2D01C0192DF4FED0
:2020C0000DC0FE01ED0DF11D8081803319F499EEF92208C01F5FF2FE05C003C08F2D867851
:2020E00009F01F5F0F2DF3FC14C0F0FE0FC01E1510F09D2C0BC09D2C9E0C911A1E2D06C0B7
:2021000080E290E0B3010E94E9101F5F1E15C0F304C01E1510F4E11A01C0EE2404FF0FC09F
:2021200080E390E0B3010E94E91002FF1DC001FD03C088E790E00EC088E590E00BC0802FDA
:20214000867891F001FF02C08BE201C080E2F7FC8DE290E0B3010E94E91006C080E390E0F4
:20216000B3010E94E9109A94D914C0F3DA94F101ED0DF11D808190E0B3010E94E910DD201D
:20218000A9F706C080E290E0B3010E94E910EA94EE20C1F743CEF30166817781CB012B9603
:2021A000E2E10C9434B8FC010590615070400110D8F7809590958E0F9F1F0895FC0161501D
:2021C000704001900110D8F7809590958E0F9F1F08950F931F93CF93DF938C01EB018B81FF
:2021E00081FF1BC082FF0DC02E813F818C819D812817390764F4E881F9810193F983E88367
:2022000006C0E885F985802F0995892B31F48E819F8101969F838E8302C00FEF1FEFC80157
:20222000DF91CF911F910F910895FA01AA27283051F1203181F1E8946F936E7F6E5F7F4FB2
:202240008F4F9F4FAF4FB1E03ED0B4E03CD0670F781F891F9A1FA11D680F791F8A1F911DE3
:20226000A11D6A0F711D811D911DA11D20D009F468943F912AE0269F11243019305D319338
:20228000DEF6CF010895462F4770405D4193B3E00FD0C9F7F6CF462F4F70405D4A3318F013
:2022A000495D31FD4052419302D0A9F7EACFB4E0A6959795879577956795BA95C9F70097F4
:2022C0006105710508959B01AC010A2E06945795479537952795BA95C9F7620F731F841F65
:2022E000951FA01D0895CF93DF93FC01EC01E396DC0154968BE10D9009928150E1F7CF01B5
:20230000C19690AB87A7DF91CF910895FC01118212820895FC018281882311F081E08183BE
:202320000895FC018181811111820895CF93DF93FC0186A982508230A0F0EF01E396DF01E2
:20234000A05BBF4F8BE10D9009928150E1F7DF01A05BBF4FE359FF4F8BE101900D92815047
:20236000E1F7DF91CF9108950F931F938C010E94829B0E945F9BF801118280E091E00E94DD
:20238000B0538091D1078823B1F11092D1076091C404E62FF0E0EE0FFF1FE05FF04F808152
:2023A00091810E94FCA32091EE023091EF024091F0025091F1020E94D8B51816E4F46091BA
:2023C000C404062F10E080E090E00E941CA5000F111FF801E05FF04F91838083000F111FD1
:2023E000085E104F80E090E0A0E0B0E0F80180839183A283B3831F910F910895FC018AEA6F
:2024000093E0918380838581882321F0CF0102960E94228E0895CF92DF92EF92FF920F9393
:202420001F93DF93CF93CDB7DEB76D970FB6F894DEBF0FBECDBF8C016B01FC0186A98823E2
:2024400021F452E1E52EF12C03C041E3E42EF12CE00EF11E8AEA93E09A8389831E821B82A4
:20246000B7016E5F7F4FCE010396A60121E00E94D694882391F5E7EDF0E0949108C080911A
:20248000C00085FFFCCF9093C600319694919923B1F7EDEDF0E0949108C08091C00085FF08
:2024A000FCCF9093C600319694919923B1F709C08091C00085FFFCCF0894C11CD11C9093A6
:2024C000C600F6019081992399F78091C00085FFFCCF8AE08093C6001EC0D801A359BF4FBE
:2024E000F801E05BFF4F8BE101900D928150E1F7D801A05BBF4FF70132968BE101900D92D7
:202500008150E1F7D801D396FE0133968BE101900D928150E1F7CE0101960E94FE116D96A9
:202520000FB6F894DEBF0FBECDBFCF91DF911F910F91FF90EF90DF90CF900895EF92FF92A9
:202540000F931F937C018C0103551F4FC8010E94D48DC8010E94228EF70110821F910F9196
:20256000FF90EF9008950F931F93FC01148A178A2AEA33E0338B228B13AA16AA32AB21AB68
:20258000E05BFF4F1082339610823597318320837F961082339610823597318320837E9669
:2025A00089E18083339610827896108239961082339610823597318320837D96108211829C
:2025C0001282138238961082118212821382E05DF0401182128210828F0104531F4FD80162
:2025E0001D921D921D921C921397EC52FF4F81E08083E45DF040118A108A0E94F6AF6857DA
:202600007C4E8F4F9F4FF80160837183828393831F910F910895CF92DF92EF92FF920F93C6
:202620001F93CF93DF937C016B01DB010D900020E9F78D0101501040061B170BEDEAF0E099
:20264000EE0EFF1ED7011C92E3E5FFEFEE0EFF1ECB016EE470E00E94890EEC01009731F4BC
:20266000F8013197EC0DFD1D86010EC060E270E00E94890E8C010F5F1F4FCE016AE270E092
:202680000E94890EFC0131978DE081838AE082831382C70185559F4FB8010E94D8958DEAF8
:2026A00090E0E80EF91ED7018C91882319F1E2EFF0E0949108C08091C00085FFFCCF909322
:2026C000C600319694919923B1F7E9EFF0E0949108C08091C00085FFFCCF9093C60031967F
:2026E00094919923B1F78091C00085FFFCCF8AE08093C600DF91CF911F910F91FF90EF90C0
:20270000DF90CF900895CF93DF93EC018A81882309F43BC0E1E2F1E0949108C08091C0008D
:2027200085FFFCCF9093C600319694919923B1F7C053DF4F488159816A817B81C05DD04019
:2027400080E697E02AE030E00E949A72EFE1F1E0949108C08091C00085FFFCCF9093C6003D
:20276000319694919923B1F7C853DF4F488159816A817B8180E697E02AE030E00E949A7291
:202780008091C00085FFFCCF12C0EFE0F1E0949108C08091C00085FFFCCF9093C6003196EA
:2027A00094919923B1F78091C00085FFFCCF8AE08093C600DF91CF9108952F923F924F924D
:2027C0005F926F927F928F929F92AF92BF92CF92DF92EF92FF920F931F93DF93CF93CDB782
:2027E000DEB7AA970FB6F894DEBF0FBECDBF5C014B01FC018281882309F41CC1C5018355F0
:202800009F4F0E94228EF5011182188A1B8A8AEA93E09F878E87C501429690AB87A7F4018A
:2028200080818F3209F090C0C4016FE270E00E94890E7C010894E11CF11C3E010894611C73
:20284000711C7EE0272E312C2C0E3D1E60E1462E512C4C0E5D1E73C0C7016FE270E00E9401
:20286000890E6C01009709F477C0E816F90608F073C08C010E191F09C301B701A8010E94BE
:20288000A90E060D171DF8011082F30107C08091C00085FFFCCF31969093C6009081992357
:2028A000B1F78091C00085FFFCCFFAE0F093C600F50167A570A96115710519F460E070E089
:2028C00002C06E5F7F4FC201A30121E00E94D694882371F5EDE5F1E0949108C08091C000B5
:2028E00085FFFCCF9093C600319694919923B1F7FE01319607C08091C00085FFFCCF3196DC
:202900009093C60090819923B1F7EBE5F1E0949108C08091C00085FFFCCF9093C6003196FB
:2029200094919923B1F78091C00085FFFCCF7BC0F50130AA27A676010894E11CF11CE11404
:20294000F10409F089CF05C0C501C196F50190AB87A7D82C092D02C0DE2C0F2DF50187A58C
:2029600090A9009719F480E090E001C002966D2D702F0E94A895882339F1EDE4F1E094919D
:2029800008C08091C00085FFFCCF9093C600319694919923B1F78D2D902F9C01F90107C03F
:2029A0008091C00085FFFCCF31969093C60090819923B1F780ED90E0A80EB91EF5011082E0
:2029C00011821282138232C0E5E3F1E0949108C08091C00085FFFCCF9093C60031969491CE
:2029E0009923B1F78D2D902F9C01F90107C08091C00085FFFCCF31969093C60090819923FF
:202A0000B1F7E3E3F1E0949108C08091C00085FFFCCF9093C600319694919923B1F7809120
:202A2000C00085FFFCCF8AE08093C600CE010E960E94FE11AA960FB6F894DEBF0FBECDBF99
:202A4000CF91DF911F910F91FF90EF90DF90CF90BF90AF909F908F907F906F905F904F90C2
:202A60003F902F9008952F923F924F925F926F927F928F929F92AF92BF92CF92DF92EF927E
:202A8000FF920F931F93DF93CF93CDB7DEB7AB970FB6F894DEBF0FBECDBF5C014B014BA740
:202AA000FC018281882309F4D3C1FDEA4F2E512C4A0C5B1CC2010E94228EF5011182188AEC
:202AC0001B8A8AEA93E09F878E87C501429690AB87A7F40180818F3209F08FC0C4016FE213
:202AE00070E00E94890E7C010894E11CF11C3E010894611C711CE0E12E2E312C2C0E3D1E36
:202B000077C0C7016FE270E00E94890E6C01009709F47BC0E816F90608F077C08C010E19C0
:202B20001F09C301B701A8010E94A90E060D171DF8011082F30107C08091C00085FFFCCF42
:202B400031969093C60090819923B1F78091C00085FFFCCFFAE0F093C600F50167A570A9F2
:202B60006115710519F460E070E002C06E5F7F4FC101A30121E00E94D694882371F5E3ED1B
:202B8000F1E0949108C08091C00085FFFCCF9093C600319694919923B1F7FE01319607C091
:202BA0008091C00085FFFCCF31969093C60090819923B1F7E1EDF1E0949108C08091C00073
:202BC00085FFFCCF9093C600319694919923B1F78091C00085FFFCCF0BC18EE090E08C0F08
:202BE0009D1FF50190AB87A776010894E11CF11CE114F10409F085CF05C0C501C196F5018E
:202C000090AB87A7082DF92C01C00E2DF50167A570A9FBA5FF2309F4ABC06115710519F4B7
:202C200060E070E002C06E5F7F4FC201402F5F2D21E00E94D694882309F46AC08EEB90E021
:202C4000A80EB91EF50140815181628173818AE090E0A80EB91EF5014083518362837383B8
:202C600088E39FEFA80EB91EE4ECF1E0949108C08091C00085FFFCCF9093C600319694914B
:202C80009923B1F7802F9F2D9C01F90107C08091C00085FFFCCF31969093C600908199235A
:202CA000B1F7EDEBF1E0949108C08091C00085FFFCCF9093C600319694919923B1F780E617
:202CC00097E02AE030E00E949A728091C00085FFFCCF8AE08093C600E0EDF0E0AE0EBF1E1C
:202CE000F5011082118212821382EFEAF1E0949108C08091C00085FFFCCF9093C600319629
:202D000094919923B1F78091C00085FFFCCF95C0EBE9F1E0949108C08091C00085FFFCCF03
:202D20009093C600319694919923B1F7802F9F2D9C01F90107C08091C00085FFFCCF31969A
:202D40009093C60090819923B1F7E9E9F1E0949108C08091C00085FFFCCF9093C6003196B5
:202D600094919923B1F78091C00085FFFCCF40C06115710519F460E070E002C06E5F7F4FC4
:202D8000C201402F5F2D26E50E94D694882309F033C0E5E8F1E0949108C08091C00085FFE7
:202DA000FCCF9093C600319694919923B1F7802F9F2D9C01F90107C08091C00085FFFCCF16
:202DC00031969093C60090819923B1F7E3E8F1E0949108C08091C00085FFFCCF9093C6003C
:202DE000319694919923B1F78091C00085FFFCCF8AE08093C60028C081E0F5018083E1E716
:202E0000F1E0949108C08091C00085FFFCCF9093C600319694919923B1F7F40107C08091CE
:202E2000C00085FFFCCF31969093C60090819923B1F78091C00085FFFCCF8AE08093C600FB
:202E4000802F9F2D0E94D549CE010E960E94FE11AB960FB6F894DEBF0FBECDBFCF91DF91BB
:202E60001F910F91FF90EF90DF90CF90BF90AF909F908F907F906F905F904F903F902F90E0
:202E80000895EF92FF920F931F93CF93DF937C01FC0112828789882321F0C70144960E943D
:202EA000228E870108571F4FC80160E04FE10E94C88B882309F5E7EDF0E0949108C0809194
:202EC000C00085FFFCCF9093C600319694919923B1F7E5E1F2E0949108C08091C00085FFD0
:202EE000FCCF9093C600319694919923B1F78091C00085FFFCCF7DC0E701C357DF4FCE0172
:202F0000B80141E00E946D96882341F5CE01B80140E00E946D96882309F5E2EFF0E0949195
:202F200008C08091C00085FFFCCF9093C600319694919923B1F7E2E0F2E0949108C08091DE
:202F4000C00085FFFCCF9093C600319694919923B1F78091C00085FFFCCF4BC0C70144965C
:202F6000BE010E94C990882309F5E2EFF0E0949108C08091C00085FFFCCF9093C600319690
:202F800094919923B1F7E2EFF1E0949108C08091C00085FFFCCF9093C60031969491992368
:202FA000B1F78091C00085FFFCCF23C081E0F7018283E7EDF0E0949108C08091C00085FF22
:202FC000FCCF9093C600319694919923B1F7E7EEF1E0949108C08091C00085FFFCCF909317
:202FE000C600319694919923B1F78091C00085FFFCCF8AE08093C600D701D396F701749615
:203000008BE101900D928150E1F7C7014296F70190AB87A7DF91CF911F910F91FF90EF903C
:2030200008952F923F924F925F927F928F929F92AF92BF92CF92DF92EF92FF920F931F9362
:20304000DF93CF93CDB7DEB7CC55D0400FB6F894DEBF0FBECDBF6C01662311F524ED30E0EE
:20306000C20ED31ED6018C91ECE2FFEFCE0EDF1E882309F4E9C02CEC30E0C20ED31ED601F5
:20308000ED90FD900D911C91E4E3FFEFCE0EDF1E0E94F6AFE616F7060807190708F4D4C04E
:2030A00024ED30E0C20ED31ED6011C92ECE2FFEFCE0EDF1ED60112968C91882341F4C601D1
:2030C0000E944117F6018281882309F4BDC000D000D000D0EDB7FEB731968E010F5F1F4FDC
:2030E000ADB7BEB712961C930E9311978CE091E093838283D60150968D919C915197958357
:2031000084830E94D20EEE24FF24EDB7FEB736960FB6F894FEBF0FBEEDBF58010AC0D80149
:203120008C91992787FD90950E940DB8F80181938F01C701F50101900020E9F73197EA19EB
:20314000FB090894E11CF11C8E179F0744F314E1812E912C8C0C9D1CC40140E050E060E03C
:2031600070E00E940A8D7724BDE3AB2EB12CAC0EBD1E1E010894211C311CAFE14A2E512C76
:203180004C0E5D1E47C0D7018C9190E00E940DB8F70181937F01C801F50101900020E9F7AB
:2031A0003197EA19FB090F5F1F4F8E179F075CF327968FAD27978E3769F1C501B10145E057
:2031C00050E00E949B0E009729F500D000D000D0EDB7FEB73196ADB7BEB712965C924E92E0
:2031E000119725E131E033832283358224820E94D20E8DB79EB706960FB6F8949EBF0FBE26
:203200008DBFC2010E94B0538CE191E00E94B05377247394C401B5010E943F90181624F4A3
:20322000750100E010E0B7CF772041F48FEF9FEFD60151969C938E93509706C0F60180892F
:2032400091890196918B808BC45ADF4F0FB6F894DEBF0FBECDBFCF91DF911F910F91FF9054
:20326000EF90DF90CF90BF90AF909F908F907F905F904F903F902F9008952F923F924F92AA
:203280005F926F927F928F929F92AF92BF92CF92DF92EF92FF920F931F93DF93CF93CDB7B7
:2032A000DEB7C958D0400FB6F894DEBF0FBECDBF7C013B016A0182E090E0C80ED91EF70146
:2032C0003396CE57DF4FF983E883C258D040CC57DF4F1882C458D0408E010E591F4FC8017D
:2032E0000B96CB57DF4F99838883C558D04035ED832E912C8E0C9F1C27EDA22EB12CAE0C29
:20330000BF1C9EE0492E512C4C0E5D1E85E4282E312C2C0E3D1EF1013296C957DF4FF98356
:20332000E883C758D040E7EDF0E08491C757DF4F8883C958D0403FC1F8018385482F50E00A
:20334000BA01687170706031710509F03CC1F401208131812130310509F435C122303105B2
:2033600009F431C1F801DE0111969081903239F08E2F801B883011F48EE28D939D93319647
:20338000CB57DF4F88819981C558D040E817F90761F71C921E86F3018081882329F4C20164
:2033A00060E271E00E947E0EC201B3010E947E0EC201BE016F5F7F4F0E947E0EC20160E256
:2033C00071E00E947E0E1AA61DA68AEA93E099A788A7CE018A96B601AE014F5F5F4F21E0E3
:2033E0000E94D694882309F03FC0F40180819181892BD1F5C757DF4F9881C958D040E7ED32
:20340000F0E008C08091C00085FFFCCF9093C600319694919923B1F7E2E2F1E007C080914E
:20342000C00085FFFCCF31969093C60090819923B1F78091C00085FFFCCFFAE0F093C60015
:20344000FE01319607C08091C00085FFFCCF31969093C60090819923B1F78091C00085FF45
:20346000FCCF8AE08093C600C957DF4FA881B981C758D040FE01BA968BE101900D928150A2
:20348000E1F78AEA93E0F10191838083C701B201A1010E943D19C1010E94FE11CE018896EF
:2034A0000E94FE1188C0953E09F485C09E3209F482C09F3509F47FC043FD7DC080E0603171
:2034C000710509F481E0F7018787882349F4F8018085873409F06FC081858E3709F46BC056
:2034E000CE57DF4FA881B981C258D040F8018081803241F08E2F801B883011F48EE28D936A
:2035000080818D933196CB57DF4F88819981C558D040E817F90759F71C92F401808191811E
:20352000009729F5F30107C08091C00085FFFCCF31969093C60090819923B1F7CE57DF4F83
:20354000E881F981C258D04007C08091C00085FFFCCF31969093C60090819923B1F7809141
:20356000C00085FFFCCFFAE0F093C60024C08130910539F4F501808191810196918380830A
:203580001AC00297C1F4CC57DF4FF881C458D0402F2F30E0F5018081918128173907C1F066
:2035A000CC57DF4FF881C458D040FF5FCC57DF4FF883C458D040C601B8010E943F901816A0
:2035C0000CF4BACE05C0F8019081992309F06BCFC757DF4F0FB6F894DEBF0FBECDBFCF91B2
:2035E000DF911F910F91FF90EF90DF90CF90BF90AF909F908F907F906F905F904F903F90A8
:203600002F900895EF92FF920F931F93DF93CF93CDB7DEB76D970FB6F894DEBF0FBECDBFB0
:203620007C01C196D701D0969C938E939F97E5EDF0E0EE0EFF1E81E090E0D7018D939D933E
:203640007D011D921C92E9E2FFEFEE0EFF1EC701C39640E050E060E070E00E940A8DD701AB
:203660009F96ED91FC91D097DE01139632968BE101900D928150E1F78AEA93E09A838983FE
:20368000C70165E371E08E010F5F1F4FA8010E943D19C8010E94FE11F701E952FF4F8081C1
:2036A00091816D960FB6F894DEBF0FBECDBFCF91DF911F910F91FF90EF9008950F931F938F
:2036C000DF93CF93CDB7DEB76D970FB6F894DEBF0FBECDBF8C01C196D801D0969C938E933F
:2036E0009F970B521F4F82E090E0F80191838083055D1040F801E952FF4F60831182C80174
:20370000C39640E050E060E070E00E940A8DD8019F96ED91FC91D097DE01139632968BE1FB
:2037200001900D928150E1F78AEA93E09A838983C80165E371E08E010F5F1F4FA8010E9488
:203740003D19C8010E94FE116D960FB6F894DEBF0FBECDBFCF91DF911F910F910895EF9211
:20376000FF920F931F93DF93CF93CDB7DEB76D970FB6F894DEBF0FBECDBF7C0185ED90E0CD
:20378000E80EF91EF701118210828BE29FEFE80EF91E87010C5E1F4FC80140E050E060E03E
:2037A00070E00E940A8DDE011396F8018BE101900D928150E1F78AEA93E09A838983C701E2
:2037C00065E371E08E010F5F1F4FA8010E943D19C8010E94FE116D960FB6F894DEBF0FBE0C
:2037E000CDBFCF91DF911F910F91FF90EF900895DF93CF93CDB7DEB728970FB6F894DEBFD8
:203800000FBECDBF8091360190913701A0913801B091390189839A83AB83BC8380E090E063
:203820009E012F5F3F4FF901E80FF91FE081F999FECF1FBA8C599F4F92BD81BDE0BD0FB669
:20384000F894FA9AF99A0FBE835690408430910551F7E5E7F7E088E690E02191F999FECF1B
:203860001FBA92BD81BD20BD0FB6F894FA9AF99A0FBE019627E0E538F20779F7E5E6F7E0FA
:2038800088E790E02191F999FECF1FBA92BD81BD20BD0FB6F894FA9AF99A0FBE019627E012
:2038A000E537F20779F7E5E8F7E088E890E02191F999FECF1FBA92BD81BD20BD0FB6F8945A
:2038C000FA9AF99A0FBE019627E0E539F20779F7E9E9F7E088E990E02191F999FECF1FBA5B
:2038E00092BD81BD20BD0FB6F894FA9AF99A0FBE019627E0ED39F20779F7EDE9F7E08CE9CA
:2039000090E02191F999FECF1FBA92BD81BD20BD0FB6F894FA9AF99A0FBE019627E0E13AE5
:20392000F20779F7E5E9F7E080EA90E02191F999FECF1FBA92BD81BD20BD0FB6F894FA9A66
:20394000F99A0FBE019627E0E939F20779F7EDEAF7E084EA90E02191F999FECF1FBA92BD19
:2039600081BD20BD0FB6F894FA9AF99A0FBE019627E0E13BF20779F7E1E6F7E088EA90E044
:203980002191F999FECF1FBA92BD81BD20BD0FB6F894FA9AF99A0FBE019627E0E536F207DC
:2039A00079F7E1EAF7E08CEA90E02191F999FECF1FBA92BD81BD20BD0FB6F894FA9AF99A43
:2039C0000FBE019627E0E53AF20779F7E5EAF7E080EB90E02191F999FECF1FBA92BD81BDFC
:2039E00020BD0FB6F894FA9AF99A0FBE019627E0E93AF20779F7E9EAF7E084EB90E0219140
:203A0000F999FECF1FBA92BD81BD20BD0FB6F894FA9AF99A0FBE019627E0ED3AF20779F791
:203A2000EBEFF2E088EB90E02191F999FECF1FBA92BD81BD20BD0FB6F894FA9AF99A0FBE5E
:203A4000019622E0EF3FF20779F7EFEFF2E08CEB90E02191F999FECF1FBA92BD81BD20BD4B
:203A60000FB6F894FA9AF99A0FBE019623E0E330F20779F7E3E0F3E080EC90E02191F99935
:203A8000FECF1FBA92BD81BD20BD0FB6F894FA9AF99A0FBE019623E0E730F20779F78091A6
:203AA0003A0190913B01A0913C01B0913D018D839E83AF83B88780E090E09E012B5F3F4F58
:203AC000F901E80FF91FE081F999FECF1FBA8C599F4F92BD81BDE0BD0FB6F894FA9AF99ACF
:203AE0000FBE835690408430910551F7EBE0F3E0949108C08091C00085FFFCCF9093C6002A
:203B0000319694919923B1F7E1E1F3E0949108C08091C00085FFFCCF9093C60031969491DE
:203B20009923B1F78091C00085FFFCCF8AE08093C60028960FB6F894DEBF0FBECDBFCF9159
:203B4000DF9108958091C6040895FC012491A5ECB2E004C02D930196FC012491222321F0E8
:203B6000F2E0A93DBF07B1F71C9208950F931F93FC0160817181828193810E9439B48B017E
:203B80009C01CB0164E670E00E94AFB7CB016AE070E00E94AFB7805D8093EE04C8016AE0B7
:203BA00070E00E94AFB7CB016AE070E00E94AFB7805D8093EF04C8016AE070E00E94AFB7F1
:203BC000805D8093F0041092F1048EEE94E01F910F910895FC012081822F90E06AE070E034
:203BE0000E94AFB7CB016AE070E00E94AFB7805D8093EE04822F90E06AE070E00E94AFB7AA
:203C0000805D8093EF041092F0048EEE94E00895FC01608171818281938120E030E048EC73
:203C200052E40E94AAB60E9439B49B0177FF02C08DE201C08BE28093EE0437FF03C0309589
:203C400021953F4FC90164E670E00E94AFB7CB016AE070E00E94AFB7805D8093EF048EE2F3
:203C60008093F004C9016AE070E00E94AFB7CB016AE070E00E94AFB7805D8093F104C901B4
:203C80006AE070E00E94AFB7805D8093F2041092F4048EEE94E00895FC018081918164E61B
:203CA00070E00E94AFB7CB016AE070E00E94AFB7805D8093EE04808191816AE070E00E940D
:203CC000AFB7CB016AE070E00E94AFB7805D8093EF04808191816AE070E00E94AFB7805D9B
:203CE0008093F0041092F1048EEE94E00895FC018081918168EE73E00E94AFB7CB016AE0C2
:203D000070E00E94AFB7805D8093EE048081918164E670E00E94AFB7CB016AE070E00E94AC
:203D2000AFB7805D8093EF04808191816AE070E00E94AFB7CB016AE070E00E94AFB7805D3A
:203D40008093F004808191816AE070E00E94AFB7805D8093F1041092F2048EEE94E008959D
:203D6000FC01608171818281938120E030E040E251E40E94AAB60E9439B49B0177FF02C090
:203D80008DE201C08BE28093EE0437FF03C0309521953F4FC90160E177E20E94AFB7CB0147
:203DA0006AE070E00E94AFB7805D8093EF04C90168EE73E00E94AFB7CB016AE070E00E94FB
:203DC000AFB7805D8093F004C90164E670E00E94AFB7CB016AE070E00E94AFB7805D8093CF
:203DE000F104C9016AE070E00E94AFB7CB016AE070E00E94AFB7805D8093F2048EE280938B
:203E0000F304C9016AE070E00E94AFB7805D8093F4041092F5048EEE94E00895FC01608151
:203E200071818281938120E030E048EC52E40E94AAB60E9439B49B0177FF02C08DE201C06A
:203E40008BE28093EE0437FF03C0309521953F4FC90160E177E20E94AFB7CB016AE070E01C
:203E60000E94AFB7805D8093EF04C90168EE73E00E94AFB7CB016AE070E00E94AFB7805D91
:203E80008093F004C90164E670E00E94AFB7CB016AE070E00E94AFB7805D8093F1048EE2EC
:203EA0008093F204C9016AE070E00E94AFB7CB016AE070E00E94AFB7805D8093F304C9016E
:203EC0006AE070E00E94AFB7805D8093F4041092F5048EEE94E00895CF92EF920F938130FB
:203EE000910521F56F5F7F4F09F06DC086EC93E00E94B3128EEC94E064E041E12EE10DE1B7
:203F00005CE1E52E3BE1C32E0E9479AF1092E3041092E2041092E4041092E10481E08093E4
:203F2000E5041092EC041092ED044DC0892B09F04AC06F5F7F4F09F046C08AEA93E090930A
:203F400072048093710480917604882321F083E794E00E94228E8AEA93E090933204809399
:203F6000310480913604882321F083E394E00E94228E8AEA93E0909315048093140480917A
:203F80001904882321F086E194E00E94228E8AEA93E09093F8038093F7038091FC0388234E
:203FA00021F089EF93E00E94228E8AEA93E09093D9038093D8038091DD03882321F08AEDBB
:203FC00093E00E94228E0F91EF90CF90089580E090E06FEF7FEF0E946C1F089581E090E0CA
:203FE0006FEF7FEF0E946C1F08950F93DF93CF9300D000D0CDB7DEB709B106950695009577
:2040000001704B9B02602091F6043091F7044091F8045091F90429833A834B835C830E941D
:20402000F6AF29813A814B815C81261737074807590710F4309B04600093C7042091C70496
:2040400021708091C70481FD2260422F552747FD50958091CC049091CD044817590709F44E
:2040600041C02130D9F022301CF4222331F03AC0223049F02330B1F50BC08130910589F054
:20408000029781F51CC0009761F0039759F517C08230910531F0019729F511C08330910555
:2040A00061F48091C8049091C904A091CA04B091CB040196A11DB11D0DC0892B99F480918F
:2040C000C8049091C904A091CA04B091CB040197A109B1098093C8049093C904A093CA044B
:2040E000B093CB045093CD044093CC040F900F900F900F90CF91DF910F9108950E94F6AF87
:2041000060931605709317058093180590931905E0913F05F0914005EF5BFA4F8081882347
:20412000A9F4E2E9F7E0949108C08091C00085FFFCCF9093C600319694919923B1F78091E9
:20414000C00085FFFCCF8AE08093C6000895CF93DF93EC01FC01649109C08EEC94E040E0E6
:2041600050E00E94DCB22196FE0164916623A9F7DF91CF9108953F924F925F926F927F92E9
:204180008F929F92AF92BF92CF92DF92EF92FF920F931F93CF93DF93EC018C85882361F035
:2041A0000E94BD77882399F48091C703882379F481E08C831C860BC00E94BD77882321F48B
:2041C0008091C703882319F081E08C838C879A858985981719F48C81882331F081E08C839B
:2041E0008EEC94E00E94BBAEE98400E010E0CE2CDD24C7FCD094B2E04B2E512CE2E2F2E049
:204200006490E9E2F2E07490AAE03A2EF4E08F2E912CE5E0AE2EB12CF3C04130C1F1423003
:204220001CF4442341F0C8C0423009F462C0433009F0C2C08AC08C81882351F08EEC94E09E
:2042400060E0402F0E948CAE83E992E00E94A7208881992787FD90952F2D30E0821793077B
:2042600009F0CCC08091C70482FFC8C00E94F6AF6C507E4F8F4F9F4F6093F6047093F7044D
:204280008093F8049093F9041A821982B7C08C81882381F08EEC94E060E0402F0E948CAE9F
:2042A0008C85882319F488E892E002C08DE792E00E94A7208881992787FD90952F2D30E064
:2042C0008217930709F09AC08091C70482FF96C00E94F6AF6C507E4F8F4F9F4F6093F6041C
:2042E0007093F7048093F8049093F9045A82498285C08C81882351F08EEC94E060E0402F0F
:204300000E948CAE82E792E00E94A7208881992787FD90952F2D30E08217930709F06EC045
:204320008091C70482FF6AC00E94F6AF6C507E4F8F4F9F4F6093F6047093F7048093F80460
:204340009093F9049A82898259C08C81882389F08EEC94E060E0402F0E948CAE8091C70378
:20436000882319F082E692E002C082E592E00E94A7208881992787FD90952F2D30E0821734
:20438000930709F03BC08091C70482FF37C086EC93E00E94B4110E94F6AF6C507E4F8F4F41
:2043A0009F4F6093F6047093F7048093F8049093F904BA82A98222C0962DE2E2F2E008C08B
:2043C0008091C00085FFFCCF9093C600319694919923B1F7972DE9E2F2E008C08091C0008A
:2043E00085FFFCCF9093C600319694919923B1F78091C00085FFFCCF3092C6000F5F1F4FB1
:20440000F02E402F4E0D5985852F992787FD9095039698012C0D3D1D821793070CF0FDCEFA
:204420008B85882309F096C05A87E090C804F090C9040091CA041091CB041C828D819E816E
:20444000AF81B885A8019701281B390B4A0B5B0BDA01C9010496A11DB11D0997A105B105A5
:2044600008F078C08EEC94E060E048810E948CAE8EEC94E060E240E050E00E94DCB217FF73
:2044800007C089858150898787FF5EC019865CC035E1E316F104010511055CF089858F5F9F
:2044A000898718160CF419867FE0E72EF12C012D112DE092C804F092C9040093CA04109391
:2044C000CB048091C8049091C904A091CA04B091CB048D839E83AF83B887C801B70125E00B
:2044E00030E040E050E00E94E4B7288327FD18828881843014F083E088838881843014F0C6
:2045000083E088839A858985981711F081E08C838EEC94E060E048810E948CAE2985332705
:2045200027FD30958881992787FD9095280F391F232B11F463E001C06EE38EEC94E040E0DB
:2045400050E00E94DCB206C064E0E62EF12C012D112DAFCFDF91CF911F910F91FF90EF90A8
:20456000DF90CF90BF90AF909F908F907F906F905F904F903F900895CF93DF93CBE0D3E017
:20458000FE01949108C08091C00085FFFCCF9093C600319694919923B1F7E9EBF4E0949109
:2045A00008C08091C00085FFFCCF9093C600319694919923B1F78091C00085FFFCCF8AE050
:2045C0008093C600FE019491EBE0F3E008C08091C00085FFFCCF9093C600319694919923C7
:2045E000B1F7E1EBF4E0949108C08091C00085FFFCCF9093C600319694919923B1F740915C
:20460000750750917607609177077091780780E697E022E030E00E94C973EEEAF4E0949133
:2046200008C08091C00085FFFCCF9093C600319694919923B1F74091790750917A076091B5
:204640007B0770917C0780E697E022E030E00E94C973EBEAF4E0949108C08091C00085FF9C
:20466000FCCF9093C600319694919923B1F740917D0750917E0760917F077091800780E616
:2046800097E022E030E00E94C973E8EAF4E0949108C08091C00085FFFCCF9093C600319650
:2046A00094919923B1F74091810750918207609183077091840780E697E022E030E00E9416
:2046C000C973EEE3F1E007C08091C00085FFFCCF31969093C60090819923B1F78091C0001F
:2046E00085FFFCCF8AE08093C600FE019491EBE0F3E008C08091C00085FFFCCF9093C60095
:20470000319694919923B1F7EEE8F4E0949108C08091C00085FFFCCF9093C60031969491BD
:204720009923B1F78091C00085FFFCCF8AE08093C600FE019491EBE0F3E008C08091C00057
:2047400085FFFCCF9093C600319694919923B1F7E5E8F4E0949108C08091C00085FFFCCF23
:204760009093C600319694919923B1F74091650750916607609167077091680780E697E0C9
:2047800022E030E00E94C973E2E8F4E0949108C08091C00085FFFCCF9093C60031969491A9
:2047A0009923B1F74091690750916A0760916B0770916C0780E697E022E030E00E94C9735E
:2047C000EFE7F4E0949108C08091C00085FFFCCF9093C600319694919923B1F740916D07A4
:2047E00050916E0760916F077091700780E697E022E030E00E94C973ECE7F4E0949108C023
:204800008091C00085FFFCCF9093C600319694919923B1F740917107509172076091730731
:204820007091740780E697E022E030E00E94C973EEE3F1E007C08091C00085FFFCCF3196DF
:204840009093C60090819923B1F78091C00085FFFCCF8AE08093C600FE019491EBE0F3E0D5
:2048600008C08091C00085FFFCCF9093C600319694919923B1F7EEE5F4E0949108C0809172
:20488000C00085FFFCCF9093C600319694919923B1F78091C00085FFFCCF8AE08093C6006D
:2048A000FE019491EBE0F3E008C08091C00085FFFCCF9093C600319694919923B1F7E5E54B
:2048C000F4E0949108C08091C00085FFFCCF9093C600319694919923B1F740918507509180
:2048E0008607609187077091880780E697E02AE030E00E949A72E2E5F4E0949108C08091DE
:20490000C00085FFFCCF9093C600319694919923B1F74091890750918A0760918B077091F8
:204920008C0780E697E02AE030E00E949A72EFE4F4E0949108C08091C00085FFFCCF909368
:20494000C600319694919923B1F740918D0750918E0760918F077091900780E697E02AE060
:2049600030E00E949A72ECE4F4E0949108C08091C00085FFFCCF9093C60031969491992337
:20498000B1F74091910750919207609193077091940780E697E02AE030E00E949A72EEE3EF
:2049A000F1E007C08091C00085FFFCCF31969093C60090819923B1F78091C00085FFFCCFFA
:2049C0008AE08093C600FE019491EBE0F3E008C08091C00085FFFCCF9093C6003196949115
:2049E0009923B1F7E7E1F4E0949108C08091C00085FFFCCF9093C600319694919923B1F771
:204A00008091C00085FFFCCF8AE08093C600FE019491EBE0F3E008C08091C00085FFFCCF89
:204A20009093C600319694919923B1F7EEE0F4E0949108C08091C00085FFFCCF9093C600A5
:204A4000319694919923B1F74091990750919A0760919B0770919C0780E697E022E030E0ED
:204A60000E94C973EBE0F4E0949108C08091C00085FFFCCF9093C600319694919923B1F773
:204A800040919D0750919E0760919F077091A00780E697E022E030E00E94C973EEE3F1E06D
:204AA00007C08091C00085FFFCCF31969093C60090819923B1F78091C00085FFFCCF8AE060
:204AC0008093C600FE019491EBE0F3E008C08091C00085FFFCCF9093C600319694919923C2
:204AE000B1F7E2E7F3E0949108C08091C00085FFFCCF9093C600319694919923B1F780911B
:204B0000C00085FFFCCF8AE08093C600FE019491EBE0F3E008C08091C00085FFFCCF909376
:204B2000C600319694919923B1F7E9E6F3E0949108C08091C00085FFFCCF9093C600319600
:204B400094919923B1F74091950750919607609197077091980780E697E022E030E00E9421
:204B6000C973E6E6F3E0949108C08091C00085FFFCCF9093C600319694919923B1F7409143
:204B8000AD075091AE076091AF077091B00780E697E022E030E00E94C973E3E6F3E09491DE
:204BA00008C08091C00085FFFCCF9093C600319694919923B1F74091610750916207609160
:204BC00063077091640780E697E02AE030E00E949A72E0E6F3E0949108C08091C00085FF7F
:204BE000FCCF9093C600319694919923B1F74091A1075091A2076091A3077091A40780E601
:204C000097E022E030E00E94C973EDE5F3E0949108C08091C00085FFFCCF9093C6003196CB
:204C200094919923B1F74091A5075091A6076091A7077091A80780E697E022E030E00E9400
:204C4000C973EAE5F3E0949108C08091C00085FFFCCF9093C600319694919923B1F740915F
:204C6000A9075091AA076091AB077091AC0780E697E022E030E00E94C973EEE3F1E007C065
:204C80008091C00085FFFCCF31969093C60090819923B1F78091C00085FFFCCF8AE0809332
:204CA000C600FE019491EBE0F3E008C08091C00085FFFCCF9093C600319694919923B1F74B
:204CC000ECE4F3E0949108C08091C00085FFFCCF9093C600319694919923B1F78091C0001A
:204CE00085FFFCCF8AE08093C600FE019491EBE0F3E008C08091C00085FFFCCF9093C6008F
:204D0000319694919923B1F7E2E4F3E0949108C08091C00085FFFCCF9093C60031969491C8
:204D20009923B1F74091FB025091FC026091FD027091FE0280E697E022E030E00E94C973A4
:204D4000EFE3F3E0949108C08091C00085FFFCCF9093C600319694919923B1F76091FF0276
:204D60007091000380910103909102032DEB37E346E05EE30E94D1B3AB01BC0180E697E0EF
:204D800022E030E00E94C973ECE3F3E0949108C08091C00085FFFCCF9093C600319694919F
:204DA0009923B1F7609103037091040380910503909106032DEB37E346E05EE30E94AAB6B2
:204DC000AB01BC0180E697E022E030E00E94C973EEE3F1E007C08091C00085FFFCCF31964D
:204DE0009093C60090819923B1F78091C00085FFFCCF8AE08093C600DF91CF910895DF9313
:204E0000CF93CDB7DEB7E8970FB6F894DEBF0FBECDBF682F80913A0190913B01A0913C01A3
:204E2000B0913D018D839E83AF83B887FE01319624E630E0AE014C5F5F4FF999FECF32BD1B
:204E400021BDF89A80B580832F5F3F4FE417F50711F03196F2CF662309F037C1CE0105962A
:204E6000BE016F5F7F4F43E050E00E949B0E009709F02BC1E5E7F7E028E630E0F999FECF9D
:204E800032BD21BDF89A80B580832F5F3F4F87E0E438F80711F03196F1CFE5E6F7E028E7A4
:204EA00030E0F999FECF32BD21BDF89A80B580832F5F3F4F87E0E437F80711F03196F1CFC7
:204EC000E5E8F7E028E830E0F999FECF32BD21BDF89A80B580832F5F3F4F87E0E439F80779
:204EE00011F03196F1CFE9E9F7E028E930E0F999FECF32BD21BDF89A80B580832F5F3F4F4E
:204F000087E0EC39F80711F03196F1CFEDE9F7E02CE930E0F999FECF32BD21BDF89A80B5B9
:204F200080832F5F3F4F87E0E03AF80711F03196F1CFE5E9F7E020EA30E0F999FECF32BD3D
:204F400021BDF89A80B580832F5F3F4F87E0E839F80711F03196F1CFEDEAF7E024EA30E0B2
:204F6000F999FECF32BD21BDF89A80B580832F5F3F4F87E0E03BF80711F03196F1CFE1E64F
:204F8000F7E028EA30E0F999FECF32BD21BDF89A80B580832F5F3F4F87E0E436F80711F085
:204FA0003196F1CFE1EAF7E02CEA30E0F999FECF32BD21BDF89A80B580832F5F3F4F87E029
:204FC000E43AF80711F03196F1CFE5EAF7E020EB30E0F999FECF32BD21BDF89A80B5808375
:204FE0002F5F3F4F87E0E83AF80711F03196F1CFE9EAF7E024EB30E0F999FECF32BD21BD90
:20500000F89A80B580832F5F3F4F87E0EC3AF80711F03196F1CFEBEFF2E028EB30E0F99935
:20502000FECF32BD21BDF89A80B580832F5F3F4F82E0EE3FF80711F03196F1CFEFEFF2E02A
:205040002CEB30E0F999FECF32BD21BDF89A80B580832F5F3F4F83E0E230F80711F03196DB
:20506000F1CFE3E0F3E020EC30E0F999FECF32BD21BDF89A80B580832F5F3F4F83E0E63033
:20508000F80711F03196F1CFEBE0F3E0949108C08091C00085FFFCCF9093C6003196949109
:2050A0009923B1F7E1E2F3E0949108C08091C00085FFFCCF9093C600319694919923B1F7B0
:2050C0008091C00085FFFCCF22C1DE011996E0E3F3E080E101900D928150E1F7DE015996A1
:2050E000E0E2F3E080E101900D928150E1F7DE019996E0E1F3E080E101900D928150E1F705
:2051000089859A85AB85BC858093750790937607A0937707B0937807898D9A8DAB8DBC8D91
:205120008093650790936607A0936707B093680789A59AA5ABA5BCA58093850790938607A0
:20514000A0938707B09388078D859E85AF85B8898093790790937A07A0937B07B0937C0760
:205160008D8D9E8DAF8DB8A18093690790936A07A0936B07B0936C078DA59EA5AFA5B8A9B9
:205180008093890790938A07A0938B07B0938C0789899A89AB89BC8980937D0790937E0730
:2051A000A0937F07B093800789A19AA1ABA1BCA180936D0790936E07A0936F07B0937007DC
:2051C00089A99AA9ABA9BCA980938D0790938E07A0938F07B09390078D899E89AF89B88DE5
:2051E0008093810790938207A0938307B09384078DA19EA1AFA1B8A580937107909372079C
:20520000A0937307B09374078DA99EA9AFA9B8AD8093910790939207A0939307B0939407D7
:2052200080E090E0AAE7B4E48093990790939A07A0939B07B0939C0780939D0790939E07C4
:20524000A0939F07B093A00720E030E040E050E02093950730939607409397075093980789
:2052600080E29EE4A0E0B0E08093610790936207A0936307B09364072093AD073093AE0709
:205280004093AF075093B00780E090E0A0E7B1E48093A1079093A207A093A307B093A407AD
:2052A0008DEC9CECACECBEE38093A5079093A607A093A707B093A80780E090E0A0EAB0E464
:2052C0008093A9079093AA07A093AB07B093AC07EBE0F3E0949108C08091C00085FFFCCFB1
:2052E0009093C600319694919923B1F7EFE3F1E007C08091C00085FFFCCF31969093C6003B
:2053000090819923B1F78091C00085FFFCCF8AE08093C6000E94BC22E8960FB6F894DEBFC9
:205320000FBECDBFCF91DF9108956F927F928F929F92AF92BF92CF92DF92EF92FF920F932B
:205340001F93CF93DF93EC019A858985981719F48C81882331F081E08C838EEC94E00E9418
:20536000BBAEE98400E010E0CE2CDD24C7FCD09427E0622E712C91E0892E912C86E0A82E10
:20538000B12C1DC1423009F46AC0433034F4442371F0413009F011C136C0443009F4B7C03C
:2053A00044300CF488C0453009F007C1DBC08C81882351F08EEC94E060E0402F0E948CAEEE
:2053C0008CEF92E00E94A7208881992787FD90952F2D30E08217930709F0EFC08091C704E2
:2053E00082FFEBC00E94F6AF6C507E4F8F4F9F4F6093F6047093F7048093F8049093F904CB
:205400009A828982DAC08C81882351F08EEC94E060E0402F0E948CAE8DEE92E00E94A72003
:205420008881992787FD90952F2D30E08217930709F0C3C08091C70482FFBFC00E94F6AFBC
:205440006C507E4F8F4F9F4F6093F6047093F7048093F8049093F904BA82A982AEC08C81FB
:20546000882351F08EEC94E060E0402F0E948CAE8EED92E00E94A7208881992787FD9095FF
:205480002F2D30E08217930709F097C08091C70482FF93C00E94F6AF6C507E4F8F4F9F4FD1
:2054A0006093F6047093F7048093F8049093F9047A82698282C08C81882351F08EEC94E0C2
:2054C00060E0402F0E948CAE80ED92E00E94A7208881992787FD90952F2D30E082179307E8
:2054E00009F06BC08091C70482FF67C00E94F6AF6C507E4F8F4F9F4F6093F6047093F7047D
:205500008093F8049093F9040E94F81B56C08C81882351F08EEC94E060E0402F0E948CAE1F
:2055200083EC92E00E94A7208881992787FD90952F2D30E08217930709F03FC08091C7043C
:2055400082FF3BC00E94F6AF6C507E4F8F4F9F4F6093F6047093F7048093F8049093F90419
:2055600080E029C08C81882351F08EEC94E060E0402F0E948CAE81EB92E00E94A720888120
:20558000992787FD90952F2D30E082179307A9F48091C70482FF11C00E94F6AF6C507E4F68
:2055A0008F4F9F4F6093F6047093F7048093F8049093F90481E00E94FF260F5F1F4FF02EE3
:2055C000402F4E0D5985852F992787FD9095039698012C0D3D1D821793070CF0D3CE8B8561
:2055E000882309F097C05A87E090C804F090C9040091CA041091CB041C828D819E81AF817C
:20560000B885A8019701281B390B4A0B5B0BDA01C9010496A11DB11D0997A105B10508F00B
:2056200079C08EEC94E060E048810E948CAE8EEC94E060E240E050E00E94DCB217FF07C0D1
:2056400089858150898787FF5FC019865DC035E1E316F1040105110564F089858F5F89877A
:20566000833014F082E089870FE0E02EF12C012D112DE092C804F092C9040093CA041093EA
:20568000CB048091C8049091C904A091CA04B091CB048D839E83AF83B887C801B70125E039
:2056A00030E040E050E00E94E4B7288327FD18828881843014F083E088838881863014F0F2
:2056C00085E088839A858985981711F081E08C838EEC94E060E048810E948CAE2985332732
:2056E00027FD30958881992787FD9095280F391F232B11F463E001C06EE38EEC94E040E00A
:2057000050E00E94DCB206C014E0E12EF12C012D112DAFCFDF91CF911F910F91FF90EF902B
:20572000DF90CF90BF90AF909F908F907F906F9008952F923F924F925F926F927F928F927D
:205740009F92AF92BF92CF92DF92EF92FF920F931F93DF93CF93CDB7DEB7E2970FB6F89497
:20576000DEBF0FBECDBF4C01FC0192858185981719F48481882339F081E0F40184838EEC60
:2057800094E00E94BBAEF4012185822F992787FD9095AC01440F551F440F551F4F59584F4B
:2057A00058AB4FA71C01220C331C220C331CE9E5F7E02E0E3F1E422E662477249AAB89AB8D
:2057C0000C944536F8E04F1609F4F6C2F415ACF022E0421609F44BC1241544F0442049F1A9
:2057E00031E0431611F00C94373658C0F4018481F6E0F4150CF006C2A1C32EE0421609F4B5
:2058000038C624153CF0F4018481FCE0F4150CF055C44AC520E1421611F40C943534421663
:205820000CF425C731E1431611F00C9437360C943335F4018481882351F08EEC94E060E0E7
:20584000462D0E948CAE82E695E00E94A720F4018081992787FD9095252D30E082179307BF
:2058600011F00C9437368091C70482FD02C00C9437360E94F6AF6C507E4F8F4F9F4F609361
:20588000F6047093F7048093F8049093F90484E090E0F401928381830C943736F4018481F8
:2058A000882379F18EEC94E060E0462D0E948CAE8CE595E00E94A7208EEC94E06DE0462D59
:2058C0000E948CAE6091990770919A0780919B0790919C0720E030E048EC52E40E94D1B3A2
:2058E0000E9439B47A836983CE0101960E944C1EBC018EEC94E00E9404B289E595E00E9436
:20590000A720F4018081992787FD9095252D30E08217930711F00C9437368091C70482FF61
:2059200057C0838591E0892783878823C9F06091990770919A0780919B0790919C070E946D
:2059400039B424E630E040E050E00E94E4B72093C8043093C9044093CA045093CB042AC067
:205960006091C8047091C9048091CA049091CB0424E630E040E050E00E947CB70E946CB4CC
:205980006093990770939A0780939B0790939C07F401808125E08202C0011124AA2797FD7B
:2059A000A095BA2F8093C8049093C904A093CA04B093CB040E94F6AF6C507E4F8F4F9F4F4B
:2059C0006093F6047093F7048093F8049093F904F4018385882311F40C9437368091C80416
:2059E0009091C904A091CA04B091CB040597A105B10564F485E090E0A0E0B0E08093C80496
:205A00009093C904A093CA04B093CB048091C8049091C904A091CA04B091CB048F5D9340EA
:205A2000A040B04064F08EED93E0A0E0B0E08093C8049093C904A093CA04B093CB048EECE8
:205A400094E06DE0452D0E948CAE8091C8049091C9049C838B83CE0103960E944C1EBC010E
:205A60008EEC94E00E9404B286E595E01AC4F4018481882329F18EEC94E060E0462D0E9420
:205A80008CAE8AE495E00E94A7208EEC94E06DE0462D0E948CAE6091A1077091A2078091A2
:205AA000A3079091A4070E9439B47E836D83CE0105960E944C1EBC018EEC94E00E9404B277
:205AC000F4018081992787FD9095252D30E08217930711F00C9437368091C70482FF4BC05C
:205AE000838591E089278387882399F06091A1077091A2078091A3079091A4070E9439B4E6
:205B00006093C8047093C9048093CA049093CB0424C06091C8047091C9048091CA049091B4
:205B2000CB040E946CB46093A1077093A2078093A3079093A407F401808125E08202C001C2
:205B40001124AA2797FDA095BA2F8093C8049093C904A093CA04B093CB040E94F6AF6C50A8
:205B60007E4F8F4F9F4F6093F6047093F7048093F8049093F904F4018385882311F40C9425
:205B800037368091C8049091C904A091CA04B091CB04181619061A061B0664F081E090E00B
:205BA000A0E0B0E08093C8049093C904A093CA04B093CB048091C8049091C904A091CA0429
:205BC000B091CB048F5D9340A040B04064F08EED93E0A0E0B0E08093C8049093C904A093D2
:205BE000CA04B093CB048EEC94E06DE0452D0E948CAE8091C8049091C90498878F83CE0171
:205C00000796D7C08823D9F18EEC94E060E0462D0E948CAE83E495E00E94A72023E04216BE
:205C200019F480E495E011C034E0431619F48DE395E00BC045E0441619F48AE395E005C050
:205C400056E0451621F487E395E00E94A7208EEC94E06DE0452D0E948CAEF1016081718108
:205C6000828193810E9439B47A876987CE0109960E944C1EBC018EEC94E00E9404B2F4011B
:205C80008081992787FD9095252D30E08217930711F00C9437368091C70482FF45C083858D
:205CA00091E089278387882381F0F10160817181828193810E9439B46093C8047093C904A3
:205CC0008093CA049093CB0421C06091C8047091C9048091CA049091CB040E946CB4F10102
:205CE0006083718382839383F401808125E08202C0011124AA2797FDA095BA2F8093C804DB
:205D00009093C904A093CA04B093CB040E94F6AF6C507E4F8F4F9F4F6093F6047093F704F9
:205D20008093F8049093F904F4018385882309F49EC78091C8049091C904A091CA04B0911F
:205D4000CB04181619061A061B0664F081E090E0A0E0B0E08093C8049093C904A093CA04E1
:205D6000B093CB048091C8049091C904A091CA04B091CB048F5D9340A040B04064F08EEDD9
:205D800093E0A0E0B0E08093C8049093C904A093CA04B093CB048EEC94E06DE0452D0E944F
:205DA0008CAE8091C8049091C9049C878B87CE010B960E944C1E56C7F4018481882329F151
:205DC0008EEC94E060E0462D0E948CAE80E395E00E94A7208EEC94E06DE0462D0E948CAE7B
:205DE000609195077091960780919707909198070E9439B47E876D87CE010D960E944C1E03
:205E0000BC018EEC94E00E9404B2F4018081992787FD9095252D30E08217930709F027C7A4
:205E20008091C70482FF4BC0838591E089278387882399F0609195077091960780919707B9
:205E4000909198070E9439B46093C8047093C9048093CA049093CB0424C06091C8047091EF
:205E6000C9048091CA049091CB040E946CB460939507709396078093970790939807F4012D
:205E8000808125E08202C0011124AA2797FDA095BA2F8093C8049093C904A093CA04B093EC
:205EA000CB040E94F6AF6C507E4F8F4F9F4F6093F6047093F7048093F8049093F904F40168
:205EC0008385882309F4D3C68091C8049091C904A091CA04B091CB04B7FF08C01092C804B3
:205EE0001092C9041092CA041092CB048091C8049091C904A091CA04B091CB048F5D9340B9
:205F0000A040B04064F08EED93E0A0E0B0E08093C8049093C904A093CA04B093CB048EEC03
:205F200094E06DE0452D0E948CAE8091C8049091C904988B8F87CE010F963BCF882329F10B
:205F40008EEC94E060E0462D0E948CAE84E295E00E94A7208EEC94E06DE0462D0E948CAEF6
:205F60006091AD077091AE078091AF079091B0070E9439B47A8B698BCE0141960E944C1EED
:205F8000BC018EEC94E00E9404B2F4018081992787FD9095252D30E08217930709F067C6E4
:205FA0008091C70482FF4BC0838591E089278387882399F06091AD077091AE078091AF07F0
:205FC0009091B0070E9439B46093C8047093C9048093CA049093CB0424C06091C804709156
:205FE000C9048091CA049091CB040E946CB46093AD077093AE078093AF079093B007F4014C
:20600000808125E08202C0011124AA2797FDA095BA2F8093C8049093C904A093CA04B0936A
:20602000CB040E94F6AF6C507E4F8F4F9F4F6093F6047093F7048093F8049093F904F401E6
:206040008385882309F413C68091C8049091C904A091CA04B091CB04B7FF08C01092C804F1
:206060001092C9041092CA041092CB048091C8049091C904A091CA04B091CB048F5D934037
:20608000A040B04064F08EED93E0A0E0B0E08093C8049093C904A093CA04B093CB048EEC82
:2060A00094E06DE0452D0E948CAE8091C8049091C9049C8B8B8BCE0143967BCE882309F430
:2060C00044C08EEC94E060E0462D0E948CAE8DE195E00E94A72029E0421619F48AE195E0A5
:2060E00011C03AE0431619F487E195E00BC04BE0441619F484E195E005C05CE0451621F4CA
:2061000081E195E00E94A7208EEC94E06DE0452D0E948CAEEFA5F8A9608171818281938197
:2061200024E630E040E050E00E94C2B73E8B2D8BCE0145960E944C1EBC018EEC94E00E9456
:2061400004B28EE095E00E94A720F4018081992787FD9095252D30E08217930709F087C504
:206160008091C70482FF4FC0838591E0892783878823A9F0EFA5F8A960817181828193811D
:2061800024E630E040E050E00E94E4B72093C8043093C9044093CA045093CB0426C060911F
:2061A000C8047091C9048091CA049091CB0424E630E040E050E00E947CB7EFA5F8A960831F
:2061C000718382839383F401808125E08202C0011124AA2797FDA095BA2F8093C8049093B6
:2061E000C904A093CA04B093CB040E94F6AF6C507E4F8F4F9F4F6093F6047093F704809325
:20620000F8049093F904F4018385882309F42FC58091C8049091C904A091CA04B091CB04EF
:20622000181619061A061B0664F081E090E0A0E0B0E08093C8049093C904A093CA04B09388
:20624000CB048091C8049091C904A091CA04B091CB048F5D9340A040B04064F08EED93E0C4
:20626000A0E0B0E08093C8049093C904A093CA04B093CB048EEC94E06DE0452D0E948CAEA3
:206280008091C8049091C904988F8F8BCE0147960E944C1EBC018EEC94E00E9404B28BE0CC
:2062A00095E00E94A720E3C4882379F18EEC94E060E0462D0E948CAE8FEF94E00E94A7206C
:2062C0008EEC94E06DE0462D0E948CAE60919D0770919E0780919F079091A00720E030E06A
:2062E00048EC52E40E94D1B36B8F7C8F8D8F9E8FCE014B960E94B61DBC018EEC94E00E944E
:2063000004B28CEF94E00E94A720F4018081992787FD9095252D30E08217930709F0A7C417
:206320008091C70482FF57C0838591E0892783878823C9F060919D0770919E0780919F0760
:206340009091A0070E9439B424E630E040E050E00E94E4B72093C8043093C9044093CA048F
:206360005093CB042AC06091C8047091C9048091CA049091CB0424E630E040E050E00E941B
:206380007CB70E946CB460939D0770939E0780939F079093A007F401808125E08202C00106
:2063A0001124AA2797FDA095BA2F8093C8049093C904A093CA04B093CB040E94F6AF6C5040
:2063C0007E4F8F4F9F4F6093F6047093F7048093F8049093F904F4018385882309F447C45A
:2063E0008091C8049091C904A091CA04B091CB040A97A105B10564F48AE090E0A0E0B0E084
:206400008093C8049093C904A093CA04B093CB048091C8049091C904A091CA04B091CB04C0
:206420008F5D9340A040B04064F08EED93E0A0E0B0E08093C8049093C904A093CA04B09368
:20644000CB048EEC94E06DE0452D0E948CAE8091C8049091C9049A8F898FCE0149960E9488
:206460004C1EBC018EEC94E00E9404B289EF94E018CFF40184818823C9F08EEC94E060E050
:20648000462D0E948CAE8DEE94E00E94A7208EEC94E06BE0462D0E948CAE85E797E00E9448
:2064A0000E1FBC018EEC94E00E9404B2F4018081992787FD9095252D30E08217930709F0BF
:2064C000D6C38091C70482FF7FC0838591E0892783878823C9F060917507709176078091F4
:2064E00077079091780720E030E048EC52E40E94AAB60E9439B46093C8047093C9048093D1
:20650000CA049093CB0452C06091C1077091C2078091C3079091C4070E946CB45B016C01D4
:206520006091C8047091C9048091CA049091CB040E946CB420E030E048EC52E40E94D1B39F
:206540007B018C01209175073091760740917707509178070E94D1B39B01AC01C601B5012C
:206560000E94AAB60E947AB66093C1077093C2078093C3079093C407E0927507F092760708
:206580000093770710937807F401808125E08202C0011124AA2797FDA095BA2F8093C804F1
:2065A0009093C904A093CA04B093CB040E94F6AF6C507E4F8F4F9F4F6093F6047093F70451
:2065C0008093F8049093F904F4018385882309F44EC38091C8049091C904A091CA04B091CB
:2065E000CB040597A105B10564F485E090E0A0E0B0E08093C8049093C904A093CA04B09384
:20660000CB048091C8049091C904A091CA04B091CB0480549244AF40B04064F08FE392E40C
:20662000AFE0B0E08093C8049093C904A093CA04B093CB048EEC94E06BE0452D0E948CAED2
:206640006091C8047091C9048091CA049091CB040E946CB420E030E048EC52E40E94D1B37E
:206660006F8F78A389A39AA3CE014F96F9C2F40184818823C9F08EEC94E060E0462D0E9488
:206680008CAE81EE94E00E94A7208EEC94E06BE0462D0E948CAE89E797E00E940E1FBC0179
:2066A0008EEC94E00E9404B2F4018081992787FD9095252D30E08217930709F0D8C28091FC
:2066C000C70482FF7FC0838591E0892783878823C9F06091790770917A0780917B079091F1
:2066E0007C0720E030E048EC52E40E94AAB60E9439B46093C8047093C9048093CA04909379
:20670000CB0452C06091C5077091C6078091C7079091C8070E946CB45B016C016091C804F6
:206720007091C9048091CA049091CB040E946CB420E030E048EC52E40E94D1B37B018C0151
:206740002091790730917A0740917B0750917C070E94D1B39B01AC01C601B5010E94AAB621
:206760000E947AB66093C5077093C6078093C7079093C807E0927907F0927A0700937B07DB
:2067800010937C07F401808125E08202C0011124AA2797FDA095BA2F8093C8049093C9040C
:2067A000A093CA04B093CB040E94F6AF6C507E4F8F4F9F4F6093F6047093F7048093F80430
:2067C0009093F904F4018385882309F450C28091C8049091C904A091CA04B091CB0405976C
:2067E000A105B10564F485E090E0A0E0B0E08093C8049093C904A093CA04B093CB0480910D
:20680000C8049091C904A091CA04B091CB0480549244AF40B04064F08FE392E4AFE0B0E0CB
:206820008093C8049093C904A093CA04B093CB048EEC94E06BE0452D0E948CAE6091C80432
:206840007091C9048091CA049091CB040E946CB420E030E048EC52E40E94D1B36BA37CA30C
:206860008DA39EA3CE018396FBC1F40184818823C9F08EEC94E060E0462D0E948CAE85EDB6
:2068800094E00E94A7208EEC94E06BE0462D0E948CAE8DE797E00E940E1FBC018EEC94E02E
:2068A0000E9404B2F4018081992787FD9095252D30E08217930709F0DAC18091C70482FF9B
:2068C0007FC0838591E0892783878823C9F060917D0770917E0780917F079091800720E0A8
:2068E00030E048EC52E40E94AAB60E9439B46093C8047093C9048093CA049093CB0452C019
:206900006091C9077091CA078091CB079091CC070E946CB45B016C016091C8047091C904F7
:206920008091CA049091CB040E946CB420E030E048EC52E40E94D1B37B018C0120917D07E8
