:200000000C94EA080C9412090C9412090C9412090C9412090C9412090C9412090C94120931
:200020000C9412090C9412090C9412090C9412090C9412090C948C490C9412090C9412092E
:200040000C9412090C9401530C94E5590C9412090C9461300C9412090C9412090C941209F6
:200060000C9412090C9412090C9412090C9412090C9412090C9412090C941209084AD73BFF
:200080003BCE016E84BCBFFDC12F3D6C74319ABD56833DDA3D00C77F11BED9E4BB4C3E9182
:2000A0006BAAAABE000000803F05A84CCDB2D44EB93836A9020C50B9918688083CA6AAAAA6
:2000C0002ABE000000803F6563686F3A004572726F723A005072696E7465722073746F7092
:2000E0007065642064756520746F206572726F72732E2046697820746865206572726F7289
:2001000020616E6420757365204D39393920746F2072657374617274212E202854656D70B2
:20012000657261747572652069732072657365742E20536574206974206265666F7265205E
:2001400072657374617274696E6729005072696E7465722068616C7465642E206B696C6CC3
:2001600028292063616C6C6564202121006F6B00526573656E643A002200556E6B6E6F772E
:200180006E20636F6D6D616E643A22007A5F6D696E3A2000795F6D696E3A2000785F6D69FC
:2001A0006E3A20005A3A00593A0020436F756E7420583A00453A005A3A00593A00583A003D
:2001C0004649524D574152455F4E414D453A4D61726C696E2056313B20537072696E7465BE
:2001E000722F6772626C206D617368757020666F722067656E36204649524D574152455F36
:2002000055524C3A687474703A2F2F7777772E66757475726173686F702E69742050524F59
:20022000544F434F4C5F56455253494F4E3A312E30204D414348494E455F545950453A33CC
:2002400044726167206279204761627269656C6520446167686574746120455854525544AC
:2002600045525F434F554E543A310A0020423A0020453A00543A0020573A0020453A00541D
:200280003A0020403A00202F0020423A00202F006F6B20543A0000000000000000000000C8
:2002A0000000000000000000000000000000000048430000484300005C43000048430000FE
:2002C000484300005C430000A0400000A0400000803FFFFFFF53657474696E677320537440
:2002E0006F7265640053746F7265642073657474696E6773207265747265697665643A002E
:200300002044002049002020204D3330312050005049442073657474696E67733A00205A3D
:200320000020590020204D323036205800486F6D65206F666673657420286D6D293A0020D2
:200340004500205A0020580020420020540020204D323035205300416476616E63656420C3
:200360007661726961626C65733A20533D4D696E20666565647261746520286D6D2F732969
:200380002C20543D4D696E2074726176656C20666565647261746520286D6D2F73292C2015
:2003A000423D6D696E696D756D207365676D656E742074696D6520286D73292C20583D6D41
:2003C0006178696D756D207859206A65726B20286D6D2F73292C20205A3D6D6178696D754E
:2003E0006D205A206A65726B20286D6D2F73290020540020204D32303420530041636365E7
:200400006C65726174696F6E3A20533D616363656C65726174696F6E2C20543D7265747210
:2004200061637420616363656C65726174696F6E00204500205A0020590020204D32303102
:200440002058004D6178696D756D20416363656C65726174696F6E20286D6D2F7332293A03
:2004600000204500205A0020590020204D3230332058004D6178696D756D20666565647286
:200480006174657320286D6D2F73293A00204500205A0020590020204D39322058005374F9
:2004A0006570732070657220756E69743A005072696E7465722073746F7070656420647577
:2004C0006520746F206572726F72732E2046697820746865206572726F7220616E642075EF
:2004E0007365204D39393920746F2072657374617274212E202854656D7065726174757224
:20050000652069732072657365742E20536574206974206265666F7265207265737461727C
:2005200074696E6729006F6B004E6F204C696E65204E756D626572207769746820636865EC
:20054000636B73756D2C204C617374204C696E653A004E6F20436865636B73756D207769A6
:200560007468206C696E65206E756D6265722C204C617374204C696E653A00636865636B6E
:2005800073756D206D69736D617463682C204C617374204C696E653A004C696E65204E7563
:2005A0006D626572206973206E6F74204C617374204C696E65204E756D6265722B312C209B
:2005C0004C617374204C696E653A002020506C616E6E657242756666657242797465733AFA
:2005E00020002046726565204D656D6F72793A2000426F7269735F334472616700207C207B
:20060000417574686F723A2000323031322D31302D303200204C61737420557064617465F4
:20062000643A2000312E302E30004D61726C696E200020536F667477617265205265736572
:200640007400205761746368646F67205265736574002042726F776E206F757420526573C8
:200660006574002045787465726E616C20526573657400506F77657255700073746172741B
:20068000002200656E717565696E672022006563686F3A0020746F6F206C6F6E6720657882
:2006A00074727573696F6E2070726576656E7465640020636F6C6420657874727573696FD4
:2006C0006E2070726576656E7465640024F404D9201BC40C5C0E9804C4095F0265077101AD
:2006E000F405F900FB04B30048048700C10369005803550003034500BE023A0084023100AA
:2007000053022A002902250004022000E4011C00C8011900AF0117009801140084011300F5
:20072000710110006101100051010E0043010D0036010B002B010B0020010B001501090050
:200740000C01090003010800FB000800F3000800EB000700E4000600DE000600D8000600DB
:20076000D2000600CC000500C7000500C2000500BD000400B9000400B5000400B100040051
:20078000AD000400A9000400A5000300A20003009F0004009B00030098000300950002003B
:2007A00093000300900003008D0002008B00030088000200860002008400030081000200D7
:2007C0007F0002007D0002007B000200790002007700010076000200740002007200010048
:2007E000710002006F0002006D0001006C0002006A00010069000200670001006600010094
:2008000065000100640002006200010061000100600001005F0002005D0001005C000100CA
:200820005B0001005A000100590001005800010057000100560001005500010054000100F4
:2008400053000000530001005200010051000100500001004F0001004E0000004E0001000E
:200860004D0001004C0001004B0000004B0001004A00010049000100480000004800010020
:2008800047000100460000004600010045000000450001004400010043000000430001002C
:2008A00042000000420001004100000041000100400001003F0000003F0001003E00000032
:2008C0003E0001003D0000003D0001003C0000003C0000003C0001003B0000003B00010032
:2008E0003A0000003A00010039000000390001003800000038000000380001003700000030
:20090000370001003600000036000000360001003500000035000000350001003400000028
:2009200034000000340001003300000033000000330001003200000032000000320001001D
:200940003100000031000000310001003000000030000000300001002F0000002F00000014
:200960002F0000002F0001002E0000002E0000002E0001002D0000002D0000002D00000006
:200980002D0001002C0000002C0000002C0000002C0001002B0000002B0000002B000000F7
:2009A0002B0001002A0000002A0000002A0000002A000100290000002900000029000000E7
:2009C0002900000029000100280000002800000028000000280000002800010027000000D4
:2009E0002700000027000000270000002700010026000000260000002600000026000000C2
:200A00002600010025000000250000002500000025000000250000002500010024000000AC
:200A2000240000002400000024000000240001002300000023000000230000002300000099
:200A4000230000002300000023000100220000002200000022000000220000002200000082
:200A600022000100210000002100000021000000210000002100000021000000210001006B
:200A8000200000002000000020000000200000002000000020000000200000002000010055
:200AA0001F0000001F0000001F0000001F0000001F0000001F0000001F0001001E0000003E
:200AC0001E0000001E0000001E00000024F4D43050C38E20C2A24017828B7011127A910D6C
:200AE000816CD90AA861E108C7586607615143061E4B5D05C145A7041A411104093D9803E0
:200B0000713931034036DB0265339102D4305402802E1D02632CEE01752AC501B028A001F6
:200B2000102781018F2564012B244B01E0223401AC211F018D200D01801FFC00841EED003F
:200B4000971DDF00B81CD200E61BC600201BBC00641AB200B219A8000A19A0006A1899001D
:200B6000D117910040178B00B516840031167E00B31579003A157300C7146F0058146A00E3
:200B8000EE1366008813630025135E00C7125B006C12570015125400C111510070114F00E3
:200BA00021114B00D61049008D1047004610440002104200C00F4000800F3E00420F3C004E
:200BC000060F3B00CB0E3800930E37005C0E3500270E3400F30D3200C10D3100900D3000D6
:200BE000600D2E00320D2D00050D2C00D90C2B00AE0C2900850C29005C0C2700350C27000C
:200C00000E0C2600E80B2400C40B2400A00B23007D0B23005A0B2100390B2100180B2000E3
:200C2000F80A1F00D90A1E00BB0A1E009D0A1D00800A1D00630A1C00470A1B002C0A1B00FE
:200C4000110A1A00F7091A00DD091900C4091900AB091900920917007B09180063091700C2
:200C60004C09160036091600200916000A091500F5081500E0081400CC081400B808140083
:200C8000A4081400900813007D0812006B0813005808120046081200340811002308110071
:200CA0001208110001081100F0071000E0071000D0071000C0071000B0070F00A1071000B5
:200CC00091070E0083070F0074070F0065070E0057070E0049070E003B070D002E070E0075
:200CE00020070D0013070D0006070D00F9060C00ED060D00E0060C00D4060C00C8060C00C2
:200D0000BC060C00B0060C00A4060B0099060C008D060B0082060B0077060B006C060B00AD
:200D200061060A0057060B004C060A0042060A0038060A002E060A0024060A001A060A0048
:200D40001006090007060A00FD050900F4050900EB050900E2050900D9050900D0050900A2
:200D6000C7050900BE050900B5050800AD050800A50509009C050800940508008C050800C0
:200D8000840508007C050800740508006C050700650508005D050700560508004E050700A8
:200DA000470507004005080038050700310507002A050700230507001C0506001605070064
:200DC0000F0507000805060002050700FB040600F5040700EE040600E8040600E2040700FB
:200DE000DB040600D5040600CF040600C9040600C3040600BD040600B7040600B104050074
:200E0000AC040600A6040600A00405009B04060095040500900406008A04050085040500C5
:200E2000800406007A04050075040500700405006B04050066040500610405005C040500FC
:200E400057040500520405004D04050048040500430405003E0404003A040500350405001D
:200E6000300404002C04050027040400230405001E0404001A04040016040500110404002A
:200E80000D040400090405000404040000040400FC030400F8030400F4030400F003040023
:200EA000EC030400E8030400E4030400E0030400DC030400D8030400D4030400D00304000A
:200EC000CC030400C8030300C50303006563686F3A00205A3A0020593A0020583A00656EE1
:200EE0006473746F7073206869743A20004572726F723A0054656D706572617475726520A4
:200F000068656174656420626564207377697463686564206F66662E204D415854454D50DB
:200F200020747269676765726564202121003A2045787472756465722073776974636865AE
:200F400064206F66662E204D494E54454D50207472696767657265642021003A20457874C1
:200F60007275646572207377697463686564206F66662E204D415854454D50207472696739
:200F80006765726564202100202D20496E76616C6964206578747275646572206E756D6270
:200FA0006572202100202D20496E76616C6964206578747275646572206E756D6265722188
:200FC00000504944204175746F74756E652066696E6973686564202120506C61636520747B
:200FE0006865204B702C204B6920616E64204B6420636F6E7374616E747320696E20746837
:201000006520636F6E66696775726174696F6E2E6800504944204175746F74756E65206665
:2010200061696C6564212074696D656F75740020403A006F6B20543A005049442041757420
:201040006F74756E65206661696C6564212054656D706572617475726520746F20686967B6
:201060006800204B643A2000204B693A2000204B703A200020436C617369632050494420F0
:20108000002054753A2000204B753A2000206D61783A2000206D696E3A200020643A200077
:2010A00020626961733A20001000C90210012C014001220170011801B0010E01F00104015A
:2010C0005002FA00B002F0003003E600D003DC009004D2007005C800A006BE000008B40097
:2010E000B009AA00D00BA000600E960060118C000015820020197800C01D6E00A022640058
:20110000B0275A00902C500000314600E0343C0010383200903A2800603C1E00A03D1400B4
:20112000803E0A00203F0000002124272A002225282B0020232629020202020202020204B2
:20114000040404040404040303030303030303010101010101010101020408102040800153
:20116000020408102040800102040810204080804020100804020100000001020000000070
:201180000000000403070600000000000000000000000000000000494E46494E4954594E83
:2011A000414ECDCCCC3D0AD7233C17B7D13877CC2B329595E6241FB14F0A00002041000089
:2011C000C84200401C4620BCBE4CCA1B0E5AAEC59D74F13011241FBECFEFD0E1DEBFCDBFE1
:2011E00012E0A0E0B1E0E2E1F2EC02C005900D92A63CB107D9F71BE0A6ECB2E001C01D925C
:20120000A435B107E1F711E1C4EDD1E104C02297FE010E94C160C23DD107C9F70E94A95B94
:201220000C9407610C940000A0E0B0E0EAE1F9E00C94D660EC015B016115710519F0FB0142
:2012400091838083F9908F2D90E00E94C560892BC9F7FDE2FF1621F4F990EE24E39405C0A7
:201260002BE2F21609F4F990EE248E0101501040C80167E971E143E050E00E94A30B892BCF
:2012800001F58E010E5F1F4FC8016AE971E145E050E00E94A30B892B19F48E01095F1F4FB5
:2012A000A114B10419F0F50111830083E0FC04C070E090E080E814C070E090E080E86FEF8C
:2012C00008C1C8016FE971E143E050E00E94A30B892B69F4A114B10429F470E090E080EC6B
:2012E0006FE7F7C02296F501D183C083F6CF8824992440E050E060E070E0EF2DE053EA3025
:20130000A0F5F2E0EF2A8E2D90E09C0128703070E2FE06C0232B79F50894811C911C2BC01A
:20132000232B19F0089481089108DB01CA0112E0880F991FAA1FBB1F1A95D1F7480F591FC7
:201340006A1F7B1F440F551F661F771F4E0F511D611D711D483929E9520729E9620729E140
:20136000720748F084E0E82A06C0EE3F31F4E3FC39C098E0E92AF990C0CFE53311F0E53184
:2013800089F529912D3219F4E0E1EE2A05C02B3219F081E090E003C0299182E090E0E22F74
:2013A000E053EA3018F0C81BD90B1CC020E030E0FCE020383F075CF4C901880F991F880FAB
:2013C000991F280F391F220F331F2E0F311DE991E053EA3068F3E4FE03C0309521953F4FE8
:2013E000820E931ECE2CDD24E1FE07C0A114B10421F02197F501D183C083CB01BA010E9422
:201400002A5D7B018C01F3E0CF22DD2423E0C216D10421F417FB109517F910955701680185
:20142000C801B70120E030E040E050E00E948A5C882309F44AC097FE0DC026EBE22E21E10C
:20144000F22E9094819491089394C0E2D0E000E010E012C09EECE92E91E1F92EF6CFF70188
:201460002591359145915491C601B5010E946A5F5B016C018C1A9D0A8C169D0684F7D5950D
:20148000C7950F5F1F4F0630110529F08CEF9FEFE80EF91EF1CFC501D6017C018D018C2D78
:2014A000880F8D2D881F8F3F51F0C601B50120E030E040E050E00E948A5C882331F482E28C
:2014C00090E09093530B8093520B7E2D9F2D802F612F272F392F482F562FB901CA01CDB732
:2014E000DEB7ECE00C94F2602F923F925F926F927F928F929F92AF92BF92CF92DF92EF92CD
:20150000FF920F931F93CF93DF938C011B01EA016115710519F0FB0191838083209749F086
:20152000CE010297839728F020E030E040E050E0F6C0F801A1908F018A2D90E00E94C56053
:20154000892BB9F7FDE2AF1631F4F801A1908F015524539407C0FBE2AF1619F4F801A190A4
:201560008F015524209719F0C031D105C1F4F0E3AF1679F4F8018081883711F0883549F46D
:20158000F801A1800E5F1F4FF2E05F2AC0E1D0E006C0209721F480E3A816E9F427C0C8303B
:2015A000D10531F1C930D10524F4C230D10531F50CC0CA30D10589F0C031D105F9F4C12CA8
:2015C000D12CE12CB8E0FB2E28C0C12CD12CE12CA0E4FA2E22C0CAE0D0E0FCECCF2EFCECAC
:2015E000DF2EFCECEF2EFCE0FF2E17C0C8E0D0E0C12CD12CE12CE0E1FE2E0FC09E014427E4
:2016000037FD4095542F60E070E080E090E80E946E60C901DA016C017D0120E030E040E0A6
:2016200050E060E03E01882477FC8094982C70EDB72EBA0CE9E0EB1570F48A2D81548A3188
:2016400018F499ECB92E06C08A2D81568A3150F589EAB82EBA0C8B2D90E08C179D0714F527
:201660006F3FE1F0C216D306E406F506B0F0CA01B901A40193010E943C609B01AC012B0D38
:20168000311D411D511D2130F0E03F07F0E04F07F0E85F0710F461E001C06FEFF801A190D7
:2016A0008F01C5CF2114310481F0662331F001501040F1011183008308C051FE1AC0025094
:2016C0001040F1011183008314C067FF12C050FC05C02FEF3FEF4FEF5FE704C020E030E0F0
:2016E00040E050E882E290E09093530B8093520B16C050FE08C050954095309521953F4F1E
:201700004F4F5F4F0CC057FF0AC082E290E09093530B8093520B2FEF3FEF4FEF5FE7B90142
:20172000CA01DF91CF911F910F91FF90EF90DF90CF90BF90AF909F908F907F906F905F9009
:201740003F902F900895FB01DC014150504088F08D9181341CF08B350CF4805E65916134E4
:201760001CF06B350CF4605E861B611171F3990B0895881BFCCFFC018191861721F0882371
:20178000D9F7992708953197CF010895FB01DC014150504030F08D910190801919F4002058
:2017A000B9F7881B990B0895FB0151915523A9F0BF01DC014D9145174111E1F759F4CD018A
:2017C0000190002049F04D9140154111C9F3FB014111EFCF81E090E001970895AEE0B0E0AE
:2017E000E4EFFBE00C94DE600D891E8986E08C831A8309838FEF9FE79E838D839E01275E29
:201800003F4FCE0101966F89788DA9010E94120C2F813885020F131FF80110822E96E4E0AA
:201820000C94FA60ABE0B0E0E8E1FCE00C94D0603C012B015A01FC0117821682838181FDAA
:2018400003C06FEF7FEFC6C19AE0892E1E010894211C311CF3012381F20123FD859123FF19
:2018600081912F01882309F4B2C1853239F423FD859123FF81912F01853229F490E0B30195
:201880000E94050EE7CF982FFF24EE249924FFE1FF15D0F09B3269F09C3228F4903259F055
:2018A000933291F40EC09D3249F0903369F441E024C052E0F52A84E0F82A28C098E0F92A89
:2018C00025C0E0E1FE2A22C0F7FC29C0892F80538A3070F4F6FE05C0989C902C1124980E4F
:2018E00015C0E89CE02C1124E80EF0E2FF2A0EC09E3229F4F6FC6BC140E4F42A07C09C36A9
:2019000019F450E8F52A02C0983649F4F20123FD959123FF91912F01992309F0B8CF892FF5
:201920008554833018F08052833038F444E050E0A40EB51E5FE359830FC0933631F09337E8
:2019400079F0933509F056C020C0F5018081898342E050E0A40EB51E610101E010E012C088
:20196000F501C080D180F6FC03C06FEF7FEF02C0692D70E042E050E0A40EB51EC6010E9477
:20198000FA0D8C015FE7F52214C0F501C080D180F6FC03C06FEF7FEF02C0692D70E042E0B0
:2019A00050E0A40EB51EC6010E94EF0D8C0150E8F52AF3FE07C01AC080E290E0B3010E946F
:2019C000050EEA948E2D90E008171907A8F30EC0F601F7FC8591F7FE81916F0190E0B30108
:2019E0000E94050EE110EA94015010400115110579F7EAC0943611F0993669F5F7FE08C027
:201A0000F501208131814281538184E090E00AC0F501808191819C01442737FD4095542FAB
:201A200082E090E0A80EB91E9FE6F92257FF09C050954095309521953F4F4F4F5F4FE0E8B1
:201A4000FE2ACA01B901A1012AE030E00E94310ED82ED21840C0953729F41F2D1F7E2AE070
:201A600030E01DC01F2D197F9F3661F0903720F4983509F0ACC00FC0903739F0983709F0DB
:201A8000A6C004C028E030E00AC0106114FD146020E130E004C014FD166020E132E017FFBF
:201AA00008C0F501608171818281938144E050E008C0F50180819181BC0180E090E042E0AA
:201AC00050E0A40EB51EA1010E94310ED82ED2188FE7F82EF122F6FE0BC05EEFF522D9141F
:201AE00038F4F4FE07C0F2FC05C08FEEF82202C01D2D01C0192DF4FE0DC0FE01ED0DF11DDE
:201B00008081803319F499EEF92208C01F5FF2FE05C003C08F2D867809F01F5F0F2DF3FC48
:201B200014C0F0FE0FC01E1510F09D2C0BC09D2C9E0C911A1E2D06C080E290E0B3010E94F6
:201B4000050E1F5F1E15C0F304C01E1510F4E11A01C0EE2404FF0FC080E390E0B3010E944A
:201B6000050E02FF1DC001FD03C088E790E00EC088E590E00BC0802F867891F001FF02C06E
:201B80008BE201C080E2F7FC8DE290E0B3010E94050E06C080E390E0B3010E94050E9A944A
:201BA000D914C0F3DA94F101ED0DF11D808190E0B3010E94050EDD20A9F706C080E290E00E
:201BC000B3010E94050EEA94EE20C1F743CEF30166817781CB012B96E2E10C94EC60FC013B
:201BE0000590615070400110D8F7809590958E0F9F1F0895FC016150704001900110D8F70E
:201C0000809590958E0F9F1F08950F931F93CF93DF938C01EB018B8181FF1BC082FF0DC03C
:201C20002E813F818C819D812817390764F4E881F9810193F983E88306C0E885F985802F75
:201C40000995892B31F48E819F8101969F838E8302C00FEF1FEFC801DF91CF911F910F915D
:201C60000895FA01AA27283051F1203181F1E8946F936E7F6E5F7F4F8F4F9F4FAF4FB1E03D
:201C80003ED0B4E03CD0670F781F891F9A1FA11D680F791F8A1F911DA11D6A0F711D811DA1
:201CA000911DA11D20D009F468943F912AE0269F11243019305D3193DEF6CF010895462FAB
:201CC0004770405D4193B3E00FD0C9F7F6CF462F4F70405D4A3318F0495D31FD4052419355
:201CE00002D0A9F7EACFB4E0A6959795879577956795BA95C9F700976105710508959B01DF
:201D0000AC010A2E06945795479537952795BA95C9F7620F731F841F951FA01D0895DF93BF
:201D2000CF93CDB7DEB728970FB6F894DEBF0FBECDBF8091000190910101A0910201B09178
:201D4000030189839A83AB83BC8380E090E09E012F5F3F4FF901E80FF91FE081F999FECF95
:201D60001FBA8C599F4F92BD81BDE0BD0FB6F894FA9AF99A0FBE835690408430910551F70D
:201D8000EFE6F5E088E690E02191F999FECF1FBA92BD81BD20BD0FB6F894FA9AF99A0FBE22
:201DA000019625E0EF37F20779F7EFE5F5E088E790E02191F999FECF1FBA92BD81BD20BD1C
:201DC0000FB6F894FA9AF99A0FBE019625E0EF36F20779F7EFE7F5E088E890E02191F999C5
:201DE000FECF1FBA92BD81BD20BD0FB6F894FA9AF99A0FBE019625E0EF38F20779F7E3E996
:201E0000F5E088E990E02191F999FECF1FBA92BD81BD20BD0FB6F894FA9AF99A0FBE0196DC
:201E200025E0E739F20779F7E7E9F5E08CE990E02191F999FECF1FBA92BD81BD20BD0FB671
:201E4000F894FA9AF99A0FBE019625E0EB39F20779F7EFE8F5E080EA90E02191F999FECF42
:201E60001FBA92BD81BD20BD0FB6F894FA9AF99A0FBE019625E0E339F20779F7E7EAF5E013
:201E800084EA90E02191F999FECF1FBA92BD81BD20BD0FB6F894FA9AF99A0FBE019625E02F
:201EA000EB3AF20779F7EBE5F5E088EA90E02191F999FECF1FBA92BD81BD20BD0FB6F89468
:201EC000FA9AF99A0FBE019625E0EF35F20779F7EBE9F5E08CEA90E02191F999FECF1FBA6C
:201EE00092BD81BD20BD0FB6F894FA9AF99A0FBE019625E0EF39F20779F7EFE9F5E080EBEE
:201F000090E02191F999FECF1FBA92BD81BD20BD0FB6F894FA9AF99A0FBE019625E0E33AFF
:201F2000F20779F7E3EAF5E084EB90E02191F999FECF1FBA92BD81BD20BD0FB6F894FA9A7E
:201F4000F99A0FBE019625E0E73AF20779F7E9EEF2E088EB90E02191F999FECF1FBA92BD36
:201F600081BD20BD0FB6F894FA9AF99A0FBE019622E0E53FF20779F7E6ECF2E084EC90E057
:201F80002191F999FECF1FBA92BD81BD20BD0FB6F894FA9AF99A0FBE019622E0E83CF207F2
:201FA00079F7E8ECF2E086EC90E02191F999FECF1FBA92BD81BD20BD0FB6F894FA9AF99A5D
:201FC0000FBE019622E0EA3CF20779F7EAECF2E088EC90E02191F999FECF1FBA92BD81BD09
:201FE00020BD0FB6F894FA9AF99A0FBE019622E0EC3CF20779F7ECECF2E08AEC90E0219153
:20200000F999FECF1FBA92BD81BD20BD0FB6F894FA9AF99A0FBE019622E0EE3CF20779F7AD
:20202000EEECF2E08CEC90E02191F999FECF1FBA92BD81BD20BD0FB6F894FA9AF99A0FBE73
:20204000019622E0E03DF20779F7E0EDF2E08EEC90E02191F999FECF1FBA92BD81BD20BD84
:202060000FB6F894FA9AF99A0FBE019622E0E23DF20779F7E0E4F2E080ED90E02191F99943
:20208000FECF1FBA92BD81BD20BD0FB6F894FA9AF99A0FBE019622E0E434F20779F7E4E409
:2020A000F2E084ED90E02191F999FECF1FBA92BD81BD20BD0FB6F894FA9AF99A0FBE01963D
:2020C00022E0E834F20779F7E8E4F2E088ED90E02191F999FECF1FBA92BD81BD20BD0FB6DD
:2020E000F894FA9AF99A0FBE019622E0EC34F20779F78091040190910501A0910601B09188
:2021000007018D839E83AF83B88780E090E09E012B5F3F4FF901E80FF91FE081F999FECFC5
:202120001FBA8C599F4F92BD81BDE0BD0FB6F894FA9AF99A0FBE835690408430910551F749
:20214000E7ECF0E0949108C08091C00085FFFCCF9093C600319694919923B1F7E5EDF2E0F2
:20216000949108C08091C00085FFFCCF9093C600319694919923B1F78091C00085FFFCCFF9
:202180008AE08093C60028960FB6F894DEBF0FBECDBFCF91DF910895EF92FF920F931F9324
:2021A000CF93DF93EC01E090F502F090F6020091F7021091F802688179818A819B81A801A7
:2021C00097010E948A5C882324F4E882F9820A831B83E090F902F090FA020091FB021091F6
:2021E000FC026C817D818E819F81A80197010E948A5C882324F4EC82FD820E831F83E090AB
:20220000FD02F090FE020091FF0210910003688579858A859B85A80197010E948A5C88237B
:2022200024F4E886F9860A871B87E0901A02F0901B0200911C0210911D02688179818A81E0
:202240009B81A80197010E94985E181624F4E882F9820A831B83E0901E02F0901F02009171
:202260002002109121026C817D818E819F81A80197010E94985E181624F4EC82FD820E83C1
:202280001F83E0902202F09023020091240210912502688579858A859B85A80197010E94E7
:2022A000985E181624F4E886F9860A871B87DF91CF911F910F91FF90EF90089580910303E0
:2022C00008950E946B5280910303882309F036C081E0809303038091050390910603A09163
:2022E0000703B09108038093090390930A03A0930B03B0930C03EDECF0E0949108C08091FF
:20230000C00085FFFCCF9093C600319694919923B1F7E4EDF0E0949108C08091C00085FF92
:20232000FCCF9093C600319694919923B1F78091C00085FFFCCF8AE08093C6000895F8940D
:202340000E946B525E9A5E9A159A5E9AEDECF0E0949108C08091C00085FFFCCF9093C600E8
:20236000319694919923B1F7ECE4F1E0949108C08091C00085FFFCCF9093C600319694918A
:202380009923B1F78091C00085FFFCCF8AE08093C600FFCF0E942D5A60930D0370930E0368
:2023A00080930F0390931003EDE6F1E0949108C08091C00085FFFCCF9093C600319694913C
:2023C0009923B1F78091C00085FFFCCF8AE08093C6000895EF92FF920F931F930E942D5A0A
:2023E000E0901103F0901203009113031091140320910D0330910E0340910F0350911003FB
:20240000621B730B840B950BE616F7060807190738F4E114F1040105110511F00E949F11E5
:202420008091260290912702A0912802B09129020097A105B10529F10E942D5A20910D035B
:2024400030910E0340910F0350911003621B730B840B950B209126023091270240912802EB
:2024600050912902261737074807590750F490919C0A80919D0A981721F45E9A5E9A159A00
:202480005E9A0E94AD391F910F91FF90EF9008956F927F928F929F92AF92BF92CF92DF92F9
:2024A000EF92FF920F931F93F82E6091150370911603809117039091180320911903309178
:2024C0001A0340911B0350911C030E94A55E3B014C01609116027091170200D000D000D02F
:2024E0000DB71EB70F5F1F4F882777FD8095982F0E942C5D20912A0230912B0240912C0273
:2025000050912D020E946A5F20E030E040E752E40E94915C20E030E048EC52E40E94915C3B
:202520005B016C01F8016082718282829382F48280910103858389ED92E061E273E045E1B4
:2025400053E020E001E032E0E32E0E94BE328091210390912203A0912303B0912403809365
:20256000D9029093DA02A093DB02B093DC028091250390912603A0912703B09128038093F3
:20258000DD029093DE02A093DF02B093E0028091290390912A03A0912B03B0912C038093B3
:2025A000E1029093E202A093E302B093E40280912D0390912E03A0912F03B0913003809373
:2025C000E5029093E602A093E702B093E8028DB79EB706960FB6F8949EBF0FBE8DBF0E9422
:2025E0002D5A60930D0370930E0380930F03909310031F910F91FF90EF90DF90CF90BF9067
:20260000AF909F908F907F906F900895CF92DF92EF92FF920F931F9381E293E00E94CC10F6
:202620000E942D5A60930D0370930E0380930F03909310036091D9027091DA028091DB0268
:202640009091DC02209121033091220340912303509124030E948A5C882309F07AC060916A
:20266000DD027091DE028091DF029091E002209125033091260340912703509128030E9439
:202680008A5C882309F065C060912A0270912B0280912C0290912D0220E030E040E752E444
:2026A0000E94915C7B018C0181E293E065E273E049E253E02DE233E0E1E0CE2EE3E0DE2E06
:2026C0000E94A23C8091210390912203A0912303B09124038093D9029093DA02A093DB0243
:2026E000B093DC028091250390912603A0912703B09128038093DD029093DE02A093DF0266
:20270000B093E0028091290390912A03A0912B03B0912C038093E1029093E202A093E30225
:20272000B093E40280912D0390912E03A0912F03B09130038093E5029093E602A093E702E5
:20274000B093E8021F910F91FF90EF90DF90CF9008956091160270911702882777FD809528
:20276000982F0E942C5D20912A0230912B0240912C0250912D020E946A5F20E030E040E7EB
:2027800052E40E94915C20E030E048EC52E488CF8AE595E00E94E830E0E7F1E0949108C080
:2027A0008091C00085FFFCCF9093C600319694919923B1F740910503509106036091070302
:2027C000709108034F5F5F4F6F4F7F4F8AE595E02AE030E00E94AB318091C00085FFFCCF69
:2027E0008AE08093C6000E94CA1108952F923F924F925F926F927F928F929F92AF92BF9222
:20280000CF92DF92EF92FF920F931F93DF93CF9300D000D000D0CDB7DEB78C01833091054D
:2028200008F051C13C01660C771C660C771C930127523D4F3A83298380E090E0A0E0B0E065
:20284000F90180839183A283B38389ED92E06DED72E041EE52E025EE32E00E945E36F301C8
:20286000E654FD4F65917591859194910E521D4FF801E49093012F5D3C4F3E832D8320E046
:2028800030E040EC5FE30E946A5F5B016C01FF24E7FCF0940F2D1F2DC801B7010E942C5DC8
:2028A0001B012C01C601B501A20191010E946A5FAD81BE816D937D938D939C931397F30148
:2028C000EA5FFD4FFC83EB83608171818281938160932A0270932B0280932C0290932D02AA
:2028E00020E030E040E752E40E94915C7B018C0181E293E065E273E049E253E02DE233E0E3
:20290000A1E0CA2EA3E0DA2E0E94A23C0E94794980E090E0A0E0B0E0E981FA8180839183F3
:20292000A283B38389ED92E06DED72E041EE52E025EE32E00E945E36F301EA53FD4F85905A
:202940009590A590B490C501B4019058A20191010E946A5FAD81BE816D937D938D939C930A
:20296000139760912A0270912B0280912C0290912D0220E030E040E752E40E94915C7B015B
:202980008C0181E293E065E273E049E253E02DE233E00E94A23C0E947949C501B401A501B5
:2029A00094010E94B15BA20191010E946A5FED81FE816083718382839383AB81BC816D91EE
:2029C0007D918D919C9120E030E040E05FE30E946A5F60932A0270932B0280932C0290930E
:2029E0002D0220E030E040E752E40E94915C7B018C0181E293E065E273E049E253E02DE2C6
:202A000033E00E94A23C0E947949F301EA56FD4F6591759185919491F301E751FD4FA08070
:202A2000B180C280D380A60195010E94B15B7B018C01CB01D801E981FA8180839183A28316
:202A4000B383F301EE55FD4F6591759185919491F5EF8F2EF2E09F2E860C971CA6019501C4
:202A60000E94B15BD4016D937D938D939C931397F301E255FD4F6591759185919491EAE151
:202A8000F2E06E0E7F1EA60195010E94B15BD3016D937D938D939C931397C701D801ED8174
:202AA000FE8180839183A283B38380E090E0A0E0B0E080932A0290932B02A0932C02B09312
:202AC0002D020E94C04826960FB6F894DEBF0FBECDBFCF91DF911F910F91FF90EF90DF907D
:202AE000CF90BF90AF909F908F907F906F905F904F903F902F900895FC01949108C0809199
:202B0000C00085FFFCCF9093C600319694919923B1F78AE595E022E030E00E94BB3208954B
:202B2000FC01949108C08091C00085FFFCCF9093C600319694919923B1F78AE595E022E06C
:202B400030E00E94BB320895FC01949108C08091C00085FFFCCF9093C6003196949199239E
:202B6000B1F78AE595E02AE030E00E948C310895CF93DF93C7ECD0E0FE01949108C080917F
:202B8000C00085FFFCCF9093C600319694919923B1F7EEE9F4E0949108C08091C00085FF00
:202BA000FCCF9093C600319694919923B1F78091C00085FFFCCF8AE08093C600FE0194918A
:202BC000E7ECF0E008C08091C00085FFFCCF9093C600319694919923B1F740916F0550910B
:202BE0007005609171057091720586E994E00E949015409173055091740560917505709148
:202C0000760583E994E00E94901540917705509178056091790570917A0580E994E00E94F9
:202C2000901540917B0550917C0560917D0570917E058DE894E00E949015E8E0F1E007C0B5
:202C40008091C00085FFFCCF31969093C60090819923B1F78091C00085FFFCCF8AE0809392
:202C6000C600FE019491E7ECF0E008C08091C00085FFFCCF9093C600319694919923B1F7A6
:202C8000E3E7F4E0949108C08091C00085FFFCCF9093C600319694919923B1F78091C0007F
:202CA00085FFFCCF8AE08093C600FE019491E7ECF0E008C08091C00085FFFCCF9093C600EA
:202CC000319694919923B1F740915F055091600560916105709162058AE694E00E9490153F
:202CE0004091630550916405609165057091660587E694E00E9490154091670550916805D7
:202D00006091690570916A0584E694E00E94901540916B0550916C0560916D0570916E0555
:202D200081E694E00E949015E8E0F1E007C08091C00085FFFCCF31969093C6009081992374
:202D4000B1F78091C00085FFFCCF8AE08093C600FE019491E7ECF0E008C08091C00085FF84
:202D6000FCCF9093C600319694919923B1F7E3E4F4E0949108C08091C00085FFFCCF909384
:202D8000C600319694919923B1F78091C00085FFFCCF8AE08093C600FE019491E7ECF0E0F3
:202DA00008C08091C00085FFFCCF9093C600319694919923B1F740917F0550918005609146
:202DC0008105709182058AE394E00E94A4154091830550918405609185057091860587E375
:202DE00094E00E94A41540918705509188056091890570918A0584E394E00E94A415409123
:202E00008B0550918C0560918D0570918E0581E394E00E94A415E8E0F1E007C08091C00035
:202E200085FFFCCF31969093C60090819923B1F78091C00085FFFCCF8AE08093C600FE01BC
:202E40009491E7ECF0E008C08091C00085FFFCCF9093C600319694919923B1F7ECEFF3E0DB
:202E6000949108C08091C00085FFFCCF9093C600319694919923B1F78091C00085FFFCCFEC
:202E80008AE08093C600FE019491E7ECF0E008C08091C00085FFFCCF9093C600319694916B
:202EA0009923B1F74091930550919405609195057091960583EF93E00E949015409197050B
:202EC000509198056091990570919A0580EF93E00E949015E8E0F1E007C08091C00085FF67
:202EE000FCCF31969093C60090819923B1F78091C00085FFFCCF8AE08093C600FE0194915B
:202F0000E7ECF0E008C08091C00085FFFCCF9093C600319694919923B1F7E7E5F3E0949129
:202F200008C08091C00085FFFCCF9093C600319694919923B1F78091C00085FFFCCF8AE0E6
:202F40008093C600FE019491E7ECF0E008C08091C00085FFFCCF9093C60031969491992358
:202F6000B1F740918F055091900560919105709192058EE493E00E9490154091A705509125
:202F8000A8056091A9057091AA058BE493E00E94901540915B0550915C0560915D05709145
:202FA0005E0588E493E00E94A41540919B0550919C0560919D0570919E0585E493E00E94CC
:202FC000901540919F055091A0056091A1057091A20582E493E00E9490154091A305509198
:202FE000A4056091A5057091A6058FE393E00E949015E8E0F1E007C08091C00085FFFCCF35
:2030000031969093C60090819923B1F78091C00085FFFCCF8AE08093C600FE019491E7EC31
:20302000F0E008C08091C00085FFFCCF9093C600319694919923B1F7EDE2F3E0949108C010
:203040008091C00085FFFCCF9093C600319694919923B1F78091C00085FFFCCF8AE080937A
:20306000C600FE019491E7ECF0E008C08091C00085FFFCCF9093C600319694919923B1F7A2
:203080004091E9025091EA026091EB027091EC0284E293E00E9490154091ED025091EE0229
:2030A0006091EF027091F00281E293E00E9490154091F1025091F2026091F3027091F402A8
:2030C0008EE193E00E949015E8E0F1E007C08091C00085FFFCCF31969093C60090819923CA
:2030E000B1F78091C00085FFFCCF8AE08093C600FE019491E7ECF0E008C08091C00085FFE1
:20310000FCCF9093C600319694919923B1F7E0E1F3E0949108C08091C00085FFFCCF9093E7
:20312000C600319694919923B1F78091C00085FFFCCF8AE08093C600FE019491E7ECF0E04F
:2031400008C08091C00085FFFCCF9093C600319694919923B1F74091400250914102609126
:2031600042027091430286E093E00E949015609144027091450280914602909147022DEB4B
:2031800037E346E05EE30E94915CAB01BC0183E093E00E947C156091480270914902809115
:2031A0004A0290914B022DEB37E346E05EE30E946A5FAB01BC0180E093E00E947C15E8E01A
:2031C000F1E007C08091C00085FFFCCF31969093C60090819923B1F78091C00085FFFCCFF2
:2031E0008AE08093C600DF91CF910895DF93CF93CDB7DEB7E8970FB6F894DEBF0FBECDBF6C
:20320000682F8091040190910501A0910601B09107018D839E83AF83B887FE01319624E6E7
:2032200030E0AE014C5F5F4FF999FECF32BD21BDF89A80B580832F5F3F4FE417F50711F06C
:203240003196F2CF662309F0BCC1CE010596BE016F5F7F4F43E050E00E94C60B009709F0CC
:20326000B0C1EFE6F5E028E630E0F999FECF32BD21BDF89A80B580832F5F3F4F85E0EE3779
:20328000F80711F03196F1CFEFE5F5E028E730E0F999FECF32BD21BDF89A80B580832F5F5B
:2032A0003F4F85E0EE36F80711F03196F1CFEFE7F5E028E830E0F999FECF32BD21BDF89AE7
:2032C00080B580832F5F3F4F85E0EE38F80711F03196F1CFE3E9F5E028E930E0F999FECF67
:2032E00032BD21BDF89A80B580832F5F3F4F85E0E639F80711F03196F1CFE7E9F5E02CE956
:2033000030E0F999FECF32BD21BDF89A80B580832F5F3F4F85E0EA39F80711F03196F1CF7C
:20332000EFE8F5E020EA30E0F999FECF32BD21BDF89A80B580832F5F3F4F85E0E239F80736
:2033400011F03196F1CFE7EAF5E024EA30E0F999FECF32BD21BDF89A80B580832F5F3F4F0F
:2033600085E0EA3AF80711F03196F1CFEBE5F5E028EA30E0F999FECF32BD21BDF89A80B583
:2033800080832F5F3F4F85E0EE35F80711F03196F1CFEBE9F5E02CEA30E0F999FECF32BDE2
:2033A00021BDF89A80B580832F5F3F4F85E0EE39F80711F03196F1CFEFE9F5E020EB30E06E
:2033C000F999FECF32BD21BDF89A80B580832F5F3F4F85E0E23AF80711F03196F1CFE3EA06
:2033E000F5E024EB30E0F999FECF32BD21BDF89A80B580832F5F3F4F85E0E63AF80711F042
:203400003196F1CFE9EEF2E028EB30E0F999FECF32BD21BDF89A80B580832F5F3F4F82E0E5
:20342000E43FF80711F03196F1CFE6ECF2E024EC30E0F999FECF32BD21BDF89A80B5808328
:203440002F5F3F4F82E0E73CF80711F03196F1CFE8ECF2E026EC30E0F999FECF32BD21BD50
:20346000F89A80B580832F5F3F4F82E0E93CF80711F03196F1CFEAECF2E028EC30E0F999FA
:20348000FECF32BD21BDF89A80B580832F5F3F4F82E0EB3CF80711F03196F1CFECECF2E0F2
:2034A0002AEC30E0F999FECF32BD21BDF89A80B580832F5F3F4F82E0ED3CF80711F0319682
:2034C000F1CFEEECF2E02CEC30E0F999FECF32BD21BDF89A80B580832F5F3F4F82E0EF3CB9
:2034E000F80711F03196F1CFE0EDF2E02EEC30E0F999FECF32BD21BDF89A80B580832F5FF8
:203500003F4F82E0E13DF80711F03196F1CFE0E4F2E020ED30E0F999FECF32BD21BDF89AA5
:2035200080B580832F5F3F4F82E0E334F80711F03196F1CFE4E4F2E024ED30E0F999FECF1D
:2035400032BD21BDF89A80B580832F5F3F4F82E0E734F80711F03196F1CFE8E4F2E028ED01
:2035600030E0F999FECF32BD21BDF89A80B580832F5F3F4F82E0EB34F80711F03196F1CF21
:20358000E7ECF0E0949108C08091C00085FFFCCF9093C600319694919923B1F7E5EEF2E09D
:2035A000949108C08091C00085FFFCCF9093C600319694919923B1F78091C00085FFFCCFA5
:2035C0003AC1DE011996E1EBF2E080E101900D928150E1F7DE015996E1EAF2E080E101902D
:2035E0000D928150E1F7DE019996E1E9F2E080E101900D928150E1F789859A85AB85BC8501
:2036000080936F0590937005A0937105B0937205898D9A8DAB8DBC8D80935F05909360056B
:20362000A0936105B093620589A59AA5ABA5BCA580937F0590938005A0938105B093820567
:203640008D859E85AF85B8898093730590937405A0937505B09376058D8D9E8DAF8DB8A154
:203660008093630590936405A0936505B09366058DA59EA5AFA5B8A9809383059093840587
:20368000A0938505B093860589899A89AB89BC898093770590937805A0937905B0937A054F
:2036A00089A19AA1ABA1BCA18093670590936805A0936905B0936A0589A99AA9ABA9BCA96C
:2036C0008093870590938805A0938905B0938A058D899E89AF89B88D80937B0590937C0517
:2036E000A0937D05B0937E058DA19EA1AFA1B8A580936B0590936C05A0936D05B0936E05C3
:203700008DA99EA9AFA9B8AD80938B0590938C05A0938D05B0938E0580E090E0AAE7B4E484
:203720008093930590939405A0939505B09396058093970590939805A0939905B0939A0555
:2037400020E030E040E050E020938F0530939005409391055093920580E29EE4A0E0B0E093
:2037600080935B0590935C05A0935D05B0935E052093A7053093A8054093A9055093AA0535
:2037800080E090E0A0EAB1E480939B0590939C05A0939D05B0939E058DEC9CECACECBEE3CE
:2037A00080939F059093A005A093A105B093A20580E090E0A0EAB0E48093A3059093A40552
:2037C000A093A505B093A6052093F1023093F2024093F3025093F4022093ED023093EE02CB
:2037E0004093EF025093F0022093E9023093EA024093EB025093EC02E7ECF0E0949108C0C2
:203800008091C00085FFFCCF9093C600319694919923B1F7E9E0F1E007C08091C00085FF99
:20382000FCCF31969093C60090819923B1F78091C00085FFFCCF8AE08093C600E8960FB6F2
:20384000F894DEBF0FBECDBFCF91DF910895409142035091430320E630E0B901469F9001F6
:20386000479F300D569F300D1124682F772767FD7095C9018C5B9C4F0E94BB0B9C0190935C
:20388000C5048093C40480E0232B09F081E008958091C4049091C504019660E070E04AE0CB
:2038A00050E00E94740A08958091C4049091C504019660E070E00E9414090895CF93DF9301
:2038C000EC01809101038093040384E50E94271C882309F45BC00E94541C0E94FE5C262F58
:2038E00060930403662309F451C0E7ECF0E0949108C08091C00085FFFCCF9093C6003196D7
:2039000094919923B1F7C936D10551F0CD36D10521F0C836D10551F506C0E1E2F1E023C0C7
:20392000E8E3F1E015C0EFE4F1E007C08091C00085FFFCCF31969093C60090819923B1F766
:2039400015C08091C00085FFFCCF31969093C60090819923B1F70AC08091C00085FFFCCF63
:2039600031969093C60090819923B1F78AE595E0622F40E050E00E9499318091C00085FF9C
:20398000FCCF8AE08093C60081E001C080E0DF91CF910895AF92BF92CF92DF92EF92FF92B4
:2039A0000F931F93CF93DF9319EDE12E12E0F12EC1E2D3E000E010E0F801ED5AFD4F808106
:2039C0000E94271C882339F10E94541C5B016C01F801EE52FD4F8081882311F061E002C01D
:2039E0006091310370E0882777FD8095982F0E942C5DF70120813181428153810E946A5FDB
:203A00009B01AC01C601B5010E94B15B688379838A839B8309C0F70180819181A281B381F5
:203A200088839983AA83BB830F5F1F4F84E090E0E80EF91E24960430110509F0BDCF86E444
:203A40000E94271C8823E1F00E94541C7B018C0160933203709333038093340390933503E4
:203A600020E030E040E050E00E94985E181644F4E0922A02F0922B0200932C0210932D0208
:203A8000DF91CF911F910F91FF90EF90DF90CF90BF90AF9008950E94CA1C89E40E94271C25
:203AA000882359F00E94541C609315037093160380931703909318030CC080E090E0A0E052
:203AC000B0E08093150390931603A0931703B09318038AE40E94271C882359F00E94541CEB
:203AE0006093190370931A0380931B0390931C03089580E090E0A0E0B0E080931903909355
:203B00001A03A0931B03B0931C0308952F923F924F925F926F927F928F929F92AF92BF92DE
:203B2000CF92DF92EF92FF920F931F93DF93CF93CDB7DEB7A1970FB6F894DEBF0FBECDBFE1
:203B400087E40E94271C882309F48CC30E94541C0E94F95C6430710509F441C06530710502
:203B600054F46230710541F1633071056CF57723CCF40C94E22B6A35710509F41EC36B35BF
:203B8000710534F46C31710511F00C94E22B69C06B35710509F415C36C35710511F00C94FA
:203BA000E22B14C380910303882331F40E94CA1C0E9406130C94032C80910303882321F451
:203BC0000E944B1D81E007C080910303882339F40E944B1D80E00E9448120C94032C80E52A
:203BE0000E94271C882321F4EE24FF24870106C00E94541C0E94FE5C7B018C0183E50E947C
:203C0000271C882361F00E94541C20E030E04AE754E40E946A5F0E94FE5C7B018C010E94C8
:203C200079490E942D5A5B016C01AE0CBF1CC01ED11E0E942D5A60930D0370930E0380931B
:203C40000F039093100304C00E9463540E94EA110E942D5A6A157B058C059D05A8F30C94CC
:203C6000E22B80912A0290912B02A0912C02B0912D028093360390933703A0933803B09383
:203C8000390380911602909117029093D7028093D60284E690E090931702809316020E94BB
:203CA0002D5A60930D0370930E0380930F039093100381E00E94C7488091D9029091DA0210
:203CC000A091DB02B091DC028093210390932203A0932303B09324038091DD029091DE0284
:203CE000A091DF02B091E0028093250390932603A0932703B09328038091E1029091E20244
:203D0000A091E302B091E4028093290390932A03A0932B03B0932C038091E5029091E60203
:203D2000A091E702B091E80280932D0390932E03A0932F03B093300380E090E0A0E0B0E0EC
:203D400080932A0290932B02A0932C02B0932D0288E50E94271C882361F489E50E94271C5C
:203D6000882339F48AE50E94271C882311F481E001C080E080932E02882361F488E50E9493
:203D8000271C882309F462C189E50E94271C882309F45CC180E090E0A0E0B0E08093D9022F
:203DA0009093DA02A093DB02B093DC028093DD029093DE02A093DF02B093E00289ED92E0BD
:203DC0006DED72E041EE52E025EE32E00E945E3680E090E0A6E9B3EC8093210390932203FE
:203DE000A0932303B09324038093250390932603A0932703B093280320910602309107022B
:203E0000409108025091090220932A0230932B0240932C0250932D02E0900A02F0900B02F0
:203E200000910C0210910D02C801B7010E948A5C882344F4E0922A02F0922B0200932C0239
:203E400010932D0260912A0270912B0280912C0290912D0220E030E040E752E40E94915CBA
:203E60007B018C0181E293E065E273E049E253E02DE233E0E1E0CE2EE3E0DE2E0E94A23C3D
:203E80000E947949E6E9F2E065917591859194912091E9023091EA024091EB025091EC0210
:203EA0000E94B15B6093D9027093DA028093DB029093DC02E2EAF2E06591759185919491E1
:203EC0002091E9023091EA024091EB025091EC020E94B15B6093F5027093F6028093F7026D
:203EE0009093F802EEEAF2E065917591859194912091E9023091EA024091EB025091EC02EE
:203F00000E94B15B60931A0270931B0280931C0290931D02EAE9F2E0659175918591949175
:203F20002091ED023091EE024091EF025091F0020E94B15B6093DD027093DE028093DF0244
:203F40009093E002E6EAF2E065917591859194912091ED023091EE024091EF025091F0029D
:203F60000E94B15B6093F9027093FA028093FB029093FC02E2EBF2E065917591859194919F
:203F80002091ED023091EE024091EF025091F0020E94B15B60931E0270931F028093200221
:203FA0009093210289ED92E06DED72E041EE52E025EE32E00E945E368091D9029091DA0282
:203FC000A091DB02B091DC028093210390932203A0932303B09324038091DD029091DE0281
:203FE000A091DF02B091E0028093250390932603A0932703B093280360912A0270912B02EF
:2040000080912C0290912D0220E030E040E752E40E94915C7B018C0181E293E065E273E09C
:2040200049E253E02DE233E00E94A23C80E090E0A0E0B0E080932A0290932B02A0932C02B0
:20404000B0932D020E9479490E94C04880912E02882329F488E50E94271C882321F080E069
:2040600090E00E94F61380912E02882329F489E50E94271C882321F081E090E00E94F61391
:2040800080912E02882329F48AE50E94271C882321F082E090E00E94F61388E50E94271C38
:2040A0008823D9F00E94481C6115710581059105A1F00E94541C2091E9023091EA024091C1
:2040C000EB025091EC020E94B15B6093D9027093DA028093DB029093DC0289E50E94271C85
:2040E0008823D9F00E94481C6115710581059105A1F00E94541C2091ED023091EE02409179
:20410000EF025091F0020E94B15B6093DD027093DE028093DF029093E0028AE50E94271C2B
:204120008823D9F00E94481C6115710581059105A1F00E94541C2091F1023091F202409130
:20414000F3025091F4020E94B15B6093E1027093E2028093E3029093E40289ED92E06DEDE5
:2041600072E041EE52E025EE32E00E945E368091360390913703A0913803B0913903809390
:204180002A0290932B02A0932C02B0932D028091D6029091D70290931702809316020E94E4
:2041A0002D5A60930D0370930E0380930F03909310030E94C0480C94E22B109231030C9439
:2041C000E22B81E0809331030C94E22B85E40E94271C882311F40E94794979EDE72E72E04E
:2041E000F72E69EEC62E62E0D62E00E010E0F801ED5AFD4F80810E94271C882331F10330C7
:2042000061F40E94541CF701608371838283938385EE92E00E94403618C00E94541CF6016F
:2042200020813181428153810E94B15BF701608371838283938389ED92E06DED72E041EE39
:2042400052E025EE32E00E945E360F5F1F4F24E030E0E20EF31EC20ED31E0430110539F6A6
:204260000C94E22B8DE40E94271C882311F40C942C2B0E94541C0E94F95C6C38710509F474
:204280000EC26D3871050CF05FC06C35710509F49BC56D35710564F56A32710509F489C1DA
:2042A0006B32710574F46231710509F433C56F31710509F4BFC06131710511F00C94E22B3D
:2042C000B3C06335710509F421C56435710534F46235710511F00C94E22B15C5643571059F
:2042E00009F418C56535710511F00C94E22B56C56237710509F4FCC56337710574F4693627
:20430000710509F4E1C16D36710509F490C26836710511F00C94E22B92C16737710509F4FA
:2043200080C06837710534F46337710511F00C94E22BCFC56837710509F4CBC669377105F5
:2043400011F00C94E22BC7C631E06D32730711F40C94082A81E06E3278076CF56C3C710522
:2043600011F40C944B296D3C71057CF4693C710509F439C76B3C710511F40C942D296E3BBC
:20438000710511F00C94E22B14C46E3C710511F40C94C9296E3C710514F40C946B296C3D65
:2043A000710511F40C94E7296D3D710511F00C94E22B0C94F92991E0643F790711F40C9409
:2043C0000B2BE1E0653F7E079CF4F1E06F327F0711F40C94F92A21E06F32720714F40C94AA
:2043E000F52A6059714011F00C94E22B0C94082B81E0663F780711F40C94102B91E0663F38
:20440000790714F40C940E2BE1E0673F7E0711F40C94142B675E734011F00C94E22B0C94A5
:20442000172BE6E6F1E062C65E985E9815985E980C94E22B0E942D5A60933A0370933B039F
:2044400080933C0390933D0320913E0330913F034091400350914103621B730B840B950B4F
:2044600028EE33E040E050E00E946E60F22EE32ED42EC52E2DB73EB7285030400FB6F8941B
:204480003EBF0FBE2DBF0DB71EB70F5F1F4FCE010196EDB7FEB7928381838FE791E0F80139
:2044A000938382836F2D7E2D842F952F2CE330E040E050E00E946E60F801358324836F2D50
:2044C0007E2D8D2D9C2D2CE330E040E050E00E946E60F801778366830E94EE0BE7ECF0E0B5
:2044E00094912DB73EB7285F3F4F0FB6F8943EBF0FBE2DBF08C08091C00085FFFCCF909397
:20450000C600319694919923B1F7FE01319607C08091C00085FFFCCF31969093C600908117
:204520009923B1F78091C00085FFFCCF8AE08093C6008091CB05882311F40C94E22B1092D4
:20454000CB0560910103E62FF0E0EE0FFF1FE350F54F808191810E948350209133023091F0
:20456000340240913502509136020E94985E181614F00C94E22B60910103062F10E080E0F3
:2045800090E00E94A351000F111FF801E350F54F91838083000F111F0B5F144F80E090E073
:2045A000A0E0B0E0F80180839183A283B3830C94E22B83E50E94271C882311F40C94E22B29
:2045C0000E94541C7B018C0180E50E94271C882311F40C94E22BC801B7010E94F95C7B0125
:2045E00077FF02C00C94E22B6F3F710519F014F00C94E22B0E94541C0E94F95C8B01E7E597
:20460000F2E0808191818017910711F40C94E22B329622E0EB3CF207A1F717FF02C00C94DA
:20462000E22B802F61E00E942F5B802F6E2D0E94535B802FB7010E94CF5A0C94E22B88E66A
:2046400090E00E945E1C882311F00C94E22B83E50E94271C8823F9F00E94541C6B017C0199
:20466000B09004030B2D10E00E94F95CDC01CB016B2D0E94A351000F111FF801E350F54F4E
:2046800091838083000F111F0B5F144FF801C082D182E282F3820E9482500C94E22B83E507
:2046A0000E94271C882311F40C94E22B0E94541C0E94F95CDC01CB010E947A509093000B6C
:2046C0008093FF0A0C94E22B89E690E00E945E1C882311F00C94E22BE0E9F2E0949108C035
:2046E0008091C00085FFFCCF9093C600319694919923B1F760910403E62FF0E0EE0FFF1F69
:20470000EF5FF44F808191810E948350AB01BC018AE595E021E030E00E94BB32EDE8F2E0EC
:20472000949108C08091C00085FFFCCF9093C600319694919923B1F760910403E62FF0E056
:20474000EE0FFF1FE350F54F808191810E948350AB01BC018AE595E021E030E00E94BB3252
:20476000E9E8F2E0949108C08091C00085FFFCCF9093C600319694919923B1F78091030B31
:204780009091040B0E947D50AB01BC018AE595E021E030E00E94BB32E6E8F2E0949108C000
:2047A0008091C00085FFFCCF9093C600319694919923B1F78091FF0A9091000B0E947D50EB
:2047C000AB01BC018AE595E021E030E00E94BB32E2E8F2E0949108C08091C00085FFFCCF43
:2047E0009093C600319694919923B1F7809104030E947450BC018AE595E04AE050E00E9465
:20480000E031E8E0F1E007C08091C00085FFFCCF31969093C60090819923B1F78091C00011
:2048200085FFFCCF8AE08093C6000C94032C8DE690E00E945E1C882311F00C94E22B10921D
:20484000CB0583E50E94271C8823F9F00E94541C6B017C01B09004030B2D10E00E94F95C46
:20486000DC01CB016B2D0E94A351000F111FF801E350F54F91838083000F111F0B5F144F8F
:20488000F801C082D182E282F38283E50E94271C882351F00E94541C609333027093340205
:2048A000809335029093360282E40E94271C882351F00E94541C60932F027093300280939E
:2048C00031029093320286E40E94271C882369F00E94541C60933702709338028093390232
:2048E00090933A0281E08093CB050E9482500E942D5A3B014C01E0910403F0E0EE0FFF1F8C
:20490000DF01A350B54F2D903C90EF5FF44F40805180AA24AA94BA2C6501EFE7F2E0249160
:204920002F8FEBE7F2E0349138A3E7E7F2E0849189A332C19F8DEFE7F2E008C08091C00034
:2049400085FFFCCF9093C600319694919923B1F760910403E62FF0E0EE0FFF1FEF5FF44F46
:20496000808191810E948350AB01BC018AE595E021E030E00E94BB3298A1EBE7F2E008C01D
:204980008091C00085FFFCCF9093C600319694919923B1F7609104038AE595E070E04AE068
:2049A00050E00E94E03199A1E7E7F2E008C08091C00085FFFCCF9093C600319694919923C1
:2049C000B1F7D7FE03C0EEE8F1E02BC00E942D5AA6019501205F384D4F4F5F4F261B370BCC
:2049E000480B590BCA01B90128EE33E040E050E00E946E608AE595E0BA01A9012AE030E02F
:204A00000E948C318091C00085FFFCCF9AE09093C60011C08091C00085FFFCCF31969093D9
:204A2000C60090819923B1F78091C00085FFFCCFEAE0E093C6000E942D5A3B014C010E94C4
:204A400063540E94EA11FFEFAF16FFEFBF06FFEFCF06FFEFDF0609F053C0609104034214AC
:204A600053043CF5E62FF0E0EE0FFF1FEF5FF44F808191810E9483507B018C016091040394
:204A8000E62FF0E0EE0FFF1FE350F54F808191810E94835020E030E040E85FE30E94B05BF0
:204AA0009B01AC01C801B7010E94985E87FF5AC060C0E62FF0E0EE0FFF1FEF5FF44F808142
:204AC00091810E9483507B018C0160910403E62FF0E0EE0FFF1FE350F54F808191810E9422
:204AE000835020E030E040E85FE30E94B15B9B01AC01C801B7010E948A5C18169CF539C0B1
:204B0000D7FC37C060910403E62FF0E0EE0FFF1FEF5FF44F808191810E9483507B018C01B1
:204B200060910403E62FF0E0EE0FFF1FE350F54F808191810E9483509B01AC01C801B701B4
:204B40000E94B05B0E94F95C97FF07C090958095709561957F4F8F4F9F4F643071058105F5
:204B600091053CF00E942D5AAC01CB01DA015C016D012FEFA2162FEFB2062FEFC2062FEF7B
:204B8000D20651F0D7FC21C60E942D5A6A197B096051774208F019C60E942D5A66197709A9
:204BA00088099909695E73408040904008F0C2CE46CF83E50E94271C882361F00E94541CC0
:204BC0000E94F95CDC01CB010E947A509093000B8093FF0A0E942D5A7B018C01E4E7F2E0B0
:204BE000B490E0E7F2E0C490ECE6F2E0D490EAE0AE2E7CC00E942D5A6E197F09800B910B3B
:204C0000695E73408040904008F46CC060910103E62FF0E0EE0FFF1FEF5FF44F80819181C9
:204C20000E948350AB01BC019B2DE4E7F2E008C08091C00085FFFCCF9093C6003196949174
:204C40009923B1F78AE595E022E030E00E94BB329C2DE0E7F2E008C08091C00085FFFCCF21
:204C60009093C600319694919923B1F7609101038AE595E070E04AE050E00E94E0319D2DFB
:204C8000ECE6F2E008C08091C00085FFFCCF9093C600319694919923B1F78091030B90910F
:204CA000040B0E947D50AB01BC018AE595E021E030E00E94BB32E8E0F1E007C08091C00058
:204CC00085FFFCCF31969093C60090819923B1F78091C00085FFFCCFA092C6000E942D5A1F
:204CE0007B018C010E9463540E94EA112091FF0A3091000B8091030B9091040B82179307AD
:204D00000CF478CF6CC51092D5025CC581E08093D50258C583E50E94271C882399F00E94F6
:204D2000541C20E030E04AE754E40E946A5F0E94FE5C60932602709327028093280290937C
:204D4000290240C588E50E94271C882309F052C589E50E94271C882309F04CC58AE50E94FD
:204D6000271C882309F046C585E40E94271C882309F040C50E9479495E9A0E94854922C597
:204D80005E9A89E50E94271C81115E9A8AE50E94271C882309F416C5159A14C583E50E94D5
:204DA000271C0E94541C20E030E04AE754E40E946A5F0E94FE5C609311037093120380938C
:204DC000130390931403FEC45FE6652E55E0752E4FE5242E45E0342E3BEA432E35E0532ED8
:204DE00088249924F401ED5AFD4F80810E94271C882309F45DC023E0821609F052C00E94CF
:204E0000541C5B016C0120E030E040EA51E40E948A5C88230CF03FC0F301608171818281F2
:204E20009381A60195010E94915C7B018C016091A3057091A4058091A5059091A605A80116
:204E400097010E946A5F6093A3057093A4058093A5059093A605F1016081718182819381A1
:204E6000A80197010E946A5FF1016083718382839383F20160817181828193810E942A5D9C
:204E8000A80197010E946A5F0E94FE5CF2016083718382839383F301A082B182C282D382A3
:204EA00007C00E94541CF30160837183828393830894811C911C24E030E0620E731E220E08
:204EC000331E420E531E34E08316910409F08ACF79C4E0ECF1E0949108C08091C00085FF10
:204EE000FCCF9093C600319694919923B1F76AC4EDEBF1E0949108C08091C00085FFFCCFCA
:204F00009093C600319694919923B1F74091D9025091DA026091DB027091DC028AE595E05E
:204F200022E030E00E94BB32EAEBF1E0949108C08091C00085FFFCCF9093C6003196949148
:204F40009923B1F74091DD025091DE026091DF027091E0028AE595E022E030E00E94BB3242
:204F6000E7EBF1E0949108C08091C00085FFFCCF9093C600319694919923B1F74091E10294
:204F80005091E2026091E3027091E4028AE595E022E030E00E94BB32E4EBF1E0949108C07D
:204FA0008091C00085FFFCCF9093C600319694919923B1F74091E5025091E6026091E7023D
:204FC0007091E8028AE595E022E030E00E94BB32EAEAF1E0949108C08091C00085FFFCCFAF
:204FE0009093C600319694919923B1F780E00E9467490E942C5D20916F053091700540916F
:205000007105509172050E94915CAB01BC018AE595E022E030E00E94BB32E7EAF1E094917E
:2050200008C08091C00085FFFCCF9093C600319694919923B1F781E00E9467490E942C5D71
:20504000209173053091740540917505509176050E94915CAB01BC018AE595E022E030E058
:205060000E94BB32E4EAF1E0949108C08091C00085FFFCCF9093C600319694919923B1F7BC
:2050800082E00E9467490E942C5D20917705309178054091790550917A050E94915CAB01DC
:2050A000BC018AE595E022E030E00E94BB32E8E0F1E007C08091C00085FFFCCF3196909344
:2050C000C60090819923B1F78091C00085FFFCCF76C380E001C081E00E94C74873C38091C2
:2050E000C00085FFFCCF31969093C60090819923B1F78091C00085FFFCCF8AE08093C60019
:20510000ECE9F1E0949108C08091C00085FFFCCF9093C600319694919923B1F7329903C015
:20512000E0E9F1E00AC0E5E9F1E007C08091C00085FFFCCF31969093C60090819923B1F760
:205140008091C00085FFFCCF8AE08093C600E4E9F1E0949108C08091C00085FFFCCF90931E
:20516000C600319694919923B1F7339903C0E0E9F1E00AC0E5E9F1E007C08091C00085FF6B
:20518000FCCF31969093C60090819923B1F78091C00085FFFCCF8AE08093C600ECE8F1E017
:2051A000949108C08091C00085FFFCCF9093C600319694919923B1F7349903C0E0E9F1E07F
:2051C0000AC0E5E9F1E007C08091C00085FFFCCF31969093C60090819923B1F78091C00089
:2051E00085FFFCCFECC223E5C22E22E0D22EEE24FF24F60180810E94271C882309F10E945F
:20520000541C870101581A4F0E94FE5CF80160837183828393830E94541C870105551A4F90
:20522000F701E159FA4F20813181428153810E946A5F0E94FE5CF8016083718382839383B7
:205240000894C11CD11C24E030E0E20EF31E37E5C31632E0D30669F6B5C203E512E09FE5BF
:20526000E92E95E0F92EF80180810E94271C882339F00E94541CF7016083718382839383CC
:205280000F5F1F4F24E030E0E20EF31E32E00735130749F797C283E50E94271C882351F0E3
:2052A0000E94541C6093930570939405809395059093960584E50E94271C882309F482C210
:2052C0000E94541C60939705709398058093990590939A0577C283E50E94271C882351F0A8
:2052E0000E94541C60938F0570939005809391059093920584E50E94271C882351F00E943E
:20530000541C6093A7057093A8058093A9059093AA0582E40E94271C882361F00E94541CE2
:205320000E94FE5C60935B0570935C0580935D0590935E0588E50E94271C882351F00E94DF
:20534000541C60939B0570939C0580939D0590939E058AE50E94271C882351F00E94541CD9
:2053600060939F057093A0058093A1059093A20585E40E94271C882309F424C20E94541C7D
:205380006093A3057093A4058093A5059093A60519C203E512E089EEE82E82E0F82EF80178
:2053A00080810E94271C882339F00E94541CF70160837183828393830F5F1F4F24E030E047
:2053C000E20EF31E32E00635130749F7FBC183E50E94271C882309F4F5C10E94541C0E940A
:2053E000F95C709317026093160281E08093D802E9C183E50E94271C882309F4E3C10E94FE
:20540000541C0E94F95C7093190260931802DAC180E50E94271C882351F00E94541C609324
:20542000400270934102809342029093430289E40E94271C882381F00E94541C2DEB37E373
:2054400046E05EE30E946A5F6093440270934502809346029093470284E40E94271C882338
:2054600081F00E94541C2DEB37E346E05EE30E94915C609348027093490280934A02909374
:205480004B0283E40E94271C882351F00E94541C60934C0270934D0280934E0290934F020B
:2054A0000E945D50EFE9F1E007C08091C00085FFFCCF31969093C60090819923B1F7E2EA1C
:2054C000F1E007C08091C00085FFFCCF31969093C60090819923B1F74091400250914102B8
:2054E00060914202709143028AE595E022E030E00E94BB32E6EAF1E007C08091C00085FFEF
:20550000FCCF31969093C60090819923B1F7609144027091450280914602909147022DEB41
:2055200037E346E05EE30E94915CAB01BC018AE595E022E030E00E94BB32EAEAF1E007C001
:205540008091C00085FFFCCF31969093C60090819923B1F7609148027091490280914A0222
:2055600090914B022DEB37E346E05EE30E946A5FAB01BC018AE595E022E030E00E94BB32CB
:20558000EEEAF1E007C08091C00085FFFCCF31969093C60090819923B1F760914C02709116
:2055A0004D0280914E0290914F022DEB37E346E05EE30E946A5FAB01BC018AE595E022E076
:2055C00030E00E94BB32E8E0F1E007C08091C00085FFFCCF31969093C60090819923B1F787
:2055E0008091C00085FFFCCFEAC081E00E943D36E9C083E50E94271C882329F460E070E01D
:2056000086E193E402C00E94541C0E940156DAC00E947949D7C00E948F0ED4C080E001C056
:2056200081E00E94F618CEC00E94B815CBC0109203038091090390910A03A0910B03B0915E
:205640000C038093050390930603A0930703B09308030E94C813B6C084E50E94271C88237D
:2056600009F465C00E94541C0E94FE5C262F60930403E7ECF0E0662391F1949108C08091FF
:20568000C00085FFFCCF9093C600319694919923B1F7E2EBF1E007C08091C00085FFFCCF3D
:2056A00031969093C60090819923B1F78AE595E0622F40E050E00E949931E4EBF1E007C02D
:2056C0008091C00085FFFCCF31969093C60090819923B1F78091C00085FFFCCF70C0109293
:2056E0000103949108C08091C00085FFFCCF9093C600319694919923B1F7E5ECF1E007C0F7
:205700008091C00085FFFCCF31969093C60090819923B1F78AE595E060E070E04AE050E076
:205720000E94E0318091C00085FFFCCF48C0E7ECF0E0949108C08091C00085FFFCCF9093BB
:20574000C600319694919923B1F7EAE7F1E0949108C08091C00085FFFCCF9093C6003196D4
:2057600094919923B1F7209142033091430380E690E0289FF001299FF00D389FF00D112447
:20578000EC5BFC4F07C08091C00085FFFCCF31969093C60090819923B1F7E8E7F1E09491A6
:2057A00008C08091C00085FFFCCF9093C600319694919923B1F78091C00085FFFCCF8AE03E
:2057C0008093C6000E94CA111EC00E942D5A60933E0370933F0380934003909341030E9494
:2057E0002D5A60930D0370930E0380930F0390931003E8CF0E94794988E50E94271C882398
:2058000009F0BECABECAA1960FB6F894DEBF0FBECDBFCF91DF911F910F91FF90EF90DF9064
:20582000CF90BF90AF909F908F907F906F905F904F903F902F9008958F929F92AF92BF9242
:20584000CF92DF92EF92FF920F931F93CF93DF93A0E6CA2ED12CEEEAF4E0A490FAE09F2E3A
:20586000E6E2F5E0B4908824839424C22D3071F02A3321F48091C704882341F08091C804D9
:205880009091C9048F3591050CF4F0C1E091C804F091C904309719F41092C7042AC2A09126
:2058A000CA04B091CB04AC9D8001AD9D100DBC9D100D1124E00FF11FEC5BFC4F10828091FA
:2058C000C704882309F0CDC11092C704A453BB4F1C92E801CC5BDC4FCE016EE470E00E9461
:2058E000BB0B9C01009709F410C19093C5048093C4042F5F3F4F2C1B3D0B200F311FC90125
:205900008C5B9C4F60E070E04AE050E00E94740A6093D0047093D1048093D2049093D30429
:20592000E0900503F09006030091070310910803A80197012F5F3F4F4F4F5F4F6217730783
:205940008407950709F43DC08091CA049091CB049C012C9DC0012D9D900D3C9D900D11241E
:205960008C5B9C4F67ED71E00E94D40B009749F5EDECF0E0949108C08091C00085FFFCCFA4
:205980009093C600319694919923B1F7E9E9F5E0949108C08091C00085FFFCCF9093C60031
:2059A000319694919923B1F78AE595E0B801A7012AE030E00E94AB318091C00085FFFCCF9A
:2059C0008DC08091CA049091CB048C9DE0018D9DD00D9C9DD00D1124CE018C5B9C4F6AE262
:2059E00070E00E94BB0B9C01009709F44FC040E010E0CE0102C01E274F5FFC01E40FF11D1D
:205A0000EC5BFC4FE081EA32B1F73093C5042093C404C901019660E070E00E9414090E9476
:205A2000F95C212F30E02617370709F45DC0EDECF0E0949108C08091C00085FFFCCF909343
:205A4000C600319694919923B1F7EBE7F5E0949108C08091C00085FFFCCF9093C6003196CC
:205A600094919923B1F7409105035091060360910703709108038AE595E02AE030E00E9433
:205A8000AB318091C00085FFFCCF28C0EDECF0E0949108C08091C00085FFFCCF9093C60083
:205AA000319694919923B1F7E2E5F5E0949108C08091C00085FFFCCF9093C6003196949118
:205AC0009923B1F78AE595E0B801A7012AE030E00E94AB318091C00085FFFCCF8AE08093E8
:205AE000C6000E94C8134AC08091D0049091D104A091D204B091D304809305039093060318
:205B0000A0930703B09308033EC0CE016AE270E00E94BB0B009709F436C0EDECF0E09491D1
:205B200008C08091C00085FFFCCF9093C600319694919923B1F7E9E2F5E0949108C08091A6
:205B4000C00085FFFCCF9093C600319694919923B1F740910503509106036091070370913E
:205B600008038AE595E02AE030E00E94AB318091C00085FFFCCF8AE08093C6001092C904CC
:205B80001092C804B6C08091CA049091CB048C9D80018D9D100D9C9D100D1124E801CC5BC6
:205BA000DC4FCE0167E470E00E94BB0B9C01009709F441C09093C5048093C4042F5F3F4FD3
:205BC0002C1B3D0B200F311FC9018C5B9C4F60E070E00E9414090E94F95C6430710558F57E
:205BE00080910303882399F49B2DE6E2F5E008C08091C00085FFFCCF9093C6003196949134
:205C00009923B1F78091C00085FFFCCF12C09A2DEEEAF4E008C08091C00085FFFCCF9093B0
:205C2000C600319694919923B1F78091C00085FFFCCF9092C6008091CA049091CB040196E0
:205C400064E070E00E945B609093CB048093CA048091D4049091D50401969093D5048093F7
:205C6000D4041092C9041092C80424C02B3311F48092C7048091C7048823E1F42091C80472
:205C80003091C9048091CA049091CB048C9DF0018D9DF00D9C9DF00D1124E20FF31FEC5BB1
:205CA000FC4F8091C60480832F5F3F4F3093C9042093C80480915605909157052091580599
:205CC00030915905821B930B8F779070892B89F08091D4049091D50404975CF48AE595E085
:205CE0000E94CA30282F8093C6048A3009F0BECDCDCDDF91CF911F910F91FF90EF90DF905F
:205D0000CF90BF90AF909F908F9008958091D4049091D504039714F40E941C2C8091D40453
:205D20009091D504892BC1F00E94861D8091D4049091D50401979093D5048093D40480914C
:205D4000420390914303019664E070E00E945B6090934303809342030E9463540E94EA1158
:205D60000E94BF4F0895EF92FF920F931F93DF93CF9300D0CDB7DEB78AE595E040E950ED69
:205D800063E070E00E949230EBE7F6E0949108C08091C00085FFFCCF9093C6003196949182
:205DA0009923B1F78091C00085FFFCCF8AE08093C60047EC50E0FA01949108C08091C00000
:205DC00085FFFCCF9093C600319694919923B1F784B7282F80FF15C0E3E7F6E0949108C0C8
:205DE0008091C00085FFFCCF9093C600319694919923B1F78091C00085FFFCCF8AE08093AD
:205E0000C60021FF15C0E3E6F6E0949108C08091C00085FFFCCF9093C6003196949199238A
:205E2000B1F78091C00085FFFCCF8AE08093C60022FF15C0E2E5F6E0949108C08091C00006
:205E400085FFFCCF9093C600319694919923B1F78091C00085FFFCCF8AE08093C60023FF35
:205E600015C0E2E4F6E0949108C08091C00085FFFCCF9093C600319694919923B1F780915A
:205E8000C00085FFFCCF8AE08093C60025FF15C0E2E3F6E0949108C08091C00085FFFCCF0F
:205EA0009093C600319694919923B1F78091C00085FFFCCF8AE08093C60014BEEAE2F6E0D2
:205EC000949108C08091C00085FFFCCF9093C600319694919923B1F7E4E2F6E0949108C0F3
:205EE0008091C00085FFFCCF9093C600319694919923B1F78091C00085FFFCCF8AE08093AC
:205F0000C600FA019491E7ECF0E008C08091C00085FFFCCF9093C600319694919923B1F7D7
:205F2000E4E1F6E0949108C08091C00085FFFCCF9093C600319694919923B1F7E9E0F6E0E1
:205F4000949108C08091C00085FFFCCF9093C600319694919923B1F7EDEFF5E0949108C05D
:205F60008091C00085FFFCCF9093C600319694919923B1F7E1EFF5E0949108C08091C00065
:205F800085FFFCCF9093C600319694919923B1F78091C00085FFFCCF8AE08093C600FA011B
:205FA0009491E7ECF0E008C08091C00085FFFCCF9093C600319694919923B1F7E2EEF5E053
:205FC000949108C08091C00085FFFCCF9093C600319694919923B1F720914E0B30914F0B56
:205FE000CE0101962115310519F484559B4002C0821B930B9A83898369817A818AE595E01F
:206000004AE050E00E94E031EBECF5E0949108C08091C00085FFFCCF9093C60031969491E5
:206020009923B1F78AE595E060ED74E04AE050E00E94E0318091C00085FFFCCF8AE08093CD
:20604000C6001092CC041092CD041092CE041092CF0480E00E94F618EE24FF248701055585
:206060001A4FF701E158FA4F60817181828193810E942A5DF701E159FA4F20813181428199
:2060800053810E946A5F0E94FE5CF801608371838283938384E090E0E80EF91E90E1E91689
:2060A000F104E1F60E9413540E94D9390E94D0480F900F90CF91DF911F910F91FF90EF9031
:2060C00008951F920F920FB60F9211242F933F934F938F939F93EF93FF934091C600E09150
:2060E0005605F091570531969F012F773070319780915805909159052817390739F0EA5222
:20610000FB4F40833093570520935605FF91EF919F918F914F913F912F910F900FBE0F906A
:206120001F9018959A01AB01203081EE380780E0480780E0580749F182E08093C00060E0A1
:2061400079E08DE390E00E9490602150304040405040CA01B90122E030E040E050E00E94FA
:2061600090603093C5002093C4008091C10080618093C1008091C10088608093C10080910A
:20618000C10080688093C10008951092C00020E130E0E7CF20915805309159058091560523
:2061A000909157058217930719F42FEF3FEF0EC0F901EA52FB4F80812F5F3F4F2F77307025
:2061C0003093590520935805282F30E0C901089580915805909159059093570580935605E6
:2061E000089508952F923F924F925F926F927F928F929F92AF92BF92CF92DF92EF92FF9227
:206200000F931F93DF93CF93CDB7DEB7A0970FB6F894DEBF0FBECDBF1C016A017B01411565
:2062200051056105710549F440E350E060E070E020E030E00E94AB3156C0882499245401AA
:20624000422E55246624772401E010E00C0F1D1F080D191DC701B601A30192010E946E6097
:20626000F80160830894811C911CA11CB11CC701B601A30192010E946E60C901DA016C019A
:206280007D01C114D104E104F104F1F681E0E82EF12CEC0EFD1EE80CF91C3E010894611C0B
:2062A000711CD501C4010197A109B1096C01C818D90816C0F601EE0DFF1D40814A3010F469
:2062C000405D01C0495C552747FD5095652F752FC10120E030E00E94AB310894E108F10810
:2062E0006E147F0439F7A0960FB6F894DEBF0FBECDBFCF91DF911F910F91FF90EF90DF904F
:20630000CF90BF90AF909F908F907F906F905F904F903F902F9008952115310539F4809191
:20632000C00085FFFCCF4093C60008950E94F2300895EF92FF920F931F939A01E62EFF247F
:2063400000E010E0B801A7010E948C311F910F91FF90EF900895EF92FF920F931F93CF93EA
:20636000DF93EC017A018B012115310539F48091C00085FFFCCFE092C6001BC02A3031055B
:20638000B1F477FF10C04DE250E060E070E020E030E00E94AB3110950095F094E094E11C66
:2063A000F11C011D111DCE01B801A7012AE00E94F230DF91CF911F910F91FF90EF900895BB
:2063C000EF92FF920F931F937B019A010027F7FC0095102FB801A7010E94AB311F910F9123
:2063E000FF90EF9008950F931F938C014DE050E060E070E020E030E00E94AB31C8014AE0A3
:2064000050E060E070E020E030E00E94AB311F910F910895CF92DF92EF92FF920F931F9309
:206420008C019A016B01EE24FF24B701A6010E948C31C8010E94F3311F910F91FF90EF90E8
:20644000DF90CF9008959F92AF92BF92CF92DF92EF92FF920F931F93CF93DF93EC017A019A
:206460008B01922ECB01BA0120E030E040E050E00E948A5C88236CF4CE014DE250E060E0E8
:2064800070E020E030E00E94AB3117FB109517F9109520E030E040E05FE3AA240BC0CA01DC
:2064A000B90120E030E040E251E40E94915C9B01AC01A394A91498F3C801B7010E94B15B35
:2064C0007B018C010E94FE5C5B016C010E942A5D9B01AC01C801B7010E94B05B7B018C0145
:2064E000CE01B601A5012AE030E00E948C319920A1F1ECEDF1E007C08091C00085FFFCCF1B
:2065000031969093C60090819923B1F726C0C801B70120E030E040E251E40E946A5F7B01A1
:206520008C010E94F95C5B016C01CC24B7FCC094DC2CCE01B601A5012AE030E00E94AB314B
:20654000C601B5010E942C5D9B01AC01C801B7010E94B05B7B018C019A949920C1F6DF9105
:20656000CF911F910F91FF90EF90DF90CF90BF90AF909F9008950E94233208952F923F920F
:206580004F925F926F927F928F929F92AF92BF92CF92DF92EF92FF920F931F93DF93CF9327
:2065A000CDB7DEB7CD55D0400FB6F894DEBF0FBECDBF2F969FAF8EAF2F9761967FAF6EAFF1
:2065C00061972A0162962FAF629763960FAF63976496EFAE64976896ACAEBDAECEAEDFAEBA
:2065E0006897E22EFF24EE0CFF1CEE0CFF1C9A012E0D3F1D2D963FAF2EAF2D97D9016D90E4
:206600007D908D909C90FC01EE0DFF1DC401B30120813181428153810E94B15B69AF7AAFBE
:206620008BAF9CAF10E0000F111F000F111FF201E00FF11F2B96FFAFEEAF2B97A080B18056
:20664000C280D3802F96EEADFFAD2F97E00FF11FC601B50120813181428153810E94B15BBF
:206660006DAB7EAB8FAB98AF64962FAD6497E22FF0E0EE0FFF1FEE0FFF1F2F96AEADBFADE4
:206680002F97AE0FBF1F4D915D916D917C9129964CAF5DAF6EAF7FAF299761966EAD7FADB3
:2066A0006197E60FF71F608171818281938129962CAD3DAD4EAD5FAD29970E94B05B69ABE3
:2066C0007AAB8BAB9CAB6196AEADBFAD61971C968D919D910D90BC91A02D25968CAF9DAF6B
:2066E000AEAFBFAF25972F96AEADBFAD2F971C962D913D914D915C911F9721962CAF3DAF84
:206700004EAF5FAF2197A401930150582DA73EA74FA758ABB601A501705849A75AA76BA7FB
:206720007CA761966EAD7FAD6197E60EF71ED7016D917D918D919C9129AD3AAD4BAD5CAD0A
:206740000E94B05B3B014C016196EEADFFAD61970E0F1F1FD8016D917D918D919C912DA96C
:206760003EA94FA958AD0E94B05B5B016C016DA57EA58FA598A9A60195010E946A5F7B01F1
:206780008C0169A57AA58BA59CA5A40193010E946A5F9B01AC01C801B7010E94B05B1B0197
:2067A0002C016DA57EA58FA598A9A40193010E946A5F7B018C0169A57AA58BA59CA5A60110
:2067C00095010E946A5F9B01AC01C801B7010E94B15B9B01AC01C201B1010E94245C5B0104
:2067E0006C0120E030E040E050E00E948A5C882354F4C601B5012BED3FE049EC50E40E9492
:20680000B15B5B016C01E7968FADE797882351F0C601B5012BED3FE049EC50E40E94B05BB6
:206820005B016C01C601B501E6962CAD3DAD4EAD5FADE6970E946A5F29A93AA94BA95CA936
:206840005F770E94A55E7B018C012FE632E143E85AE30E948A5C87FDF6C1C801B7010E943E
:20686000675D0E94FE5C78A76FA3672B21F4E1E0F0E0F8A7EFA32FA138A5B90180E090E087
:206880000E942A5D7B018C01C601B501A80197010E94915C6BA37CA38DA39EA369A97AA9A6
:2068A0008BA99CA9A80197010E94915C6F8F78A389A39AA325966CAD7DAD8EAD9FAD2597CC
:2068C00021962CAD3DAD4EAD5FAD21970E94B05BA80197010E94915C6B8F7C8F8D8F9E8FB4
:2068E0006BA17CA18DA19EA120E030E040E05FEB0E946A5F2BA13CA14DA15EA10E946A5F1C
:2069000020E030E040E85FE30E94B15B6F8B788F898F9A8F64963FAD6497E32FF0E0EE0F4D
:20692000FF1FEE0FFF1F9E012F5F3F4FE20FF31F29964CAD5DAD6EAD7FAD29974083518300
