:100000000C941D090C949F100C94CC100C94F910B6
:100010000C9445090C9445090C9445090C94450928
:100020000C9445090C9445090C9445090C94450918
:100030000C9445090C94F0430C9445090C94450923
:100040000C9445090C94734B0C94C20E0C94450906
:100050000C94A42A0C9445090C9445090C94450968
:100060000C9445090C9445090C9445090C944509D8
:100070000C9445090C9445090C944509084AD73B52
:100080003BCE016E84BCBFFDC12F3D6C74319ABD67
:1000900056833DDA3D00C77F11BED9E4BB4C3E918B
:1000A0006BAAAABE000000803F05A84CCDB2D44E7A
:1000B000B93836A9020C50B9918688083CA6AAAA7C
:1000C0002ABE000000803F00002100240027002AF3
:1000D0000000002200250028002B00000020002343
:1000E00000260029000202020202020202040404A5
:1000F00004040404040303030303030303010101D1
:1001000001010101010102040810204080010204E4
:100110000810204080010204081020408080402008
:1001200010080402010000000102000000000000AD
:1001300000040307060000000000000000000000AB
:1001400000000000006563686F3A004572726F72CC
:100150003A005072696E7465722073746F707065C6
:10016000642064756520746F206572726F72732EDF
:100170002046697820746865206572726F7220610C
:100180006E6420757365204D39393920746F207283
:100190006573746172742E202854656D7065726188
:1001A000747572652069732072657365742E2053AF
:1001B0006574206974206166746572207265737459
:1001C000617274696E6729005072696E746572207D
:1001D00068616C7465642E206B696C6C28292063DF
:1001E000616C6C656421006F6B00526573656E64B1
:1001F0003A20002200556E6B6E6F776E20636F6D34
:100200006D616E643A2022007A5F6D696E3A20005B
:10021000795F6D696E3A2000785F6D696E3A2000F3
:100220005A3A00593A0020436F756E7420583A20AC
:1002300000453A005A3A00593A00583A00464952A5
:100240004D574152455F4E414D453A4D61726C6983
:100250006E2056313B20537072696E7465722F6741
:1002600072626C206D617368757020666F722067B2
:10027000656E36204649524D574152455F55524CA6
:100280003A687474703A2F2F7777772E6D656E64A5
:10029000656C2D70617274732E636F6D2050524FB8
:1002A000544F434F4C5F56455253494F4E3A312EAF
:1002B00030204D414348494E455F545950453A4DD1
:1002C000656E64656C2045585452554445525F43F1
:1002D0004F554E543A310A0020423A0020453A0028
:1002E000543A0020573A0020453A00543A00204240
:1002F000403A0020403A00202F0020423A00202FB0
:10030000006F6B20543A002569206D696E2C202502
:100310006920736563000000000000000000000019
:1003200000000000000000000000000000000000CD
:1003300048430000484300005C430000484300007D
:10034000484300005C430000A0400000A0400000C3
:10035000803FFFFFFF5072696E7465722073746F87
:10036000707065642064756520746F206572726FAB
:1003700072732E2046697820746865206572726FEA
:100380007220616E6420757365204D39393920748F
:100390006F20726573746172742E202854656D70BD
:1003A0006572617475726520697320726573657416
:1003B0002E20536574206974206166746572207202
:1003C000657374617274696E6729006F6B004E6F9C
:1003D000204C696E65204E756D6265722077697478
:1003E0006820636865636B73756D2C204C61737452
:1003F000204C696E653A20004E6F20436865636B40
:1004000073756D2077697468206C696E65206E75F0
:100410006D6265722C204C617374204C696E653A74
:100420002000636865636B73756D206D69736D6122
:100430007463682C204C617374204C696E653A209B
:10044000004C696E65204E756D626572206973207F
:100450006E6F74204C617374204C696E65204E750C
:100460006D6265722B312C204C617374204C696E67
:10047000653A20004D313130002020506C616E6EA5
:10048000657242756666657242797465733A2000DA
:100490002046726565204D656D6F72793A20004A7D
:1004A000616E203133203230313300436F6D70691B
:1004B0006C65643A2000286E6F6E652C206465665A
:1004C00061756C7420636F6E6669672900207C20FB
:1004D000417574686F723A20004A616E2031332092
:1004E000323031332031303A34333A353700204C12
:1004F00061737420557064617465643A2000312E14
:10050000302E30004D61726C696E200020536F6692
:100510007477617265205265736574002057617449
:100520006368646F67205265736574002042726F60
:10053000776E206F7574205265736574002045785E
:100540007465726E616C20526573657400506F77CC
:1005500065725570007374617274002200656E716B
:100560007565696E672022002200656E7175656988
:100570006E672022006563686F3A0020746F6F20F9
:100580006C6F6E6720657874727573696F6E20701A
:10059000726576656E7465640020636F6C642065B7
:1005A0007874727573696F6E2070726576656E749B
:1005B00065640045313A200045303A20005A3A201F
:1005C00000593A2000583A20004D53312C4D5332F7
:1005D0002050696E730A0024F404D9201BC40C5CFB
:1005E0000E9804C4095F0265077101F405F900FB68
:1005F00004B30048048700C1036900580355000391
:10060000034500BE023A008402310053022A002949
:1006100002250004022000E4011C00C8011900AFFB
:10062000011700980114008401130071011000618A
:1006300001100051010E0043010D0036010B002B8B
:10064000010B0020010B00150109000C010900033A
:10065000010800FB000800F3000800EB000700E4BD
:10066000000600DE000600D8000600D2000600CC1E
:10067000000500C7000500C2000500BD000400B968
:10068000000400B5000400B1000400AD000400A99E
:10069000000400A5000300A20003009F0004009BCB
:1006A00000030098000300950002009300030090EF
:1006B0000003008D0002008B00030088000200860A
:1006C00000020084000300810002007F0002007D20
:1006D0000002007B00020079000200770001007632
:1006E0000002007400020072000100710002006F3D
:1006F0000002006D0001006C0002006A0001006948
:10070000000200670001006600010065000100644E
:100710000002006200010061000100600001005F52
:100720000002005D0001005C0001005B0001005A56
:100730000001005900010058000100570001005657
:100740000001005500010054000100530000005357
:100750000001005200010051000100500001004F53
:100760000001004E0000004E0001004D0001004C51
:100770000001004B0000004B0001004A000100494D
:100780000001004800000048000100470001004649
:100790000000004600010045000000450001004443
:1007A000000100430000004300010042000000423D
:1007B0000001004100000041000100400001003F35
:1007C0000000003F0001003E0000003E0001003D2F
:1007D0000000003D0001003C0000003C0000003C27
:1007E0000001003B0000003B0001003A0000003A1D
:1007F0000001003900000039000100380000003815
:10080000000000380001003700000037000100360A
:100810000000003600000036000100350000003501
:1008200000000035000100340000003400000034F6
:1008300000010033000000330000003300010032EB
:1008400000000032000000320001003100000031E1
:1008500000000031000100300000003000000030D6
:100860000001002F0000002F0000002F0000002FCB
:100870000001002E0000002E0000002E0001002DBF
:100880000000002D0000002D0000002D0001002CB4
:100890000000002C0000002C0000002C0001002BA8
:1008A0000000002B0000002B0000002B0001002A9C
:1008B0000000002A0000002A0000002A0001002990
:1008C0000000002900000029000000290000002984
:1008D0000001002800000028000000280000002877
:1008E000000000280001002700000027000000276A
:1008F000000000270000002700010026000000265D
:10090000000000260000002600000026000100254F
:100910000000002500000025000000250000002543
:100920000000002500010024000000240000002435
:100930000000002400000024000100230000002328
:10094000000000230000002300000023000000231B
:10095000000000230001002200000022000000220D
:1009600000000022000000220000002200010021FF
:1009700000000021000000210000002100000021F3
:1009800000000021000000210001002000000020E4
:1009900000000020000000200000002000000020D7
:1009A00000000020000000200001001F0000001FC8
:1009B0000000001F0000001F0000001F0000001FBB
:1009C0000000001F0001001E0000001E0000001EAD
:1009D0000000001E00000024F4D43050C38E20C25A
:1009E000A24017828B7011127A910D816CD90AA8DE
:1009F00061E108C7586607615143061E4B5D05C19A
:100A000045A7041A411104093D9803713931034087
:100A100036DB0265339102D4305402802E1D02630E
:100A20002CEE01752AC501B028A001102781018F85
:100A30002564012B244B01E0223401AC211F018DE0
:100A4000200D01801FFC00841EED00971DDF00B803
:100A50001CD200E61BC600201BBC00641AB200B208
:100A600019A8000A19A0006A189900D1179100402E
:100A7000178B00B516840031167E00B31579003A45
:100A8000157300C7146F0058146A00EE13660088CF
:100A900013630025135E00C7125B006C125700152C
:100AA000125400C111510070114F0021114B00D69A
:100AB0001049008D1047004610440002104200C04B
:100AC0000F4000800F3E00420F3C00060F3B00CB62
:100AD0000E3800930E37005C0E3500270E3400F3FD
:100AE0000D3200C10D3100900D3000600D2E00322E
:100AF0000D2D00050D2C00D90C2B00AE0C29008506
:100B00000C29005C0C2700350C27000E0C2600E891
:100B10000B2400C40B2400A00B23007D0B23005AE0
:100B20000B2100390B2100180B2000F80A1F00D9F7
:100B30000A1E00BB0A1E009D0A1D00800A1D0063DC
:100B40000A1C00470A1B002C0A1B00110A1A00F796
:100B5000091A00DD091900C4091900AB091900922E
:100B60000917007B091800630917004C09160036A5
:100B7000091600200916000A091500F5081500E0FD
:100B8000081400CC081400B8081400A4081400903D
:100B90000813007D0812006B081300580812004665
:100BA0000812003408110023081100120811000176
:100BB000081100F0071000E0071000D0071000C077
:100BC000071000B0070F00A107100091070E008367
:100BD000070F0074070F0065070E0057070E004946
:100BE000070E003B070D002E070E0020070D001317
:100BF000070D0006070D00F9060C00ED060D00E0DC
:100C0000060C00D4060C00C8060C00BC060C00B094
:100C1000060C00A4060B0099060C008D060B008242
:100C2000060B0077060B006C060B0061060A0057E6
:100C3000060B004C060A0042060A0038060A002E7F
:100C4000060A0024060A001A060A00100609000710
:100C5000060A00FD050900F4050900EB050900E29C
:100C6000050900D9050900D0050900C7050900BE1E
:100C7000050900B5050800AD050800A50509009C9B
:100C8000050800940508008C050800840508007C10
:100C9000050800740508006C050700650508005D7F
:100CA000050700560508004E0507004705070040E8
:100CB00005080038050700310507002A050700234D
:100CC0000507001C050600160507000F05070008AC
:100CD00005060002050700FB040600F5040700EE08
:100CE000040600E8040600E2040700DB040600D561
:100CF000040600CF040600C9040600C3040600BDB4
:100D0000040600B7040600B1040500AC040600A602
:100D1000040600A00405009B04060095040500904D
:100D20000406008A04050085040500800406007A94
:100D300004050075040500700405006B04050066D9
:100D4000040500610405005C040500570405005219
:100D50000405004D04050048040500430405003E59
:100D60000404003A04050035040500300404002C96
:100D700004050027040400230405001E0404001ACF
:100D800004040016040500110404000D0404000905
:100D90000405000404040000040400FC030400F83B
:100DA000030400F4030400F0030400EC030400E86F
:100DB000030400E4030400E0030400DC030400D89F
:100DC000030400D4030400D0030400CC030400C8CF
:100DD000030300C50303006563686F3A00205A3AB5
:100DE0000020593A0020583A00656E6473746F70A1
:100DF00073206869743A20004572726F723A005429
:100E0000656D706572617475726520686561746581
:100E10006420626564207377697463686564206F19
:100E200066662E204D415854454D502074726967B6
:100E30006765726564202121003A204578747275D7
:100E4000646572207377697463686564206F666691
:100E50002E204D494E54454D502074726967676588
:100E60007265642021003A20457874727564657259
:100E7000207377697463686564206F66662E204D01
:100E8000415854454D5020747269676765726564B6
:100E9000202100202D20496E76616C6964206578E0
:100EA000747275646572206E756D626572202100C2
:100EB000504944204175746F74756E652066696E83
:100EC0006973686564202120506C616365207468D3
:100ED00065204B702C204B6920616E64204B642090
:100EE000636F6E7374616E747320696E20746865CD
:100EF00020636F6E66696775726174696F6E2E68C4
:100F000000504944204175746F74756E65206661A8
:100F1000696C6564212074696D656F75740020408B
:100F20003A006F6B20543A006F6B20423A005049F0
:100F300044204175746F74756E65206661696C65D7
:100F400064212054656D70657261747572652074DA
:100F50006F206869676800204B643A2000204B6965
:100F60003A2000204B703A200020436C6173696383
:100F70002050494420002054753A2000204B753AF7
:100F80002000206D61783A2000206D696E3A2000C3
:100F900020643A200020626961733A20001000C981
:100FA0000210012C014001220170011801B0010E54
:100FB00001F00104015002FA00B002F0003003E633
:100FC00000D003DC009004D2007005C800A006BE6B
:100FD000000008B400B009AA00D00BA000600E9673
:100FE0000060118C000015820020197800C01D6E71
:100FF00000A0226400B0275A00902C500000314617
:1010000000E0343C0010383200903A2800603C1E6A
:1010100000A03D1400803E0A00203F000065636888
:101020006F3A0053746F7265642073657474696EEF
:101030006773207265747265697665643A0020444E
:10104000002049002020204D3330312050005049ED
:10105000442073657474696E67733A00205A0020E7
:10106000590020204D323036205800486F6D6520E1
:101070006F666673657420286D6D293A00204500FF
:10108000205A0020580020420020540020204D32D9
:101090003035205300416476616E6365642076616B
:1010A000726961626C65733A20533D4D696E2066CA
:1010B0006565647261746520286D6D2F73292C201D
:1010C000543D4D696E2074726176656C206665656D
:1010D000647261746520286D6D2F73292C20423D48
:1010E0006D696E696D756D207365676D656E7420D1
:1010F00074696D6520286D73292C20583D6D6178C9
:10110000696D756D207859206A65726B20286D6D48
:101110002F73292C20205A3D6D6178696D756D20E3
:101120005A206A65726B20286D6D2F732900205438
:101130000020204D323034205300416363656C65DC
:10114000726174696F6E3A20533D616363656C65CB
:10115000726174696F6E2C20543D726574726163A4
:101160007420616363656C65726174696F6E0020E1
:101170004500205A0020590020204D32303120589F
:10118000004D6178696D756D20416363656C6572B2
:101190006174696F6E20286D6D2F7332293A0020BB
:1011A0004500205A0020590020204D32303320586D
:1011B000004D6178696D756D206665656472617456
:1011C000657320286D6D2F73293A00204500205A41
:1011D0000020590020204D3932205800537465708A
:1011E000732070657220756E69743A00536574746B
:1011F000696E67732053746F72656400494E464987
:101200004E4954594E414ECDCCCC3D0AD7233C17C4
:10121000B7D13877CC2B329595E6241FB14F0A0011
:101220000020410000C84200401C4620BCBE4CCA01
:101230001B0E5AAEC59D7400342B11241FBECFEF78
:10124000D0E1DEBFCDBF12E0A0E0B1E0E6E2F5EC18
:1012500002C005900D92AA3DB107D9F71BE0AAED97
:10126000B2E001C01D92AA36B107E1F712E1CAE36C
:10127000D2E104C02297FE010E944B62C833D1071D
:10128000C9F70E942B5D0C9491620C940000A0E0C1
:10129000B0E0EDE4F9E00C946062EC015B016115F3
:1012A000710519F0FB0191838083F9908F2D90E0F7
:1012B0000E944F62892BC9F7FDE2FF1621F4F990D5
:1012C000EE24E39405C02BE2F21609F4F990EE2423
:1012D0008E0101501040C8016CEF71E143E050E015
:1012E0000E94D60B892B01F58E010E5F1F4FC8019E
:1012F0006FEF71E145E050E00E94D60B892B19F4A5
:101300008E01095F1F4FA114B10419F0F50111837B
:101310000083E0FC04C070E090E080E814C070E05E
:1013200090E080E86FEF08C1C80164E072E143E03B
:1013300050E00E94D60B892B69F4A114B10429F462
:1013400070E090E080EC6FE7F7C02296F501D18362
:10135000C083F6CF8824992440E050E060E070E03C
:10136000EF2DE053EA30A0F5F2E0EF2A8E2D90E069
:101370009C0128703070E2FE06C0232B79F508949A
:10138000811C911C2BC0232B19F008948108910813
:10139000DB01CA0112E0880F991FAA1FBB1F1A9513
:1013A000D1F7480F591F6A1F7B1F440F551F661F37
:1013B000771F4E0F511D611D711D483929E95207D4
:1013C00029E9620729E1720748F084E0E82A06C0AB
:1013D000EE3F31F4E3FC39C098E0E92AF990C0CF40
:1013E000E53311F0E53189F529912D3219F4E0E169
:1013F000EE2A05C02B3219F081E090E003C029915C
:1014000082E090E0E22FE053EA3018F0C81BD90BDD
:101410001CC020E030E0FCE020383F075CF4C9014C
:10142000880F991F880F991F280F391F220F331F0C
:101430002E0F311DE991E053EA3068F3E4FE03C05A
:10144000309521953F4F820E931ECE2CDD24E1FE78
:1014500007C0A114B10421F02197F501D183C08305
:10146000CB01BA010E94B45E7B018C01F3E0CF2274
:10147000DD2423E0C216D10421F417FB109517F9DF
:10148000109557016801C801B70120E030E040E045
:1014900050E00E94145E882309F44AC097FE0DC0F4
:1014A0002BE1E22E22E1F22E909481949108939404
:1014B000C0E2D0E000E010E012C093E3E92E92E138
:1014C000F92EF6CFF7012591359145915491C6013A
:1014D000B5010E94F4605B016C018C1A9D0A8C16A8
:1014E0009D0684F7D595C7950F5F1F4F06301105F0
:1014F00029F08CEF9FEFE80EF91EF1CFC501D60160
:101500007C018D018C2D880F8D2D881F8F3F51F010
:10151000C601B50120E030E040E050E00E94145EDA
:10152000882331F482E290E09093690B8093680BFA
:101530007E2D9F2D802F612F272F392F482F562F3B
:10154000B901CA01CDB7DEB7ECE00C947C622F92F2
:101550003F925F926F927F928F929F92AF92BF92D3
:10156000CF92DF92EF92FF920F931F93CF93DF936F
:101570008C011B01EA016115710519F0FB019183D2
:101580008083209749F0CE010297839728F020E0CE
:1015900030E040E050E0F6C0F801A1908F018A2DC4
:1015A00090E00E944F62892BB9F7FDE2AF1631F44B
:1015B000F801A1908F015524539407C0FBE2AF16A8
:1015C00019F4F801A1908F015524209719F0C0312A
:1015D000D105C1F4F0E3AF1679F4F80180818837C2
:1015E00011F0883549F4F801A1800E5F1F4FF2E039
:1015F0005F2AC0E1D0E006C0209721F480E3A8165E
:10160000E9F427C0C830D10531F1C930D10524F43F
:10161000C230D10531F50CC0CA30D10589F0C031D6
:10162000D105F9F4C12CD12CE12CB8E0FB2E28C057
:10163000C12CD12CE12CA0E4FA2E22C0CAE0D0E0CB
:10164000FCECCF2EFCECDF2EFCECEF2EFCE0FF2EB2
:1016500017C0C8E0D0E0C12CD12CE12CE0E1FE2E77
:101660000FC09E01442737FD4095542F60E070E085
:1016700080E090E80E94F861C901DA016C017D0107
:1016800020E030E040E050E060E03E01882477FC5C
:101690008094982C70EDB72EBA0CE9E0EB1570F43D
:1016A0008A2D81548A3118F499ECB92E06C08A2DFE
:1016B00081568A3150F589EAB82EBA0C8B2D90E00C
:1016C0008C179D0714F56F3FE1F0C216D306E406B0
:1016D000F506B0F0CA01B901A40193010E94C661E8
:1016E0009B01AC012B0D311D411D511D2130F0E03E
:1016F0003F07F0E04F07F0E85F0710F461E001C03A
:101700006FEFF801A1908F01C5CF2114310481F052
:10171000662331F001501040F1011183008308C0AD
:1017200051FE1AC002501040F1011183008314C011
:1017300067FF12C050FC05C02FEF3FEF4FEF5FE790
:1017400004C020E030E040E050E882E290E0909376
:10175000690B8093680B16C050FE08C050954095E9
:10176000309521953F4F4F4F5F4F0CC057FF0AC038
:1017700082E290E09093690B8093680B2FEF3FEF2C
:101780004FEF5FE7B901CA01DF91CF911F910F9130
:10179000FF90EF90DF90CF90BF90AF909F908F9091
:1017A0007F906F905F903F902F900895FB01DC0138
:1017B0004150504088F08D9181341CF08B350CF4F1
:1017C000805E659161341CF06B350CF4605E861BA5
:1017D000611171F3990B0895881BFCCFFB015591A2
:1017E0005523A9F0BF01DC014D9145174111E1F7E7
:1017F00059F4CD010590002049F04D91401541115B
:10180000C9F3FB014111EFCF81E090E0019708950A
:10181000FC018191861721F08823D9F79927089533
:101820003197CF010895FB01DC014150504030F069
:101830008D910190801919F40020B9F7881B990B3C
:101840000895AEE0B0E0E7E2FCE00C9468620D8938
:101850001E898EE08C831A8309838FEF9FE79E8316
:101860008D839E01275E3F4FCE0101966F89788D53
:10187000A9010E94450C2F813885020F131FF80122
:1018800010822E96E4E00C948462ABE0B0E0EBE4CE
:10189000FCE00C945A623C012B015A01FC011782B6
:1018A0001682838181FD03C06FEF7FEFC6C19AE08E
:1018B000892E1E010894211C311CF3012381F201A1
:1018C00023FD859123FF81912F01882309F4B2C163
:1018D000853239F423FD859123FF81912F018532D3
:1018E00029F490E0B3010E94380EE7CF982FFF242F
:1018F000EE249924FFE1FF15D0F09B3269F09C3271
:1019000028F4903259F0933291F40EC09D3249F090
:10191000903369F441E024C052E0F52A84E0F82ACB
:1019200028C098E0F92A25C0E0E1FE2A22C0F7FC91
:1019300029C0892F80538A3070F4F6FE05C0989C28
:10194000902C1124980E15C0E89CE02C1124E80E70
:10195000F0E2FF2A0EC09E3229F4F6FC6BC140E48F
:10196000F42A07C09C3619F450E8F52A02C09836CC
:1019700049F4F20123FD959123FF91912F019923C1
:1019800009F0B8CF892F8554833018F08052833006
:1019900038F444E050E0A40EB51E5FE359830FC055
:1019A000933631F0933779F0933509F056C020C063
:1019B000F5018081898342E050E0A40EB51E6101EB
:1019C00001E010E012C0F501C080D180F6FC03C038
:1019D0006FEF7FEF02C0692D70E042E050E0A40E8F
:1019E000B51EC6010E942D0E8C015FE7F52214C0C2
:1019F000F501C080D180F6FC03C06FEF7FEF02C01D
:101A0000692D70E042E050E0A40EB51EC6010E94B0
:101A1000220E8C0150E8F52AF3FE07C01AC080E2BE
:101A200090E0B3010E94380EEA948E2D90E00817E2
:101A30001907A8F30EC0F601F7FC8591F7FE819116
:101A40006F0190E0B3010E94380EE110EA9401505A
:101A500010400115110579F7EAC0943611F0993656
:101A600069F5F7FE08C0F50120813181428153817B
:101A700084E090E00AC0F501808191819C014427B7
:101A800037FD4095542F82E090E0A80EB91E9FE6E6
:101A9000F92257FF09C050954095309521953F4F49
:101AA0004F4F5F4FE0E8FE2ACA01B901A1012AE0C9
:101AB00030E00E94640ED82ED21840C0953729F429
:101AC0001F2D1F7E2AE030E01DC01F2D197F9F367D
:101AD00061F0903720F4983509F0ACC00FC0903712
:101AE00039F0983709F0A6C004C028E030E00AC0F9
:101AF000106114FD146020E130E004C014FD166094
:101B000020E132E017FF08C0F50160817181828118
:101B1000938144E050E008C0F50180819181BC01CF
:101B200080E090E042E050E0A40EB51EA1010E94CA
:101B3000640ED82ED2188FE7F82EF122F6FE0BC0D5
:101B40005EEFF522D91438F4F4FE07C0F2FC05C0AC
:101B50008FEEF82202C01D2D01C0192DF4FE0DC01C
:101B6000FE01ED0DF11D8081803319F499EEF9220B
:101B700008C01F5FF2FE05C003C08F2D867809F0F4
:101B80001F5F0F2DF3FC14C0F0FE0FC01E1510F0E8
:101B90009D2C0BC09D2C9E0C911A1E2D06C080E220
:101BA00090E0B3010E94380E1F5F1E15C0F304C001
:101BB0001E1510F4E11A01C0EE2404FF0FC080E3EB
:101BC00090E0B3010E94380E02FF1DC001FD03C06A
:101BD00088E790E00EC088E590E00BC0802F867803
:101BE00091F001FF02C08BE201C080E2F7FC8DE2C0
:101BF00090E0B3010E94380E06C080E390E0B3018C
:101C00000E94380E9A94D914C0F3DA94F101ED0DC4
:101C1000F11D808190E0B3010E94380EDD20A9F70C
:101C200006C080E290E0B3010E94380EEA94EE20F4
:101C3000C1F743CEF30166817781CB012B96E2E1B8
:101C40000C947662FC010590615070400110D8F749
:101C5000809590958E0F9F1F0895FC0161507040F4
:101C600001900110D8F7809590958E0F9F1F0895D1
:101C70000F931F93CF93DF938C01EB018B8181FF37
:101C80001BC082FF0DC02E813F818C819D81281752
:101C9000390764F4E881F9810193F983E88306C088
:101CA000E885F985802F0995892B31F48E819F81F4
:101CB00001969F838E8302C00FEF1FEFC801DF9153
:101CC000CF911F910F910895FA01AA27283051F161
:101CD000203181F1E8946F936E7F6E5F7F4F8F4F5D
:101CE0009F4FAF4FB1E03ED0B4E03CD0670F781FBC
:101CF000891F9A1FA11D680F791F8A1F911DA11DA1
:101D00006A0F711D811D911DA11D20D009F46894D9
:101D10003F912AE0269F11243019305D3193DEF681
:101D2000CF010895462F4770405D4193B3E00FD037
:101D3000C9F7F6CF462F4F70405D4A3318F0495D22
:101D400031FD4052419302D0A9F7EACFB4E0A69505
:101D50009795879577956795BA95C9F70097610527
:101D6000710508959B01AC010A2E0694579547957D
:101D700037952795BA95C9F7620F731F841F951F72
:101D8000A01D08951F920F920FB60F9211242F934A
:101D90003F938F939F93AF93BF938091DE02909177
:101DA000DF02A091E002B091E1023091E2020196DF
:101DB000A11DB11D232F2D5F2D3720F02D5701962A
:101DC000A11DB11D2093E2028093DE029093DF02F9
:101DD000A093E002B093E1028091DA029091DB02DD
:101DE000A091DC02B091DD020196A11DB11D80938E
:101DF000DA029093DB02A093DC02B093DD02BF9184
:101E0000AF919F918F913F912F910F900FBE0F90A7
:101E10001F9018958FB7F8942091DE023091DF0261
:101E20004091E0025091E1028FBFB901CA010895CB
:101E30009B01AC017FB7F8948091DA029091DB02AC
:101E4000A091DC02B091DD0266B5A89B05C06F3F92
:101E500019F00196A11DB11D7FBFBA2FA92F982F90
:101E60008827860F911DA11DB11D62E0880F991F63
:101E7000AA1FBB1F6A95D1F7BC012DC0FFB7F8940C
:101E80008091DA029091DB02A091DC02B091DD0238
:101E9000E6B5A89B05C0EF3F19F00196A11DB11D45
:101EA000FFBFBA2FA92F982F88278E0F911DA11D34
:101EB000B11DE2E0880F991FAA1FBB1FEA95D1F759
:101EC000861B970B885E9340C8F2215030404040FB
:101ED000504068517C4F211531054105510571F67F
:101EE0000895789484B5826084BD84B5816084BD92
:101EF00085B5826085BD85B5816085BDEEE6F0E083
:101F0000808181608083E1E8F0E0108280818260DE
:101F10008083808181608083E0E8F0E0808181605F
:101F20008083E1EBF0E0808184608083E0EBF0E08F
:101F3000808181608083EAE7F0E080818460808333
:101F400080818260808380818160808380818068DD
:101F500080831092C10008951F93CF93DF93182FB1
:101F6000EB0161E00E940C10209709F44AC0CF3FBA
:101F7000D10509F449C0E12FF0E0EB5DFE4F8491FB
:101F80008330C1F0843028F4813051F08230B1F5D3
:101F90000CC0863019F1873049F1843079F514C0CE
:101FA00084B5806884BDC7BD33C084B5806284BDFC
:101FB000C8BD2EC080918000806880938000D0933F
:101FC0008900C093880024C0809180008062809343
:101FD0008000D0938B00C0938A001AC08091B0001B
:101FE00080688093B000C093B30012C08091B000AD
:101FF00080628093B000C093B4000AC0C038D1059D
:102000001CF4812F60E002C0812F61E00E944B1020
:10201000DF91CF911F910895CF93DF93482F50E028
:10202000CA018B5F9E4FFC0134914B515F4FFA0107
:102030008491882369F190E0880F991FFC01E9538E
:10204000FF4FA591B491FC01EF52FF4FC591D49180
:10205000662351F42FB7F8948C91932F9095892390
:102060008C93888189230BC0623061F42FB7F89478
:102070008C91932F909589238C938881832B8883CF
:102080002FBF06C09FB7F8948C91832B8C939FBF72
:10209000DF91CF910895482F50E0CA018B5D9E4F8C
:1020A000FC012491CA018B5F9E4FFC0194914B511E
:1020B0005F4FFA013491332309F440C0222351F1D8
:1020C000233071F0243028F42130A1F0223011F5B2
:1020D00014C02630B1F02730C1F02430D9F404C048
:1020E000809180008F7703C0809180008F7D8093E6
:1020F000800010C084B58F7702C084B58F7D84BD09
:1021000009C08091B0008F7703C08091B0008F7DAF
:102110008093B000E32FF0E0EE0FFF1FEF52FF4F70
:10212000A591B4912FB7F894662321F48C919095E2
:10213000892302C08C91892B8C932FBF08951F9205
:102140000F920FB60F9211242F933F934F935F93EB
:102150006F937F938F939F93AF93BF93EF93FF936F
:102160008091E3029091E402892B29F0E091E3024F
:10217000F091E4020995FF91EF91BF91AF919F918A
:102180008F917F916F915F914F913F912F910F9020
:102190000FBE0F901F9018951F920F920FB60F92BF
:1021A00011242F933F934F935F936F937F938F935C
:1021B0009F93AF93BF93EF93FF938091E50290912C
:1021C000E602892B29F0E091E502F091E6020995FB
:1021D000FF91EF91BF91AF919F918F917F916F91FF
:1021E0005F914F913F912F910F900FBE0F901F90D5
:1021F00018951F920F920FB60F9211242F933F93B1
:102200004F935F936F937F938F939F93AF93BF93FE
:10221000EF93FF938091E7029091E802892B29F0D8
:10222000E091E702F091E8020995FF91EF91BF91EB
:10223000AF919F918F917F916F915F914F913F915E
:102240002F910F900FBE0F901F901895EF92FF9255
:102250000F931F93CF93DF93EC01E0900B03F0906B
:102260000C0300910D0310910E03688179818A811E
:102270009B81A80197010E94145E882324F4E882C0
:10228000F9820A831B83E0900F03F0901003009102
:102290001103109112036C817D818E819F81A801B1
:1022A00097010E94145E882324F4EC82FD820E8341
:1022B0001F83E0901303F090140300911503109115
:1022C0001603688579858A859B85A80197010E94F8
:1022D000145E882324F4E886F9860A871B87E09039
:1022E0003002F09031020091320210913302688185
:1022F00079818A819B81A80197010E94226018162A
:1023000024F4E882F9820A831B83E0903402F0907F
:10231000350200913602109137026C817D818E81E9
:102320009F81A80197010E942260181624F4EC8274
:10233000FD820E831F83E0903802F09039020091F5
:102340003A0210913B02688579858A859B85A801B0
:1023500097010E942260181624F4E886F9860A87FD
:102360001B87DF91CF911F910F91FF90EF90089500
:102370008091220308950E94E84A809122038823D5
:1023800009F036C081E0809322038091240390916C
:102390002503A0912603B0912703809328039093EF
:1023A0002903A0932A03B0932B03EBE4F1E094916B
:1023B00008C08091C00085FFFCCF9093C600319685
:1023C00094919923B1F7E2E5F1E0949108C08091EE
:1023D000C00085FFFCCF9093C6003196949199235D
:1023E000B1F78091C00085FFFCCF8AE08093C600E2
:1023F0000895F8940E94E84A5E9A5E9A159A5E9A49
:10240000EBE4F1E0949108C08091C00085FFFCCF1F
:102410009093C600319694919923B1F7E8ECF1E0DE
:10242000949108C08091C00085FFFCCF9093C600B6
:10243000319694919923B1F78091C00085FFFCCF2C
:102440008AE08093C600FFCF0E940A0F60932C039E
:1024500070932D0380932E0390932F03E7EEF1E00A
:10246000949108C08091C00085FFFCCF9093C60076
:10247000319694919923B1F78091C00085FFFCCFEC
:102480008AE08093C6000895EF92FF920F931F9306
:102490000E940A0FE0903003F09031030091320364
:1024A0001091330320912C0330912D0340912E0382
:1024B00050912F03621B730B840B950BE616F706E6
:1024C0000807190738F4E114F1040105110511F0AA
:1024D0000E94F91180913C0290913D02A0913E0230
:1024E000B0913F020097A105B10529F10E940A0FA2
:1024F00020912C0330912D0340912E0350912F03F6
:10250000621B730B840B950B20913C0230913D02B2
:1025100040913E0250913F0226173707480759075E
:1025200050F49091B30A8091B40A981721F45E9AFE
:102530005E9A159A5E9A0E949C311F910F91FF90AE
:10254000EF9008956F927F928F929F92AF92BF9279
:10255000CF92DF92EF92FF920F931F93F82E60912C
:1025600034037091350380913603909137032091A5
:1025700038033091390340913A0350913B030E9454
:102580002F603B014C0100D000D000D00DB71EB72A
:102590000F5F1F4F60912C0270912D02882777FDED
:1025A0008095982F0E94B65E2091400230914102A2
:1025B00040914202509143020E94F46020E030E0DA
:1025C00040E752E40E941B5E20E030E048EC52E419
:1025D0000E941B5E5B016C01F80160827182828245
:1025E0009382F4828091170385838FEE92E060E4FA
:1025F00073E044E353E020E001E032E0E32E0E9488
:10260000FF2C8091400390914103A0914203B0912F
:1026100043038093EF029093F002A093F102B093F2
:10262000F2028091440390914503A0914603B0913A
:1026300047038093F3029093F402A093F502B093C2
:10264000F6028091480390914903A0914A03B0910A
:102650004B038093F7029093F802A093F902B09392
:10266000FA0280914C0390914D03A0914E03B091DA
:102670004F038093FB029093FC02A093FD02B09362
:10268000FE028DB79EB706960FB6F8949EBF0FBE9A
:102690008DBF0E940A0F60932C0370932D038093CB
:1026A0002E0390932F031F910F91FF90EF90DF90D7
:1026B000CF90BF90AF909F908F907F906F90089534
:1026C000CF92DF92EF92FF920F931F9380E493E0FB
:1026D0000E9426110E940A0F60932C0370932D0311
:1026E00080932E0390932F036091EF027091F0027C
:1026F0008091F1029091F2022091400330914103C8
:1027000040914203509143030E94145E882309F0D4
:102710007AC06091F3027091F4028091F502909179
:10272000F6022091440330914503409146035091B5
:1027300047030E94145E882309F065C0609140023F
:1027400070914102809142029091430220E030E07A
:1027500040E752E40E941B5E7B018C0180E493E021
:1027600064E473E048E453E02CE433E0E7E1CE2E88
:10277000E3E0DE2E0E94D936809140039091410320
:10278000A0914203B09143038093EF029093F00233
:10279000A093F102B093F20280914403909145031B
:1027A000A0914603B09147038093F3029093F40203
:1027B000A093F502B093F6028091480390914903EB
:1027C000A0914A03B0914B038093F7029093F802D3
:1027D000A093F902B093FA0280914C0390914D03BB
:1027E000A0914E03B0914F038093FB029093FC02A3
:1027F000A093FD02B093FE021F910F91FF90EF9006
:10280000DF90CF90089560912C0270912D0288275F
:1028100077FD8095982F0E94B65E209140023091FE
:10282000410240914202509143020E94F46020E034
:1028300030E040E752E40E941B5E20E030E048ECCC
:1028400052E488CF81E795E00E942B2BEAEEF1E07D
:10285000949108C08091C00085FFFCCF9093C60082
:10286000319694919923B1F7409124035091250317
:1028700060912603709127034F5F5F4F6F4F7F4F2B
:1028800081E795E02AE030E00E94EC2B8091C000C7
:1028900085FFFCCF8AE08093C6000E942412089531
:1028A0002F923F924F925F926F927F928F929F9260
:1028B000AF92BF92CF92DF92EF92FF920F931F934E
:1028C000DF93CF9300D000D000D0CDB7DEB78C011E
:1028D0008330910508F051C13C01660C771C660CF1
:1028E000771C930121513D4F3A83298380E090E08A
:1028F000A0E0B0E0F90180839183A283B3838FEEDF
:1029000092E063EF72E047EF52E02BEF32E00E947B
:10291000E931F301E65CFC4F6591759185919491E5
:102920000E5A1C4FF801E4909301205C3C4F3E830B
:102930002D8320E030E040EC5FE30E94F4605B0117
:102940006C01FF24E7FCF0940F2D1F2DC801B70187
:102950000E94B65E1B012C01C601B501A2019101C6
:102960000E94F460AD81BE816D937D938D939C93A5
:102970001397F301E45EFD4FFC83EB83608171816B
:10298000828193816093400270934102809342025E
:102990009093430220E030E040E752E40E941B5E47
:1029A0007B018C0180E493E064E473E048E453E04D
:1029B0002CE433E0A7E1CA2EA3E0DA2E0E94D93638
:1029C0000E94DD4380E090E0A0E0B0E0E981FA8180
:1029D00080839183A283B3838FEE92E063EF72E0F2
:1029E00047EF52E02BEF32E00E94E931F301EA5B5E
:1029F000FC4F85909590A590B490C501B401905876
:102A0000A20191010E94F460AD81BE816D937D931E
:102A10008D939C9313976091400270914102809135
:102A200042029091430220E030E040E752E40E94ED
:102A30001B5E7B018C0180E493E064E473E048E476
:102A400053E02CE433E00E94D9360E94DD43C501F7
:102A5000B401A50194010E943B5DA20191010E9475
:102A6000F460ED81FE816083718382839383AB8107
:102A7000BC816D917D918D919C9120E030E040E092
:102A80005FE30E94F4606093400270934102809380
:102A900042029093430220E030E040E752E40E947B
:102AA0001B5E7B018C0180E493E064E473E048E406
:102AB00053E02CE433E00E94D9360E94DD43F30159
:102AC000EA5EFC4F6591759185919491F301E15017
:102AD000FD4FA080B180C280D380A60195010E94E5
:102AE0003B5D7B018C01CB01D801E981FA818083B8
:102AF0009183A283B383F301EE5DFC4F65917591E1
:102B000085919491FBE08F2EF3E09F2E860C971C0D
:102B1000A60195010E943B5DD4016D937D938D9339
:102B20009C931397F301E25DFC4F6591759185913C
:102B30009491E0E3F2E06E0E7F1EA60195010E94E3
:102B40003B5DD3016D937D938D939C931397C70148
:102B5000D801ED81FE8180839183A283B38380E0DD
:102B600090E0A0E0B0E08093400290934102A093F7
:102B70004202B09343020E94244326960FB6F89473
:102B8000DEBF0FBECDBFCF91DF911F910F91FF90A0
:102B9000EF90DF90CF90BF90AF909F908F907F90FD
:102BA0006F905F904F903F902F900895FC0194910B
:102BB00008C08091C00085FFFCCF9093C60031967D
:102BC00094919923B1F781E795E022E030E00E94EB
:102BD000FC2C0895FC01949108C08091C00085FFF1
:102BE000FCCF9093C600319694919923B1F781E779
:102BF00095E022E030E00E94FC2C0895FC019491C5
:102C000008C08091C00085FFFCCF9093C60031962C
:102C100094919923B1F781E795E02AE030E00E9492
:102C2000CD2B0895682F20915B0330915C0380E6E3
:102C300090E0AC01249FC001259F900D349F900D22
:102C40001124835A9C4F70E00E94080C9C019093C1
:102C50005A038093590380E0232B09F081E0089503
:102C60008091590390915A03019660E070E04AE028
:102C700050E00E94A70A08958091590390915A0349
:102C8000019660E070E00E9447090895CF93DF93BA
:102C9000EC01809117038093230384E50E941216B0
:102CA000882309F45BC00E943C160E94885E262F90
:102CB00060932303662309F451C0E5E4F1E09491A5
:102CC00008C08091C00085FFFCCF9093C60031966C
:102CD00094919923B1F7C936D10551F0CD36D1057C
:102CE00021F0C836D10551F506C0E0E0F1E023C07F
:102CF000E7E1F1E015C0EEE2F1E007C08091C0002D
:102D000085FFFCCF31969093C60090819923B1F74F
:102D100015C08091C00085FFFCCF31969093C6000E
:102D200090819923B1F70AC08091C00085FFFCCF44
:102D300031969093C60090819923B1F781E795E091
:102D4000622F40E050E00E94DA2B8091C00085FFA6
:102D5000FCCF8AE08093C60081E001C080E0DF9173
:102D6000CF910895AF92BF92CF92DF92EF92FF92F0
:102D70000F931F93CF93DF931FEEE12E12E0F12EFE
:102D8000C0E4D3E000E010E0F801E559FD4F808198
:102D90000E941216882339F10E943C165B016C01D7
:102DA000F801E751FD4F8081882311F061E002C0F6
:102DB0006091500370E0882777FD8095982F0E94DE
:102DC000B65EF70120813181428153810E94F46017
:102DD0009B01AC01C601B5010E943B5D688379830C
:102DE0008A839B8309C0F70180819181A281B3818D
:102DF00088839983AA83BB830F5F1F4F84E090E091
:102E0000E80EF91E24960430110509F0BDCF86E4C2
:102E10000E9412168823E1F00E943C167B018C016F
:102E20006093510370935203809353039093540320
:102E300020E030E040E050E00E942260181644F4A8
:102E4000E0924002F092410200934202109343024A
:102E5000DF91CF911F910F91FF90EF90DF90CF9076
:102E6000BF90AF9008950E94B21689E40E94121696
:102E7000882359F00E943C16609334037093350305
:102E800080933603909337030CC080E090E0A0E07D
:102E9000B0E08093340390933503A0933603B0934E
:102EA00037038AE40E941216882359F00E943C16C8
:102EB000609338037093390380933A0390933B03F4
:102EC000089580E090E0A0E0B0E080933803909314
:102ED0003903A0933A03B0933B0308952F923F9296
:102EE0004F925F926F927F928F929F92AF92BF921A
:102EF000CF92DF92EF92FF920F931F93DF93CF93C6
:102F0000CDB7DEB76E970FB6F894DEBF0FBECDBF5C
:102F100087E40E941216882309F48CC30E943C1691
:102F20000E94835E6430710509F441C0653071050B
:102F300054F46230710541F1633071056CF577230B
:102F4000CCF40C9402266A35710509F41EC36B3566
:102F5000710534F46C31710511F00C94022669C0CE
:102F60006B35710509F415C36C35710511F00C94BE
:102F7000022614C380912203882331F40E94B216E2
:102F80000E9460130C94232680912203882321F44D
:102F90000E94331781E007C080912203882339F40F
:102FA0000E94331780E00E94A2120C94232680E531
:102FB0000E941216882321F4EE24FF24870106C004
:102FC0000E943C160E94885E7B018C0183E50E9472
:102FD0001216882361F00E943C1620E030E04AE798
:102FE00054E40E94F4600E94885E7B018C010E9480
:102FF000DD430E940A0F5B016C01AE0CBF1CC01EBA
:10300000D11E0E940A0F60932C0370932D038093AE
:103010002E0390932F0304C00E94304E0E9444124E
:103020000E940A0F6A157B058C059D05A8F30C9478
:1030300002268091400290914102A0914202B091FB
:1030400043028093550390935603A0935703B09384
:10305000580380912C0290912D029093EE02809360
:10306000ED0284E690E090932D0280932C020E9462
:103070000A0F60932C0370932D0380932E0390937B
:103080002F0381E00E942B438091EF029091F00288
:10309000A091F102B091F20280934003909341031A
:1030A000A0934203B09343038091F3029091F40202
:1030B000A091F502B091F6028093440390934503EA
:1030C000A0934603B09347038091F7029091F802D2
:1030D000A091F902B091FA028093480390934903BA
:1030E000A0934A03B0934B038091FB029091FC02A2
:1030F000A091FD02B091FE0280934C0390934D038A
:10310000A0934E03B0934F0380E090E0A0E0B0E0C6
:103110008093400290934102A0934202B0934302F5
:1031200088E50E941216882361F489E50E94121630
:10313000882339F48AE50E941216882311F481E06D
:1031400001C080E080934402882361F488E50E94F6
:103150001216882309F462C189E50E941216882399
:1031600009F45CC180E090E0A0E0B0E08093EF0261
:103170009093F002A093F102B093F2028093F302D5
:103180009093F402A093F502B093F6028FEE92E0D2
:1031900063EF72E047EF52E02BEF32E00E94E9313B
:1031A00080E090E0A6E9B3EC809340039093410364
:1031B000A0934203B0934303809344039093450349
:1031C000A0934603B093470320911C0230911D0247
:1031D00040911E0250911F02209340023093410201
:1031E0004093420250934302E0902002F09021026B
:1031F0000091220210912302C801B7010E94145EBF
:10320000882344F4E0924002F0924102009342028B
:1032100010934302609140027091410280914202FA
:103220009091430220E030E040E752E40E941B5EB0
:103230007B018C0180E493E064E473E048E453E0B4
:103240002CE433E0E7E1CE2EE3E0DE2E0E94D93617
:103250000E94DD43E6E1F3E06591759185919491DB
:103260002091FF023091000340910103509102032D
:103270000E943B5D6093EF027093F0028093F10235
:103280009093F202E2E2F3E0659175918591949159
:103290002091FF02309100034091010350910203FD
:1032A0000E943B5D60930B0370930C0380930D03AE
:1032B00090930E03EEE2F3E0659175918591949100
:1032C0002091FF02309100034091010350910203CD
:1032D0000E943B5D60933002709331028093320212
:1032E00090933302EAE1F3E06591759185919491B1
:1032F000209103033091040340910503509106038C
:103300000E943B5D6093F3027093F4028093F50298
:103310009093F602E6E2F3E06591759185919491C0
:10332000209103033091040340910503509106035B
:103330000E943B5D60930F03709310038093110311
:1033400090931203E2E3F3E0659175918591949176
:10335000209103033091040340910503509106032B
:103360000E943B5D60933402709335028093360275
:10337000909337028FEE92E063EF72E047EF52E0F6
:103380002BEF32E00E94E9318091EF029091F00240
:10339000A091F102B091F202809340039093410317
:1033A000A0934203B09343038091F3029091F402FF
:1033B000A091F502B091F6028093440390934503E7
:1033C000A0934603B093470360914002709141027D
:1033D000809142029091430220E030E040E752E4C5
:1033E0000E941B5E7B018C0180E493E064E473E047
:1033F00048E453E02CE433E00E94D93680E090E0CA
:10340000A0E0B0E08093400290934102A09342027A
:10341000B09343020E94DD430E9424438091440202
:10342000882329F488E50E941216882321F080E081
:1034300090E00E94501480914402882329F489E589
:103440000E941216882321F081E090E00E9450141F
:1034500080914402882329F48AE50E941216882369
:1034600021F082E090E00E94501488E50E9412163C
:103470008823D9F00E9430166115710581059105E8
:10348000A1F00E943C162091FF0230910003409170
:103490000103509102030E943B5D6093EF02709321
:1034A000F0028093F1029093F20289E50E941216D5
:1034B0008823D9F00E9430166115710581059105A8
:1034C000A1F00E943C162091030330910403409127
:1034D0000503509106030E943B5D6093F3027093D5
:1034E000F4028093F5029093F6028AE50E94121688
:1034F0008823D9F00E943016611571058105910568
:10350000A1F00E943C1620910703309108034091DE
:10351000090350910A030E943B5D6093F702709388
:10352000F8028093F9029093FA028FEE92E063EF33
:1035300072E047EF52E02BEF32E00E94E9318091D8
:10354000550390915603A0915703B091580380936F
:10355000400290934102A0934202B09343028091B3
:10356000ED029091EE0290932D0280932C020E9426
:103570000A0F60932C0370932D0380932E03909376
:103580002F030E9424430C940226109250030C94A3
:10359000022681E0809350030C94022685E40E9469
:1035A0001216882311F40E94DD435FEEE52E52E0EF
:1035B000F52E4FEFC42E42E0D42E00E010E0F801CB
:1035C000E559FD4F80810E941216882331F10330A6
:1035D00061F40E943C16F7016083718382839383B8
:1035E0008BEF92E00E94CB3118C00E943C16F6018E
:1035F00020813181428153810E943B5DF7016083CC
:103600007183828393838FEE92E063EF72E047EFE2
:1036100052E02BEF32E00E94E9310F5F1F4F24E0B0
:1036200030E0E20EF31EC20ED31E0430110539F64F
:103630000C9402268DE40E941216882311F40C9437
:103640004C250E943C160E94835E6937710509F47F
:1036500034C76A3771050CF05FC06C35710509F429
:1036600095C56D35710564F56A32710509F47DC142
:103670006B32710574F46231710509F42DC56F3137
:10368000710509F4C7C06131710511F00C9402266F
:10369000BBC06335710509F41BC56435710534F48D
:1036A0006235710511F00C9402260FC56435710561
:1036B00009F412C56535710511F00C94022650C548
:1036C0006237710509F406C66337710574F469360B
:1036D000710509F4BDC16D36710509F48BC26836F8
:1036E000710511F00C94022682C16537710509F449
:1036F000E1C56637710534F46337710511F00C9438
:103700000226C9C56737710509F47BC068377105A2
:1037100011F00C940226CFC66D3D710511F40C9486
:10372000E8236E3D710564F56B3C710511F40C9452
:103730001F236C3C710574F46E3B710509F415C4CC
:10374000693C710509F441C76C38710511F00C949E
:1037500002266DC16D3C710511F40C945D236D3C26
:10376000710514F40C943D236E3C710511F40C9416
:10377000BB236C3D710511F00C9402260C94D923E7
:1037800031E0643F730711F40C942B2581E0653F11
:103790007807F4F491E06E32790711F40C94E42484
:1037A000E1E06F327E073CF46D52714011F00C94F1
:1037B00002260C94F72321E06F32720711F40C9467
:1037C000E8246059714011F00C9402260C942825CD
:1037D00081E0663F780711F40C94312591E0663F53
:1037E000790714F40C942E25E1E0673F7E0711F46D
:1037F0000C943425675E734011F00C9402260C94EF
:103800003725E5E4F1E064C65E985E9815985E9809
:103810000C9402260E940A0F60931E0370931F03EC
:10382000809320039093210320911A0330911B036E
:1038300040911C0350911D03621B730B840B950B6D
:1038400028EE33E040E050E00E94F861F22EE32ED3
:10385000D42EC52E2DB73EB7285030400FB6F89461
:103860003EBF0FBE2DBF0DB71EB70F5F1F4FCE015E
:103870000196EDB7FEB79283818387E093E0F8016C
:10388000938382836F2D7E2D842F952F2CE330E040
:1038900040E050E00E94F861F801358324836F2DE9
:1038A0007E2D8D2D9C2D2CE330E040E050E00E94D9
:1038B000F861F801778366830E94210CE5E4F1E06A
:1038C00094912DB73EB7285F3F4F0FB6F8943EBF97
:1038D0000FBE2DBF08C08091C00085FFFCCF909324
:1038E000C600319694919923B1F7FE01319607C035
:1038F0008091C00085FFFCCF31969093C6009081E7
:103900009923B1F78091C00085FFFCCF8AE08093B6
:10391000C6008091E205882311F40C9402261092CF
:10392000E20580911703082F10E0000F111F0C5EB5
:10393000144FF80160817181882777FD8095982F59
:103940000E94B65E2091490230914A0240914B029A
:1039500050914C020E942260181614F00C9402261A
:10396000F801118210820C94022683E50E9412163F
:10397000882311F40C9402260E943C160E94835E58
:103980007B018C016B0180E50E941216882369F08F
:10399000F7FC0BC0FFEFEF16F10409F034F40E94BE
:1039A0003C160E94835E8B0102C00FEF1FEFEFE613
:1039B000F2E0808191818017910711F40C94022626
:1039C000329622E0EF3DF207A1F717FF02C00C94F8
:1039D0000226802F61E00E940C10802F6C2D0E9427
:1039E0004B10802FB6010E94AC0F0C94022688E683
:1039F00090E00E944616882311F00C94022683E57D
:103A00000E941216882379F00E943C16209123030D
:103A1000022F10E0000F111F0C5E144F0E94835EF6
:103A2000F801718360830E94E74A0C94022683E5C3
:103A30000E941216882311F40C9402260E943C1650
:103A40000E94835E7093170B6093160B0C940226F2
:103A500089E690E00E944616882311F00C94022615
:103A6000E1E0F3E0949108C08091C00085FFFCCFB5
:103A70009093C600319694919923B1F7E091230376
:103A8000F0E0EE0FFF1FEE0FFF1FE65EF44F4081E8
:103A900051816281738181E795E021E030E00E94ED
:103AA000FC2CEEEFF2E0949108C08091C00085FFFD
:103AB000FCCF9093C600319694919923B1F7E09191
:103AC0002303F0E0EE0FFF1FEC5EF44F6081718185
:103AD000882777FD8095982F0E94B65EAB01BC01C8
:103AE00081E795E021E030E00E94FC2CEAEFF2E073
:103AF000949108C08091C00085FFFCCF9093C600D0
:103B0000319694919923B1F74091200B5091210B5C
:103B10006091220B7091230B81E795E021E030E06A
:103B20000E94FC2CE7EFF2E0949108C08091C00065
:103B300085FFFCCF9093C600319694919923B1F7FD
:103B40006091160B7091170B882777FD8095982F41
:103B50000E94B65EAB01BC0181E795E021E030E058
:103B60000E94FC2CE3EFF2E0949108C08091C00029
:103B700085FFFCCF9093C600319694919923B1F7BD
:103B8000809123030E94DC4ABC0181E795E04AE072
:103B900050E00E94212CEEEEF2E0949108C080915A
:103BA000C00085FFFCCF9093C60031969491992375
:103BB000B1F78FEF9FEF0E94DC4ABC0181E795E0EF
:103BC0004AE050E00E94212CEEE5F1E007C0809130
:103BD000C00085FFFCCF31969093C6009081992359
:103BE000B1F78091C00085FFFCCF8AE08093C600CA
:103BF0000C9423268DE690E00E944616882311F04F
:103C00000C9402261092E20583E50E941216882386
:103C100079F00E943C1620912303022F10E0000F40
:103C2000111F0C5E144F0E94835EF8017183608344
:103C300083E50E941216882351F00E943C1660937F
:103C4000490270934A0280934B0290934C0282E4A3
:103C50000E941216882351F00E943C166093450280
:103C600070934602809347029093480286E40E9434
:103C70001216882369F00E943C1660934D027093DF
:103C80004E0280934F029093500281E08093E205B0
:103C90000E94E74A0E940A0F4B015C012091230316
:103CA000022F10E07724000F111FF801EC5EF44F93
:103CB00060817181882777FD8095982F0E94B65E7C
:103CC000000F111F065E144FF801208131814281DF
:103CD00053810E942260181614F477247394CC2424
:103CE000CA94DC2C7601EBEEF2E04490E7EEF2E0D1
:103CF0005490E3EEF2E064905AE0352E29C1942D01
:103D0000EBEEF2E008C08091C00085FFFCCF9093FD
:103D1000C600319694919923B1F7E0912303F0E026
:103D2000EE0FFF1FEE0FFF1FE65EF44F4081518143
:103D30006281738181E795E021E030E00E94FC2CF4
:103D4000952DE7EEF2E008C08091C00085FFFCCF22
:103D50009093C600319694919923B1F76091230313
:103D600081E795E070E04AE050E00E94212C962D1A
:103D7000E3EEF2E008C08091C00085FFFCCF909395
:103D8000C600319694919923B1F7F7FE03C0EFE591
:103D9000F1E028C00E940A0FA7019601205F384D6C
:103DA0004F4F5F4F261B370B480B590BCA01B90108
:103DB00028EE33E040E050E00E94F86181E795E0B2
:103DC000BA01A9012AE030E00E94CD2B8091C00009
:103DD00085FFFCCF0EC08091C00085FFFCCF3196DF
:103DE0009093C60090819923B1F78091C00085FF20
:103DF000FCCF3092C6000E940A0F4B015C010E946A
:103E0000304E0E944412FFEFCF16FFEFDF06FFEFA8
:103E1000EF06FFEFFF0609F050C0E0912303772083
:103E200031F1F0E08F01000F111F000F111F065E2E
:103E3000144FEE0FFF1FEC5EF44F608171818827F5
:103E400077FD8095982F0E94B65E20E030E040E834
:103E50005FE30E943A5D9B01AC01F80160817181D2
:103E6000828193810E94226087FF58C05EC0F0E08B
:103E70008F01000F111F000F111F065E144FEE0F70
:103E8000FF1FEC5EF44F60817181882777FD80957C
:103E9000982F0E94B65E20E030E040E85FE30E9489
:103EA0003B5D9B01AC01F80160817181828193814E
:103EB0000E94145E181694F538C0F7FC36C0E091E5
:103EC0002303F0E08F01000F111F000F111F065E8A
:103ED000144FEE0FFF1FEC5EF44F60817181882755
:103EE00077FD8095982F0E94B65E9B01AC01F8018A
:103EF00060817181828193810E943A5D0E94835E1C
:103F000097FF07C090958095709561957F4F8F4F73
:103F10009F4F64307105810591053CF00E940A0FA6
:103F2000AC01CB01DA016C017D01FFEFCF16FFEF91
:103F3000DF06FFEFEF06FFEFFF0651F0F7FC65C667
:103F40000E940A0F6C197D096051774208F05DC626
:103F50000E940A0F681979098A099B09695E7340F2
:103F60008040904008F0CBCE4ACF83E50E941216E5
:103F7000882341F00E943C160E94835E7093170BC9
:103F80006093160B0E940A0F7B018C01E0EEF2E0B9
:103F9000B490ECEDF2E0C490E8EDF2E0D4907AE079
:103FA000A72E7BC00E940A0F6E197F09800B910B10
:103FB000695E73408040904008F46BC0E091170345
:103FC000F0E0EE0FFF1FEE0FFF1FE65EF44F4081A3
:103FD0005181628173819B2DE0EEF2E008C08091F7
:103FE000C00085FFFCCF9093C60031969491992331
:103FF000B1F781E795E022E030E00E94FC2C9C2D97
:10400000ECEDF2E008C08091C00085FFFCCF9093FA
:10401000C600319694919923B1F76091170381E717
:1040200095E070E04AE050E00E94212C9D2DE8EDE3
:10403000F2E008C08091C00085FFFCCF9093C600DD
:10404000319694919923B1F74091200B5091210B17
:104050006091220B7091230B81E795E021E030E025
:104060000E94FC2CEEE5F1E007C08091C00085FFC6
:10407000FCCF31969093C60090819923B1F780913F
:10408000C00085FFFCCFA092C6000E940A0F7B01F2
:104090008C010E94304E0E9444126091160B709168
:1040A000170B882777FD8095982F0E94B65E209188
:1040B000200B3091210B4091220B5091230B0E9439
:1040C000226018160CF46ECFAAC51092EC029AC5A5
:1040D00081E08093EC0296C583E50E941216882346
:1040E00099F00E943C1620E030E04AE754E40E9438
:1040F000F4600E94885E60933C0270933D0280935E
:104100003E0290933F027EC588E50E9412168823E6
:1041100009F090C589E50E941216882309F08AC526
:104120008AE50E941216882309F084C585E40E945E
:104130001216882309F07EC50E94DD435E9A0E9414
:10414000E94360C55E9A89E50E94121681115E9A64
:104150008AE50E941216882309F454C5159A52C59F
:1041600083E50E9412160E943C1620E030E04AE7E8
:1041700054E40E94F4600E94885E60933003709360
:10418000310380933203909333033CC556E8652E88
:1041900055E0752E46E7242E45E0342E32EC432EB2
:1041A00035E0532E88249924F401E559FD4F808190
:1041B0000E941216882309F45DC0F3E08F1609F0FF
:1041C00052C00E943C165B016C0120E030E040EAE6
:1041D00051E40E94145E88230CF03FC0F30160811B
:1041E000718182819381A60195010E941B5E7B01F2
:1041F0008C016091BA057091BB058091BC059091CE
:10420000BD05A80197010E94F4606093BA05709300
:10421000BB058093BC059093BD05F1016081718160
:1042200082819381A80197010E94F460F10160836B
:10423000718382839383F201608171818281938192
:104240000E94B45EA80197010E94F4600E94885EFB
:10425000F2016083718382839383F301A082B18230
:10426000C282D38207C00E943C16F301608371832F
:10427000828393830894811C911C24E030E0620EB9
:10428000731E220E331E420E531E34E08316910419
:1042900009F08ACFB7C4EDE3F2E0949108C08091B1
:1042A000C00085FFFCCF9093C6003196949199236E
:1042B000B1F7A8C48091590390915A0305966AE218
:1042C00070E00E94080CFC01009709F49BC4319730
:1042D000108298C4EAE3F2E0949108C08091C00093
:1042E00085FFFCCF9093C600319694919923B1F746
:1042F0004091EF025091F0026091F1027091F20250
:1043000081E795E022E030E00E94FC2CE7E3F2E058
:10431000949108C08091C00085FFFCCF9093C600A7
:10432000319694919923B1F74091F3025091F402A0
:104330006091F5027091F60281E795E022E030E0AD
:104340000E94FC2CE4E3F2E0949108C08091C0004C
:1043500085FFFCCF9093C600319694919923B1F7D5
:104360004091F7025091F8026091F9027091FA02BF
:1043700081E795E022E030E00E94FC2CE1E3F2E0EE
:10438000949108C08091C00085FFFCCF9093C60037
:10439000319694919923B1F74091FB025091FC0220
:1043A0006091FD027091FE0281E795E022E030E02D
:1043B0000E94FC2CE6E2F2E0949108C08091C000DB
:1043C00085FFFCCF9093C600319694919923B1F765
:1043D00080E00E94CB430E94B65E2091860530911A
:1043E000870540918805509189050E941B5EAB01AD
:1043F000BC0181E795E022E030E00E94FC2CE3E282
:10440000F2E0949108C08091C00085FFFCCF9093AA
:10441000C600319694919923B1F781E00E94CB4375
:104420000E94B65E20918A0530918B0540918C05E3
:1044300050918D050E941B5EAB01BC0181E795E0A8
:1044400022E030E00E94FC2CE0E2F2E0949108C00F
:104450008091C00085FFFCCF9093C6003196949167
:104460009923B1F782E00E94CB430E94B65E20916F
:104470008E0530918F0540919005509191050E94D5
:104480001B5EAB01BC0181E795E022E030E00E94B9
:10449000FC2CEEE5F1E007C08091C00085FFFCCF69
:1044A00031969093C60090819923B1F78091C00016
:1044B00085FFFCCFA4C380E001C081E00E942B43B4
:1044C000A1C38091C00085FFFCCF31969093C600B8
:1044D00090819923B1F78091C00085FFFCCF8AE0DD
:1044E0008093C600E8E1F2E0949108C08091C0009A
:1044F00085FFFCCF9093C600319694919923B1F734
:10450000329903C0E1E6F1E00AC0E6E6F1E007C057
:104510008091C00085FFFCCF31969093C6009081BA
:104520009923B1F78091C00085FFFCCF8AE080938A
:10453000C600E0E1F2E0949108C08091C00085FFE0
:10454000FCCF9093C600319694919923B1F733999B
:1045500003C0E1E6F1E00AC0E6E6F1E007C08091C1
:10456000C00085FFFCCF31969093C60090819923BF
:10457000B1F78091C00085FFFCCF8AE08093C60030
:10458000E8E0F2E0949108C08091C00085FFFCCF84
:104590009093C600319694919923B1F7349903C052
:1045A000E1E6F1E00AC0E6E6F1E007C08091C00074
:1045B00085FFFCCF31969093C60090819923B1F787
:1045C0008091C00085FFFCCF1AC32BE6C22E22E0EB
:1045D000D22EEE24FF24F60180810E941216882339
:1045E00009F10E943C1687010A561A4F0E94885E04
:1045F000F80160837183828393830E943C16870154
:104600000E531A4FF701EA57FA4F20813181428148
:1046100053810E94F4600E94885EF8016083718378
:10462000828393830894C11CD11C24E030E0E20E05
:10463000F31E3FE6C31632E0D30669F6E3C20BE68B
:1046400012E096E7E92E95E0F92EF80180810E94AC
:104650001216882339F00E943C16F701608371839B
:10466000828393830F5F1F4F24E030E0E20EF31E3E
:1046700032E00F36130749F7C5C283E50E941216D0
:10468000882351F00E943C166093AA057093AB05F5
:104690008093AC059093AD0584E50E9412168823A3
:1046A00009F4B0C20E943C166093AE057093AF054A
:1046B0008093B0059093B105A5C283E50E941216C0
:1046C000882351F00E943C166093A6057093A705BD
:1046D0008093A8059093A90584E50E94121688236B
:1046E00051F00E943C166093BE057093BF05809305
:1046F000C0059093C10582E40E941216882361F0E0
:104700000E943C160E94885E609372057093730548
:10471000809374059093750588E50E94121688238E
:1047200051F00E943C166093B2057093B3058093DC
:10473000B4059093B5058AE50E941216882351F0BE
:104740000E943C166093B6057093B7058093B80538
:104750009093B90585E40E941216882309F452C289
:104760000E943C166093BA057093BB058093BC050C
:104770009093BD0547C20BE612E08FEFE82E82E072
:10478000F82EF80180810E941216882339F00E94C9
:104790003C16F70160837183828393830F5F1F4F01
:1047A00024E030E0E20EF31E32E00E36130749F744
:1047B00029C283E50E941216882309F423C20E94AD
:1047C0003C160E94835E70932D0260932C021AC2E5
:1047D00083E50E941216882309F414C20E943C1635
:1047E0000E94835E70932F0260932E020BC280E5BD
:1047F0000E941216882351F00E943C1660935602C4
:1048000070935702809358029093590289E40E9452
:104810001216882381F00E943C162DEB37E346E008
:104820005EE30E94F46060935A0270935B0280938F
:104830005C0290935D0284E40E941216882381F04A
:104840000E943C162DEB37E346E05EE30E941B5EC0
:1048500060935E0270935F028093600290936102A6
:1048600083E40E941216882351F00E943C16609344
:1048700062027093630280936402909365020E94C7
:10488000C54AE0E7F1E007C08091C00085FFFCCF9A
:1048900031969093C60090819923B1F7E3E7F1E058
:1048A00007C08091C00085FFFCCF31969093C60071
:1048B00090819923B1F7409156025091570260912F
:1048C00058027091590281E795E022E030E00E94A1
:1048D000FC2CE7E7F1E007C08091C00085FFFCCF2A
:1048E00031969093C60090819923B1F760915A0256
:1048F00070915B0280915C0290915D022DEB37E339
:1049000046E05EE30E941B5EAB01BC0181E795E0DF
:1049100022E030E00E94FC2CEBE7F1E007C0809140
:10492000C00085FFFCCF31969093C60090819923FB
:10493000B1F760915E0270915F0280916002909188
:1049400061022DEB37E346E05EE30E94F460AB01C9
:10495000BC0181E795E022E030E00E94FC2CEFE70B
:10496000F1E007C08091C00085FFFCCF31969093A5
:10497000C60090819923B1F7609162027091630241
:1049800080916402909165022DEB37E346E05EE38F
:104990000E94F460AB01BC0181E795E022E030E0C9
:1049A0000E94FC2CEEE5F1E007C08091C00085FF7D
:1049B000FCCF31969093C60090819923B1F78091F6
:1049C000C00085FFFCCF1BC181E00E94C8311AC125
:1049D00085E40E941216882319F4CC24DD2412C029
:1049E0000E943C160E94835E6B0177FF0BC00F2E66
:1049F000F0E0EF2EF0E0FF2EFCE80F2FF2E41F2F87
:104A0000F02D0AC00F2EF0E0EF2EF0E0FF2EF6E1C1
:104A10000F2FF3E41F2FF02D83E50E941216882339
:104A200021F00E943C167B018C0183E40E94121647
:104A3000882319F425E030E005C00E943C160E944E
:104A4000835E9B01C801B701A6010E94E14FDAC055
:104A50000E94DD43D7C00E947154D4C00E94555BB0
:104A6000D1C00E94B956CEC00E941758CBC0109238
:104A700022038091280390912903A0912A03B091E9
:104A80002B038093240390932503A0932603B093D4
:104A900027030E942214B6C084E50E9412168823C0
:104AA00009F465C00E943C160E94885E262F609320
:104AB0002303E5E4F1E0662391F1949108C080912D
:104AC000C00085FFFCCF9093C60031969491992346
:104AD000B1F7E3E8F1E007C08091C00085FFFCCFAB
:104AE00031969093C60090819923B1F781E795E0C4
:104AF000622F40E050E00E94DA2BE5E8F1E007C0C9
:104B00008091C00085FFFCCF31969093C6009081C4
:104B10009923B1F78091C00085FFFCCF70C010923F
:104B20001703949108C08091C00085FFFCCF90933B
:104B3000C600319694919923B1F7E6E9F1E007C0F8
:104B40008091C00085FFFCCF31969093C600908184
:104B50009923B1F781E795E060E070E04AE050E02A
:104B60000E94212C8091C00085FFFCCF48C0E5E465
:104B7000F1E0949108C08091C00085FFFCCF909334
:104B8000C600319694919923B1F7E5EFF1E0949145
:104B900008C08091C00085FFFCCF9093C60031967D
:104BA00094919923B1F720915B0330915C0380E6E7
:104BB00090E0289FF001299FF00D389FF00D1124FF
:104BC000E35AFC4F07C08091C00085FFFCCF3196AF
:104BD0009093C60090819923B1F7E3EFF1E09491AF
:104BE00008C08091C00085FFFCCF9093C60031962D
:104BF00094919923B1F78091C00085FFFCCF8AE0A2
:104C00008093C6000E9424121EC00E940A0F609367
:104C10001A0370931B0380931C0390931D030E943F
:104C20000A0F60932C0370932D0380932E039093AF
:104C30002F03E8CF0E94DD4388E50E9412168823E7
:104C400009F080CA80CA6E960FB6F894DEBF0FBE18
:104C5000CDBFCF91DF911F910F91FF90EF90DF902B
:104C6000CF90BF90AF909F908F907F906F905F900C
:104C70004F903F902F9008958F929F92AF92BF9246
:104C8000CF92DF92EF92FF920F931F93CF93DF9318
:104C9000A0E6CA2ED12CE5E5F3E0A490FAE09F2E21
:104CA000EBECF3E0B490882483940BC22D3071F0C8
:104CB0002A3321F48091DE04882341F08091DF04BF
:104CC0009091E0048F3591050CF4D7C1E091DF0499
:104CD000F091E004309719F41092DE042BC2A091F9
:104CE000E104B091E204AC9D8001AD9D100DBC9D2E
:104CF000100D1124E00FF11FE35AFC4F1082809138
:104D0000DE04882309F0B4C11092DE04AD51BB4F1C
:104D10001C92E801C35ADC4FCE016EE470E00E94A1
:104D2000080C9C01009709F4F7C090935A038093F4
:104D300059032F5F3F4F2C1B3D0B200F311FC90123
:104D4000835A9C4F60E070E04AE050E00E94A70A5E
:104D50006093E7047093E8048093E9049093EA0475
:104D6000E0902403F090250300912603109127037F
:104D7000A80197012F5F3F4F4F4F5F4F6217730797
:104D80008407950709F4BCC18091E1049091E20485
:104D90009C012C9DC0012D9D900D3C9D900D1124DA
:104DA000835A9C4F64E774E00E94EE0B892B09F054
:104DB000A7C1EBE4F1E0949108C08091C00085FFA9
:104DC000FCCF9093C600319694919923B1F7E1E41A
:104DD000F4E0949108C08091C00085FFFCCF9093CF
:104DE000C600319694919923B1F781E795E0B80117
:104DF000A7012AE030E00E94EC2B8091C00085FFE3
:104E0000FCCF73C01E274F5FFC01E40FF11DE35A76
:104E1000FC4FE081EA32B1F730935A0320935903F3
:104E2000C901019660E070E00E9447090E94835E1C
:104E3000212F30E02617370709F45DC0EBE4F1E0DD
:104E4000949108C08091C00085FFFCCF9093C6006C
:104E5000319694919923B1F7E2E2F4E0949108C07D
:104E60008091C00085FFFCCF9093C600319694914D
:104E70009923B1F7409124035091250360912603B3
:104E80007091270381E795E02AE030E00E94EC2B47
:104E90008091C00085FFFCCF28C0EBE4F1E0949145
:104EA00008C08091C00085FFFCCF9093C60031966A
:104EB00094919923B1F7E8EFF3E0949108C08091C1
:104EC000C00085FFFCCF9093C60031969491992342
:104ED000B1F781E795E0B801A7012AE030E00E9430
:104EE000EC2B8091C00085FFFCCF8AE08093C60048
:104EF0000E9422144AC08091E7049091E804A09196
:104F0000E904B091EA048093240390932503A093CD
:104F10002603B09327033EC0CE016AE270E00E94F0
:104F2000080C009709F436C0EBE4F1E0949108C056
:104F30008091C00085FFFCCF9093C600319694917C
:104F40009923B1F7EEECF3E0949108C08091C00092
:104F500085FFFCCF9093C600319694919923B1F7C9
:104F600040912403509125036091260370912703FB
:104F700081E795E02AE030E00E94EC2B8091C000B0
:104F800085FFFCCF8AE08093C6001092E004109267
:104F9000DF04D0C08091E1049091E2048C9D8001F7
:104FA0008D9D100D9C9D100D1124E801C35ADC4FFE
:104FB000CE0167E470E00E94080C9C01009709F4A0
:104FC00041C090935A03809359032F5F3F4F2C1B8E
:104FD0003D0B200F311FC901835A9C4F60E070E0E8
:104FE0000E9447090E94835E6430710558F58091E4
:104FF0002203882399F49B2DEBECF3E008C0809109
:10500000C00085FFFCCF9093C60031969491992300
:10501000B1F78091C00085FFFCCF12C09A2DE5E565
:10502000F3E008C08091C00085FFFCCF9093C600DC
:10503000319694919923B1F78091C00085FFFCCF00
:105040009092C6008091E1049091E204019664E0A0
:1050500070E00E94E5619093E2048093E104809106
:10506000EB049091EC0401969093EC048093EB0494
:105070001092E0041092DF0424C02B3311F48092CC
:10508000DE048091DE048823E1F42091DF04309176
:10509000E0048091E1049091E2048C9DF0018D9DEB
:1050A000F00D9C9DF00D1124E20FF31FE35AFC4F0D
:1050B0008091DD0480832F5F3F4F3093E004209385
:1050C000DF0480916D0590916E0520916F05309100
:1050D0007005821B930B8F779070892B59F180910B
:1050E000EB049091EC0404972CF581E795E00E9485
:1050F0000D2B282F8093DD048A3009F0D7CDE6CD23
:105100008091E1049091E2048C9DE0018D9DD00D91
:105110009C9DD00D1124CE01835A9C4F6AE270E011
:105120000E94080C9C01009709F4B7CE10E040E003
:10513000CE016ACEDF91CF911F910F91FF90EF903A
:10514000DF90CF90BF90AF909F908F900895809107
:10515000EB049091EC04039714F40E943C26809198
:10516000EB049091EC04892BC1F00E946E178091A2
:10517000EB049091EC0401979093EC048093EB0482
:1051800080915B0390915C03019664E070E00E9463
:10519000E56190935C0380935B030E94304E0E9414
:1051A00044120E94274A0895EF92FF920F931F9393
:1051B000DF93CF9300D0CDB7DEB781E795E040E92C
:1051C00050ED63E070E00E94D52AE5E5F5E09491AA
:1051D00008C08091C00085FFFCCF9093C600319637
:1051E00094919923B1F78091C00085FFFCCF8AE0AC
:1051F0008093C60045E451E0FA01949108C0809183
:10520000C00085FFFCCF9093C600319694919923FE
:10521000B1F784B7282F80FF15C0EDE4F5E0949135
:1052200008C08091C00085FFFCCF9093C6003196E6
:1052300094919923B1F78091C00085FFFCCF8AE05B
:105240008093C60021FF15C0EDE3F5E0949108C0FE
:105250008091C00085FFFCCF9093C6003196949159
:105260009923B1F78091C00085FFFCCF8AE080933D
:10527000C60022FF15C0ECE2F5E0949108C08091D1
:10528000C00085FFFCCF9093C6003196949199237E
:10529000B1F78091C00085FFFCCF8AE08093C60003
:1052A00023FF15C0ECE1F5E0949108C08091C000A7
:1052B00085FFFCCF9093C600319694919923B1F766
:1052C0008091C00085FFFCCF8AE08093C60025FF57
:1052D00015C0ECE0F5E0949108C08091C00085FF16
:1052E000FCCF9093C600319694919923B1F78091A9
:1052F000C00085FFFCCF8AE08093C60014BEE4E0C6
:10530000F5E0949108C08091C00085FFFCCF909398
:10531000C600319694919923B1F7EEEFF4E09491A1
:1053200008C08091C00085FFFCCF9093C6003196E5
:1053300094919923B1F78091C00085FFFCCF8AE05A
:105340008093C600FA019491E5E4F1E008C08091F1
:10535000C00085FFFCCF9093C600319694919923AD
:10536000B1F7EEEEF4E0949108C08091C00085FFA3
:10537000FCCF9093C600319694919923B1F7E9ED53
:10538000F4E0949108C08091C00085FFFCCF909319
:10539000C600319694919923B1F7EDECF4E0949125
:1053A00008C08091C00085FFFCCF9093C600319665
:1053B00094919923B1F7E6EBF4E0949108C08091C1
:1053C000C00085FFFCCF9093C6003196949199233D
:1053D000B1F78091C00085FFFCCF8AE08093C600C2
:1053E000EBEAF4E0949108C08091C00085FFFCCF07
:1053F0009093C600319694919923B1F7EFE9F4E0C8
:10540000949108C08091C00085FFFCCF9093C600A6
:10541000319694919923B1F78091C00085FFFCCF1C
:105420008AE08093C600FA019491E5E4F1E008C0B7
:105430008091C00085FFFCCF9093C6003196949177
:105440009923B1F7E0E9F4E0949108C08091C0009D
:1054500085FFFCCF9093C600319694919923B1F7C4
:105460002091640B3091650BCE0101962115310519
:1054700019F48A569B4002C0821B930B9A8389833E
:1054800069817A8181E795E04AE050E00E94212C11
:10549000E9E7F4E0949108C08091C00085FFFCCF5B
:1054A0009093C600319694919923B1F781E795E0E6
:1054B00060ED74E04AE050E00E94212C8091C00031
:1054C00085FFFCCF8AE08093C6001092E30410921F
:1054D000E4041092E5041092E6040E94555BEE2469
:1054E000FF2487010E531A4FF701EA56FA4F6081E5
:1054F0007181828193810E94B45EF701EA57FA4F6D
:1055000020813181428153810E94F4600E94885E33
:10551000F801608371838283938384E090E0E80ED6
:10552000F91E90E1E916F104E1F60E94B14D0E94E6
:1055300010340E9434430F900F90CF91DF911F9150
:105540000F91FF90EF9008951F920F920FB60F9258
:1055500011242F933F934F938F939F93EF93FF9338
:105560004091C600E0916D05F0916E0531969F0166
:105570002F773070319780916F05909170052817C3
:10558000390739F0E351FB4F408330936E05209388
:105590006D05FF91EF919F918F914F913F912F91C9
:1055A0000F900FBE0F901F9018959A01AB012030FD
:1055B00081EE380780E0480780E0580749F182E033
:1055C0008093C00060E079E08DE390E00E941A6271
:1055D0002150304040405040CA01B90122E030E043
:1055E00040E050E00E941A623093C5002093C4004E
:1055F0008091C10080618093C1008091C10088606A
:105600008093C1008091C10080688093C10008959B
:105610001092C00020E130E0E7CF20916F0530917B
:10562000700580916D0590916E058217930719F4AE
:105630002FEF3FEF0EC0F901E351FB4F80812F5F49
:105640003F4F2F7730703093700520936F05282FD0
:1056500030E0C901089580916F0590917005909395
:105660006E0580936D05089508952F923F924F9295
:105670005F926F927F928F929F92AF92BF92CF92E2
:10568000DF92EF92FF920F931F93DF93CF93CDB7EB
:10569000DEB7A0970FB6F894DEBF0FBECDBF1C01DA
:1056A0006A017B01411551056105710549F440E32B
:1056B00050E060E070E020E030E00E94EC2B54C04D
:1056C000882499245401422E55246624772401E02D
:1056D00010E00C0F1D1F080D191DC701B601A30115
:1056E00092010E94F861F80160830894811C911C6A
:1056F000A11CB11CC701B601A30192010E94F8616F
:10570000C901DA016C017D01C114D104E104F10485
:10571000F1F681E0E82EF12CEC0EFD1EE80CF91CF0
:105720003E010894611C711CD501C4010197A109B7
:10573000B1096C01C818D90814C0F601EE0DFF1D9F
:1057400040814A3010F4405D01C0495C50E060E0A7
:1057500070E0C10120E030E00E94EC2B0894E108E9
:10576000F1086E147F0449F7A0960FB6F894DEBFD7
:105770000FBECDBFCF91DF911F910F91FF90EF90A2
:10578000DF90CF90BF90AF909F908F907F906F9061
:105790005F904F903F902F9008952115310539F477
:1057A0008091C00085FFFCCF4093C60008950E9401
:1057B000352B0895EF92FF920F931F939A01E62ED7
:1057C000FF2400E010E0B801A7010E94CD2B1F913B
:1057D0000F91FF90EF900895EF92FF920F931F9318
:1057E000CF93DF93EC017A018B012115310539F458
:1057F0008091C00085FFFCCFE092C6001BC02A301C
:105800003105B1F477FF10C04DE250E060E070E088
:1058100020E030E00E94EC2B10950095F094E0948D
:10582000E11CF11C011D111DCE01B801A7012AE0E8
:105830000E94352BDF91CF911F910F91FF90EF9038
:105840000895EF92FF920F931F937B019A01002717
:10585000F7FC0095102FB801A7010E94EC2B1F91B7
:105860000F91FF90EF9008950F931F938C014DE0DF
:1058700050E060E070E020E030E00E94EC2BC801D6
:105880004AE050E060E070E020E030E00E94EC2B65
:105890001F910F910895CF92DF92EF92FF920F9395
:1058A0001F938C019A016B01EE24FF24B701A6011E
:1058B0000E94CD2BC8010E94342C1F910F91FF90A4
:1058C000EF90DF90CF9008959F92AF92BF92CF92CA
:1058D000DF92EF92FF920F931F93CF93DF93EC0130
:1058E0007A018B01922ECB01BA0120E030E040E03A
:1058F00050E00E94145E88236CF4CE014DE250E02B
:1059000060E070E020E030E00E94EC2B17FB109587
:1059100017F9109520E030E040E05FE3AA240BC0C7
:10592000CA01B90120E030E040E251E40E941B5E70
:105930009B01AC01A394A91498F3C801B7010E947C
:105940003B5D7B018C010E94885E5B016C010E94C3
:10595000B45E9B01AC01C801B7010E943A5D7B01B6
:105960008C01CE01B601A5012AE030E00E94CD2BCA
:105970009920A1F1E8EAF1E007C08091C00085FF1D
:10598000FCCF31969093C60090819923B1F726C041
:10599000C801B70120E030E040E251E40E94F46029
:1059A0007B018C010E94835E5B016C01CC24B7FCFF
:1059B000C094DC2CCE01B601A5012AE030E00E94A3
:1059C000EC2BC601B5010E94B65E9B01AC01C8017B
:1059D000B7010E943A5D7B018C019A949920C1F62F
:1059E000DF91CF911F910F91FF90EF90DF90CF90BB
:1059F000BF90AF909F9008950E94642C08952F92BD
:105A00003F924F925F926F927F928F929F92AF924E
:105A1000BF92CF92DF92EF92FF920F931F93DF938B
:105A2000CF93CDB7DEB7CD55D0400FB6F894DEBFDB
:105A30000FBECDBF2F969FAF8EAF2F9761967FAFD2
:105A40006EAF61972A0162962FAF629763960FAF90
:105A500063976496EFAE64976896ACAEBDAECEAE7B
:105A6000DFAE6897E22EFF24EE0CFF1CEE0CFF1C4D
:105A70009A012E0D3F1D2D963FAF2EAF2D97D901C8
:105A80006D907D908D909C90FC01EE0DFF1DC401EA
:105A9000B30120813181428153810E943B5D69AF16
:105AA0007AAF8BAF9CAF10E0000F111F000F111FDA
:105AB000F201E00FF11F2B96FFAFEEAF2B97A08006
:105AC000B180C280D3802F96EEADFFAD2F97E00F4F
:105AD000F11FC601B50120813181428153810E94AD
